{
	"contracts/Voting.sol": {
		"Mapping": {
			"abi": [
				{
					"inputs": [],
					"stateMutability": "nonpayable",
					"type": "constructor"
				},
				{
					"inputs": [
						{
							"internalType": "string",
							"name": "name",
							"type": "string"
						}
					],
					"name": "addCandidate",
					"outputs": [],
					"stateMutability": "nonpayable",
					"type": "function"
				},
				{
					"inputs": [],
					"name": "admin",
					"outputs": [
						{
							"internalType": "address",
							"name": "",
							"type": "address"
						}
					],
					"stateMutability": "view",
					"type": "function"
				},
				{
					"inputs": [],
					"name": "candidateCount",
					"outputs": [
						{
							"internalType": "uint256",
							"name": "",
							"type": "uint256"
						}
					],
					"stateMutability": "view",
					"type": "function"
				},
				{
					"inputs": [
						{
							"internalType": "uint256",
							"name": "",
							"type": "uint256"
						}
					],
					"name": "candidates",
					"outputs": [
						{
							"internalType": "string",
							"name": "name",
							"type": "string"
						},
						{
							"internalType": "uint256",
							"name": "voteCount",
							"type": "uint256"
						}
					],
					"stateMutability": "view",
					"type": "function"
				},
				{
					"inputs": [
						{
							"internalType": "uint256",
							"name": "candidateId",
							"type": "uint256"
						}
					],
					"name": "getCandidate",
					"outputs": [
						{
							"internalType": "string",
							"name": "",
							"type": "string"
						},
						{
							"internalType": "uint256",
							"name": "",
							"type": "uint256"
						}
					],
					"stateMutability": "view",
					"type": "function"
				},
				{
					"inputs": [
						{
							"internalType": "address",
							"name": "",
							"type": "address"
						}
					],
					"name": "hasVoted",
					"outputs": [
						{
							"internalType": "bool",
							"name": "",
							"type": "bool"
						}
					],
					"stateMutability": "view",
					"type": "function"
				},
				{
					"inputs": [
						{
							"internalType": "uint256",
							"name": "candidateId",
							"type": "uint256"
						}
					],
					"name": "vote",
					"outputs": [],
					"stateMutability": "nonpayable",
					"type": "function"
				}
			],
			"devdoc": {
				"kind": "dev",
				"methods": {},
				"version": 1
			},
			"evm": {
				"assembly": "    /* \"contracts/Voting.sol\":60:1036  contract Mapping {... */\n  mstore(0x40, 0x80)\n    /* \"contracts/Voting.sol\":111:155  constructor() {... */\n  callvalue\n  dup1\n  iszero\n  tag_1\n  jumpi\n  revert(0x00, 0x00)\ntag_1:\n  pop\n    /* \"contracts/Voting.sol\":138:148  msg.sender */\n  caller\n    /* \"contracts/Voting.sol\":132:137  admin */\n  0x00\n  0x00\n    /* \"contracts/Voting.sol\":132:148  admin=msg.sender */\n  0x0100\n  exp\n  dup2\n  sload\n  dup2\n  0xffffffffffffffffffffffffffffffffffffffff\n  mul\n  not\n  and\n  swap1\n  dup4\n  0xffffffffffffffffffffffffffffffffffffffff\n  and\n  mul\n  or\n  swap1\n  sstore\n  pop\n    /* \"contracts/Voting.sol\":60:1036  contract Mapping {... */\n  dataSize(sub_0)\n  dup1\n  dataOffset(sub_0)\n  0x00\n  codecopy\n  0x00\n  return\nstop\n\nsub_0: assembly {\n        /* \"contracts/Voting.sol\":60:1036  contract Mapping {... */\n      mstore(0x40, 0x80)\n      callvalue\n      dup1\n      iszero\n      tag_1\n      jumpi\n      revert(0x00, 0x00)\n    tag_1:\n      pop\n      jumpi(tag_2, lt(calldatasize, 0x04))\n      shr(0xe0, calldataload(0x00))\n      dup1\n      0x35b8e820\n      gt\n      tag_10\n      jumpi\n      dup1\n      0x35b8e820\n      eq\n      tag_6\n      jumpi\n      dup1\n      0x462e91ec\n      eq\n      tag_7\n      jumpi\n      dup1\n      0xa9a981a3\n      eq\n      tag_8\n      jumpi\n      dup1\n      0xf851a440\n      eq\n      tag_9\n      jumpi\n      jump(tag_2)\n    tag_10:\n      dup1\n      0x0121b93f\n      eq\n      tag_3\n      jumpi\n      dup1\n      0x09eef43e\n      eq\n      tag_4\n      jumpi\n      dup1\n      0x3477ee2e\n      eq\n      tag_5\n      jumpi\n    tag_2:\n      revert(0x00, 0x00)\n        /* \"contracts/Voting.sol\":572:803  function vote(uint candidateId)public {... */\n    tag_3:\n      tag_11\n      0x04\n      dup1\n      calldatasize\n      sub\n      dup2\n      add\n      swap1\n      tag_12\n      swap2\n      swap1\n      tag_13\n      jump\t// in\n    tag_12:\n      tag_14\n      jump\t// in\n    tag_11:\n      stop\n        /* \"contracts/Voting.sol\":314:354  mapping (address =>bool) public hasVoted */\n    tag_4:\n      tag_15\n      0x04\n      dup1\n      calldatasize\n      sub\n      dup2\n      add\n      swap1\n      tag_16\n      swap2\n      swap1\n      tag_17\n      jump\t// in\n    tag_16:\n      tag_18\n      jump\t// in\n    tag_15:\n      mload(0x40)\n      tag_19\n      swap2\n      swap1\n      tag_20\n      jump\t// in\n    tag_19:\n      mload(0x40)\n      dup1\n      swap2\n      sub\n      swap1\n      return\n        /* \"contracts/Voting.sol\":231:274  mapping (uint=>Candidate) public candidates */\n    tag_5:\n      tag_21\n      0x04\n      dup1\n      calldatasize\n      sub\n      dup2\n      add\n      swap1\n      tag_22\n      swap2\n      swap1\n      tag_13\n      jump\t// in\n    tag_22:\n      tag_23\n      jump\t// in\n    tag_21:\n      mload(0x40)\n      tag_24\n      swap3\n      swap2\n      swap1\n      tag_25\n      jump\t// in\n    tag_24:\n      mload(0x40)\n      dup1\n      swap2\n      sub\n      swap1\n      return\n        /* \"contracts/Voting.sol\":810:1033  function getCandidate(uint candidateId)public view returns(string memory,uint) {... */\n    tag_6:\n      tag_26\n      0x04\n      dup1\n      calldatasize\n      sub\n      dup2\n      add\n      swap1\n      tag_27\n      swap2\n      swap1\n      tag_13\n      jump\t// in\n    tag_27:\n      tag_28\n      jump\t// in\n    tag_26:\n      mload(0x40)\n      tag_29\n      swap3\n      swap2\n      swap1\n      tag_25\n      jump\t// in\n    tag_29:\n      mload(0x40)\n      dup1\n      swap2\n      sub\n      swap1\n      return\n        /* \"contracts/Voting.sol\":362:565  function addCandidate(string memory name)public  {... */\n    tag_7:\n      tag_30\n      0x04\n      dup1\n      calldatasize\n      sub\n      dup2\n      add\n      swap1\n      tag_31\n      swap2\n      swap1\n      tag_32\n      jump\t// in\n    tag_31:\n      tag_33\n      jump\t// in\n    tag_30:\n      stop\n        /* \"contracts/Voting.sol\":280:306  uint public candidateCount */\n    tag_8:\n      tag_34\n      tag_35\n      jump\t// in\n    tag_34:\n      mload(0x40)\n      tag_36\n      swap2\n      swap1\n      tag_37\n      jump\t// in\n    tag_36:\n      mload(0x40)\n      dup1\n      swap2\n      sub\n      swap1\n      return\n        /* \"contracts/Voting.sol\":83:103  address public admin */\n    tag_9:\n      tag_38\n      tag_39\n      jump\t// in\n    tag_38:\n      mload(0x40)\n      tag_40\n      swap2\n      swap1\n      tag_41\n      jump\t// in\n    tag_40:\n      mload(0x40)\n      dup1\n      swap2\n      sub\n      swap1\n      return\n        /* \"contracts/Voting.sol\":572:803  function vote(uint candidateId)public {... */\n    tag_14:\n        /* \"contracts/Voting.sol\":626:634  hasVoted */\n      0x03\n        /* \"contracts/Voting.sol\":626:646  hasVoted[msg.sender] */\n      0x00\n        /* \"contracts/Voting.sol\":635:645  msg.sender */\n      caller\n        /* \"contracts/Voting.sol\":626:646  hasVoted[msg.sender] */\n      0xffffffffffffffffffffffffffffffffffffffff\n      and\n      0xffffffffffffffffffffffffffffffffffffffff\n      and\n      dup2\n      mstore\n      0x20\n      add\n      swap1\n      dup2\n      mstore\n      0x20\n      add\n      0x00\n      keccak256\n      0x00\n      swap1\n      sload\n      swap1\n      0x0100\n      exp\n      swap1\n      div\n      0xff\n      and\n        /* \"contracts/Voting.sol\":625:646  !hasVoted[msg.sender] */\n      iszero\n        /* \"contracts/Voting.sol\":617:664  require(!hasVoted[msg.sender],'kamu udah vote') */\n      tag_43\n      jumpi\n      mload(0x40)\n      0x08c379a000000000000000000000000000000000000000000000000000000000\n      dup2\n      mstore\n      0x04\n      add\n      tag_44\n      swap1\n      tag_45\n      jump\t// in\n    tag_44:\n      mload(0x40)\n      dup1\n      swap2\n      sub\n      swap1\n      revert\n    tag_43:\n        /* \"contracts/Voting.sol\":693:707  candidateCount */\n      sload(0x02)\n        /* \"contracts/Voting.sol\":679:690  candidateId */\n      dup2\n        /* \"contracts/Voting.sol\":679:707  candidateId < candidateCount */\n      lt\n        /* \"contracts/Voting.sol\":671:720  require(candidateId < candidateCount, 'ga valid') */\n      tag_46\n      jumpi\n      mload(0x40)\n      0x08c379a000000000000000000000000000000000000000000000000000000000\n      dup2\n      mstore\n      0x04\n      add\n      tag_47\n      swap1\n      tag_48\n      jump\t// in\n    tag_47:\n      mload(0x40)\n      dup1\n      swap2\n      sub\n      swap1\n      revert\n    tag_46:\n        /* \"contracts/Voting.sol\":729:739  candidates */\n      0x01\n        /* \"contracts/Voting.sol\":729:752  candidates[candidateId] */\n      0x00\n        /* \"contracts/Voting.sol\":740:751  candidateId */\n      dup3\n        /* \"contracts/Voting.sol\":729:752  candidates[candidateId] */\n      dup2\n      mstore\n      0x20\n      add\n      swap1\n      dup2\n      mstore\n      0x20\n      add\n      0x00\n      keccak256\n        /* \"contracts/Voting.sol\":729:762  candidates[candidateId].voteCount */\n      0x01\n      add\n      0x00\n        /* \"contracts/Voting.sol\":729:764  candidates[candidateId].voteCount++ */\n      dup2\n      sload\n      dup1\n      swap3\n      swap2\n      swap1\n      tag_49\n      swap1\n      tag_50\n      jump\t// in\n    tag_49:\n      swap2\n      swap1\n      pop\n      sstore\n      pop\n        /* \"contracts/Voting.sol\":792:796  true */\n      0x01\n        /* \"contracts/Voting.sol\":771:779  hasVoted */\n      0x03\n        /* \"contracts/Voting.sol\":771:791  hasVoted[msg.sender] */\n      0x00\n        /* \"contracts/Voting.sol\":780:790  msg.sender */\n      caller\n        /* \"contracts/Voting.sol\":771:791  hasVoted[msg.sender] */\n      0xffffffffffffffffffffffffffffffffffffffff\n      and\n      0xffffffffffffffffffffffffffffffffffffffff\n      and\n      dup2\n      mstore\n      0x20\n      add\n      swap1\n      dup2\n      mstore\n      0x20\n      add\n      0x00\n      keccak256\n      0x00\n        /* \"contracts/Voting.sol\":771:796  hasVoted[msg.sender]=true */\n      0x0100\n      exp\n      dup2\n      sload\n      dup2\n      0xff\n      mul\n      not\n      and\n      swap1\n      dup4\n      iszero\n      iszero\n      mul\n      or\n      swap1\n      sstore\n      pop\n        /* \"contracts/Voting.sol\":572:803  function vote(uint candidateId)public {... */\n      pop\n      jump\t// out\n        /* \"contracts/Voting.sol\":314:354  mapping (address =>bool) public hasVoted */\n    tag_18:\n      mstore(0x20, 0x03)\n      dup1\n      0x00\n      mstore\n      keccak256(0x00, 0x40)\n      0x00\n      swap2\n      pop\n      sload\n      swap1\n      0x0100\n      exp\n      swap1\n      div\n      0xff\n      and\n      dup2\n      jump\t// out\n        /* \"contracts/Voting.sol\":231:274  mapping (uint=>Candidate) public candidates */\n    tag_23:\n      mstore(0x20, 0x01)\n      dup1\n      0x00\n      mstore\n      keccak256(0x00, 0x40)\n      0x00\n      swap2\n      pop\n      swap1\n      pop\n      dup1\n      0x00\n      add\n      dup1\n      sload\n      tag_51\n      swap1\n      tag_52\n      jump\t// in\n    tag_51:\n      dup1\n      0x1f\n      add\n      0x20\n      dup1\n      swap2\n      div\n      mul\n      0x20\n      add\n      mload(0x40)\n      swap1\n      dup2\n      add\n      0x40\n      mstore\n      dup1\n      swap3\n      swap2\n      swap1\n      dup2\n      dup2\n      mstore\n      0x20\n      add\n      dup3\n      dup1\n      sload\n      tag_53\n      swap1\n      tag_52\n      jump\t// in\n    tag_53:\n      dup1\n      iszero\n      tag_54\n      jumpi\n      dup1\n      0x1f\n      lt\n      tag_55\n      jumpi\n      0x0100\n      dup1\n      dup4\n      sload\n      div\n      mul\n      dup4\n      mstore\n      swap2\n      0x20\n      add\n      swap2\n      jump(tag_54)\n    tag_55:\n      dup3\n      add\n      swap2\n      swap1\n      0x00\n      mstore\n      keccak256(0x00, 0x20)\n      swap1\n    tag_56:\n      dup2\n      sload\n      dup2\n      mstore\n      swap1\n      0x01\n      add\n      swap1\n      0x20\n      add\n      dup1\n      dup4\n      gt\n      tag_56\n      jumpi\n      dup3\n      swap1\n      sub\n      0x1f\n      and\n      dup3\n      add\n      swap2\n    tag_54:\n      pop\n      pop\n      pop\n      pop\n      pop\n      swap1\n      dup1\n      0x01\n      add\n      sload\n      swap1\n      pop\n      dup3\n      jump\t// out\n        /* \"contracts/Voting.sol\":810:1033  function getCandidate(uint candidateId)public view returns(string memory,uint) {... */\n    tag_28:\n        /* \"contracts/Voting.sol\":869:882  string memory */\n      0x60\n        /* \"contracts/Voting.sol\":883:887  uint */\n      0x00\n        /* \"contracts/Voting.sol\":916:930  candidateCount */\n      sload(0x02)\n        /* \"contracts/Voting.sol\":904:915  candidateId */\n      dup4\n        /* \"contracts/Voting.sol\":904:930  candidateId<candidateCount */\n      lt\n        /* \"contracts/Voting.sol\":896:943  require(candidateId<candidateCount, 'ga valid') */\n      tag_58\n      jumpi\n      mload(0x40)\n      0x08c379a000000000000000000000000000000000000000000000000000000000\n      dup2\n      mstore\n      0x04\n      add\n      tag_59\n      swap1\n      tag_48\n      jump\t// in\n    tag_59:\n      mload(0x40)\n      dup1\n      swap2\n      sub\n      swap1\n      revert\n    tag_58:\n        /* \"contracts/Voting.sol\":950:968  Candidate memory c */\n      0x00\n        /* \"contracts/Voting.sol\":969:979  candidates */\n      0x01\n        /* \"contracts/Voting.sol\":969:992  candidates[candidateId] */\n      0x00\n        /* \"contracts/Voting.sol\":980:991  candidateId */\n      dup6\n        /* \"contracts/Voting.sol\":969:992  candidates[candidateId] */\n      dup2\n      mstore\n      0x20\n      add\n      swap1\n      dup2\n      mstore\n      0x20\n      add\n      0x00\n      keccak256\n        /* \"contracts/Voting.sol\":950:992  Candidate memory c=candidates[candidateId] */\n      mload(0x40)\n      dup1\n      0x40\n      add\n      0x40\n      mstore\n      swap1\n      dup2\n      0x00\n      dup3\n      add\n      dup1\n      sload\n      tag_60\n      swap1\n      tag_52\n      jump\t// in\n    tag_60:\n      dup1\n      0x1f\n      add\n      0x20\n      dup1\n      swap2\n      div\n      mul\n      0x20\n      add\n      mload(0x40)\n      swap1\n      dup2\n      add\n      0x40\n      mstore\n      dup1\n      swap3\n      swap2\n      swap1\n      dup2\n      dup2\n      mstore\n      0x20\n      add\n      dup3\n      dup1\n      sload\n      tag_61\n      swap1\n      tag_52\n      jump\t// in\n    tag_61:\n      dup1\n      iszero\n      tag_62\n      jumpi\n      dup1\n      0x1f\n      lt\n      tag_63\n      jumpi\n      0x0100\n      dup1\n      dup4\n      sload\n      div\n      mul\n      dup4\n      mstore\n      swap2\n      0x20\n      add\n      swap2\n      jump(tag_62)\n    tag_63:\n      dup3\n      add\n      swap2\n      swap1\n      0x00\n      mstore\n      keccak256(0x00, 0x20)\n      swap1\n    tag_64:\n      dup2\n      sload\n      dup2\n      mstore\n      swap1\n      0x01\n      add\n      swap1\n      0x20\n      add\n      dup1\n      dup4\n      gt\n      tag_64\n      jumpi\n      dup3\n      swap1\n      sub\n      0x1f\n      and\n      dup3\n      add\n      swap2\n    tag_62:\n      pop\n      pop\n      pop\n      pop\n      pop\n      dup2\n      mstore\n      0x20\n      add\n      0x01\n      dup3\n      add\n      sload\n      dup2\n      mstore\n      pop\n      pop\n      swap1\n      pop\n        /* \"contracts/Voting.sol\":1007:1008  c */\n      dup1\n        /* \"contracts/Voting.sol\":1007:1013  c.name */\n      0x00\n      add\n      mload\n        /* \"contracts/Voting.sol\":1014:1015  c */\n      dup2\n        /* \"contracts/Voting.sol\":1014:1025  c.voteCount */\n      0x20\n      add\n      mload\n        /* \"contracts/Voting.sol\":999:1026  return (c.name,c.voteCount) */\n      swap3\n      pop\n      swap3\n      pop\n      pop\n        /* \"contracts/Voting.sol\":810:1033  function getCandidate(uint candidateId)public view returns(string memory,uint) {... */\n      swap2\n      pop\n      swap2\n      jump\t// out\n        /* \"contracts/Voting.sol\":362:565  function addCandidate(string memory name)public  {... */\n    tag_33:\n        /* \"contracts/Voting.sol\":438:443  admin */\n      0x00\n      0x00\n      swap1\n      sload\n      swap1\n      0x0100\n      exp\n      swap1\n      div\n      0xffffffffffffffffffffffffffffffffffffffff\n      and\n        /* \"contracts/Voting.sol\":426:443  msg.sender==admin */\n      0xffffffffffffffffffffffffffffffffffffffff\n      and\n        /* \"contracts/Voting.sol\":426:436  msg.sender */\n      caller\n        /* \"contracts/Voting.sol\":426:443  msg.sender==admin */\n      0xffffffffffffffffffffffffffffffffffffffff\n      and\n      eq\n        /* \"contracts/Voting.sol\":418:482  require(msg.sender==admin,\"Hanya admin yg bisa nambah kandidat\") */\n      tag_66\n      jumpi\n      mload(0x40)\n      0x08c379a000000000000000000000000000000000000000000000000000000000\n      dup2\n      mstore\n      0x04\n      add\n      tag_67\n      swap1\n      tag_68\n      jump\t// in\n    tag_67:\n      mload(0x40)\n      dup1\n      swap2\n      sub\n      swap1\n      revert\n    tag_66:\n        /* \"contracts/Voting.sol\":518:535  Candidate(name,0) */\n      mload(0x40)\n      dup1\n      0x40\n      add\n      0x40\n      mstore\n      dup1\n        /* \"contracts/Voting.sol\":528:532  name */\n      dup3\n        /* \"contracts/Voting.sol\":518:535  Candidate(name,0) */\n      dup2\n      mstore\n      0x20\n      add\n        /* \"contracts/Voting.sol\":533:534  0 */\n      0x00\n        /* \"contracts/Voting.sol\":518:535  Candidate(name,0) */\n      dup2\n      mstore\n      pop\n        /* \"contracts/Voting.sol\":491:501  candidates */\n      0x01\n        /* \"contracts/Voting.sol\":491:517  candidates[candidateCount] */\n      0x00\n        /* \"contracts/Voting.sol\":502:516  candidateCount */\n      sload(0x02)\n        /* \"contracts/Voting.sol\":491:517  candidates[candidateCount] */\n      dup2\n      mstore\n      0x20\n      add\n      swap1\n      dup2\n      mstore\n      0x20\n      add\n      0x00\n      keccak256\n        /* \"contracts/Voting.sol\":491:535  candidates[candidateCount]=Candidate(name,0) */\n      0x00\n      dup3\n      add\n      mload\n      dup2\n      0x00\n      add\n      swap1\n      dup2\n      tag_69\n      swap2\n      swap1\n      tag_70\n      jump\t// in\n    tag_69:\n      pop\n      0x20\n      dup3\n      add\n      mload\n      dup2\n      0x01\n      add\n      sstore\n      swap1\n      pop\n      pop\n        /* \"contracts/Voting.sol\":542:556  candidateCount */\n      0x02\n      0x00\n        /* \"contracts/Voting.sol\":542:558  candidateCount++ */\n      dup2\n      sload\n      dup1\n      swap3\n      swap2\n      swap1\n      tag_71\n      swap1\n      tag_50\n      jump\t// in\n    tag_71:\n      swap2\n      swap1\n      pop\n      sstore\n      pop\n        /* \"contracts/Voting.sol\":362:565  function addCandidate(string memory name)public  {... */\n      pop\n      jump\t// out\n        /* \"contracts/Voting.sol\":280:306  uint public candidateCount */\n    tag_35:\n      sload(0x02)\n      dup2\n      jump\t// out\n        /* \"contracts/Voting.sol\":83:103  address public admin */\n    tag_39:\n      0x00\n      0x00\n      swap1\n      sload\n      swap1\n      0x0100\n      exp\n      swap1\n      div\n      0xffffffffffffffffffffffffffffffffffffffff\n      and\n      dup2\n      jump\t// out\n        /* \"#utility.yul\":7:82   */\n    tag_72:\n        /* \"#utility.yul\":40:46   */\n      0x00\n        /* \"#utility.yul\":73:75   */\n      0x40\n        /* \"#utility.yul\":67:76   */\n      mload\n        /* \"#utility.yul\":57:76   */\n      swap1\n      pop\n        /* \"#utility.yul\":7:82   */\n      swap1\n      jump\t// out\n        /* \"#utility.yul\":88:205   */\n    tag_73:\n        /* \"#utility.yul\":197:198   */\n      0x00\n        /* \"#utility.yul\":194:195   */\n      0x00\n        /* \"#utility.yul\":187:199   */\n      revert\n        /* \"#utility.yul\":211:328   */\n    tag_74:\n        /* \"#utility.yul\":320:321   */\n      0x00\n        /* \"#utility.yul\":317:318   */\n      0x00\n        /* \"#utility.yul\":310:322   */\n      revert\n        /* \"#utility.yul\":334:411   */\n    tag_75:\n        /* \"#utility.yul\":371:378   */\n      0x00\n        /* \"#utility.yul\":400:405   */\n      dup2\n        /* \"#utility.yul\":389:405   */\n      swap1\n      pop\n        /* \"#utility.yul\":334:411   */\n      swap2\n      swap1\n      pop\n      jump\t// out\n        /* \"#utility.yul\":417:539   */\n    tag_76:\n        /* \"#utility.yul\":490:514   */\n      tag_129\n        /* \"#utility.yul\":508:513   */\n      dup2\n        /* \"#utility.yul\":490:514   */\n      tag_75\n      jump\t// in\n    tag_129:\n        /* \"#utility.yul\":483:488   */\n      dup2\n        /* \"#utility.yul\":480:515   */\n      eq\n        /* \"#utility.yul\":470:533   */\n      tag_130\n      jumpi\n        /* \"#utility.yul\":529:530   */\n      0x00\n        /* \"#utility.yul\":526:527   */\n      0x00\n        /* \"#utility.yul\":519:531   */\n      revert\n        /* \"#utility.yul\":470:533   */\n    tag_130:\n        /* \"#utility.yul\":417:539   */\n      pop\n      jump\t// out\n        /* \"#utility.yul\":545:684   */\n    tag_77:\n        /* \"#utility.yul\":591:596   */\n      0x00\n        /* \"#utility.yul\":629:635   */\n      dup2\n        /* \"#utility.yul\":616:636   */\n      calldataload\n        /* \"#utility.yul\":607:636   */\n      swap1\n      pop\n        /* \"#utility.yul\":645:678   */\n      tag_132\n        /* \"#utility.yul\":672:677   */\n      dup2\n        /* \"#utility.yul\":645:678   */\n      tag_76\n      jump\t// in\n    tag_132:\n        /* \"#utility.yul\":545:684   */\n      swap3\n      swap2\n      pop\n      pop\n      jump\t// out\n        /* \"#utility.yul\":690:1019   */\n    tag_13:\n        /* \"#utility.yul\":749:755   */\n      0x00\n        /* \"#utility.yul\":798:800   */\n      0x20\n        /* \"#utility.yul\":786:795   */\n      dup3\n        /* \"#utility.yul\":777:784   */\n      dup5\n        /* \"#utility.yul\":773:796   */\n      sub\n        /* \"#utility.yul\":769:801   */\n      slt\n        /* \"#utility.yul\":766:885   */\n      iszero\n      tag_134\n      jumpi\n        /* \"#utility.yul\":804:883   */\n      tag_135\n      tag_73\n      jump\t// in\n    tag_135:\n        /* \"#utility.yul\":766:885   */\n    tag_134:\n        /* \"#utility.yul\":924:925   */\n      0x00\n        /* \"#utility.yul\":949:1002   */\n      tag_136\n        /* \"#utility.yul\":994:1001   */\n      dup5\n        /* \"#utility.yul\":985:991   */\n      dup3\n        /* \"#utility.yul\":974:983   */\n      dup6\n        /* \"#utility.yul\":970:992   */\n      add\n        /* \"#utility.yul\":949:1002   */\n      tag_77\n      jump\t// in\n    tag_136:\n        /* \"#utility.yul\":939:1002   */\n      swap2\n      pop\n        /* \"#utility.yul\":895:1012   */\n      pop\n        /* \"#utility.yul\":690:1019   */\n      swap3\n      swap2\n      pop\n      pop\n      jump\t// out\n        /* \"#utility.yul\":1025:1151   */\n    tag_78:\n        /* \"#utility.yul\":1062:1069   */\n      0x00\n        /* \"#utility.yul\":1102:1144   */\n      0xffffffffffffffffffffffffffffffffffffffff\n        /* \"#utility.yul\":1095:1100   */\n      dup3\n        /* \"#utility.yul\":1091:1145   */\n      and\n        /* \"#utility.yul\":1080:1145   */\n      swap1\n      pop\n        /* \"#utility.yul\":1025:1151   */\n      swap2\n      swap1\n      pop\n      jump\t// out\n        /* \"#utility.yul\":1157:1253   */\n    tag_79:\n        /* \"#utility.yul\":1194:1201   */\n      0x00\n        /* \"#utility.yul\":1223:1247   */\n      tag_139\n        /* \"#utility.yul\":1241:1246   */\n      dup3\n        /* \"#utility.yul\":1223:1247   */\n      tag_78\n      jump\t// in\n    tag_139:\n        /* \"#utility.yul\":1212:1247   */\n      swap1\n      pop\n        /* \"#utility.yul\":1157:1253   */\n      swap2\n      swap1\n      pop\n      jump\t// out\n        /* \"#utility.yul\":1259:1381   */\n    tag_80:\n        /* \"#utility.yul\":1332:1356   */\n      tag_141\n        /* \"#utility.yul\":1350:1355   */\n      dup2\n        /* \"#utility.yul\":1332:1356   */\n      tag_79\n      jump\t// in\n    tag_141:\n        /* \"#utility.yul\":1325:1330   */\n      dup2\n        /* \"#utility.yul\":1322:1357   */\n      eq\n        /* \"#utility.yul\":1312:1375   */\n      tag_142\n      jumpi\n        /* \"#utility.yul\":1371:1372   */\n      0x00\n        /* \"#utility.yul\":1368:1369   */\n      0x00\n        /* \"#utility.yul\":1361:1373   */\n      revert\n        /* \"#utility.yul\":1312:1375   */\n    tag_142:\n        /* \"#utility.yul\":1259:1381   */\n      pop\n      jump\t// out\n        /* \"#utility.yul\":1387:1526   */\n    tag_81:\n        /* \"#utility.yul\":1433:1438   */\n      0x00\n        /* \"#utility.yul\":1471:1477   */\n      dup2\n        /* \"#utility.yul\":1458:1478   */\n      calldataload\n        /* \"#utility.yul\":1449:1478   */\n      swap1\n      pop\n        /* \"#utility.yul\":1487:1520   */\n      tag_144\n        /* \"#utility.yul\":1514:1519   */\n      dup2\n        /* \"#utility.yul\":1487:1520   */\n      tag_80\n      jump\t// in\n    tag_144:\n        /* \"#utility.yul\":1387:1526   */\n      swap3\n      swap2\n      pop\n      pop\n      jump\t// out\n        /* \"#utility.yul\":1532:1861   */\n    tag_17:\n        /* \"#utility.yul\":1591:1597   */\n      0x00\n        /* \"#utility.yul\":1640:1642   */\n      0x20\n        /* \"#utility.yul\":1628:1637   */\n      dup3\n        /* \"#utility.yul\":1619:1626   */\n      dup5\n        /* \"#utility.yul\":1615:1638   */\n      sub\n        /* \"#utility.yul\":1611:1643   */\n      slt\n        /* \"#utility.yul\":1608:1727   */\n      iszero\n      tag_146\n      jumpi\n        /* \"#utility.yul\":1646:1725   */\n      tag_147\n      tag_73\n      jump\t// in\n    tag_147:\n        /* \"#utility.yul\":1608:1727   */\n    tag_146:\n        /* \"#utility.yul\":1766:1767   */\n      0x00\n        /* \"#utility.yul\":1791:1844   */\n      tag_148\n        /* \"#utility.yul\":1836:1843   */\n      dup5\n        /* \"#utility.yul\":1827:1833   */\n      dup3\n        /* \"#utility.yul\":1816:1825   */\n      dup6\n        /* \"#utility.yul\":1812:1834   */\n      add\n        /* \"#utility.yul\":1791:1844   */\n      tag_81\n      jump\t// in\n    tag_148:\n        /* \"#utility.yul\":1781:1844   */\n      swap2\n      pop\n        /* \"#utility.yul\":1737:1854   */\n      pop\n        /* \"#utility.yul\":1532:1861   */\n      swap3\n      swap2\n      pop\n      pop\n      jump\t// out\n        /* \"#utility.yul\":1867:1957   */\n    tag_82:\n        /* \"#utility.yul\":1901:1908   */\n      0x00\n        /* \"#utility.yul\":1944:1949   */\n      dup2\n        /* \"#utility.yul\":1937:1950   */\n      iszero\n        /* \"#utility.yul\":1930:1951   */\n      iszero\n        /* \"#utility.yul\":1919:1951   */\n      swap1\n      pop\n        /* \"#utility.yul\":1867:1957   */\n      swap2\n      swap1\n      pop\n      jump\t// out\n        /* \"#utility.yul\":1963:2072   */\n    tag_83:\n        /* \"#utility.yul\":2044:2065   */\n      tag_151\n        /* \"#utility.yul\":2059:2064   */\n      dup2\n        /* \"#utility.yul\":2044:2065   */\n      tag_82\n      jump\t// in\n    tag_151:\n        /* \"#utility.yul\":2039:2042   */\n      dup3\n        /* \"#utility.yul\":2032:2066   */\n      mstore\n        /* \"#utility.yul\":1963:2072   */\n      pop\n      pop\n      jump\t// out\n        /* \"#utility.yul\":2078:2288   */\n    tag_20:\n        /* \"#utility.yul\":2165:2169   */\n      0x00\n        /* \"#utility.yul\":2203:2205   */\n      0x20\n        /* \"#utility.yul\":2192:2201   */\n      dup3\n        /* \"#utility.yul\":2188:2206   */\n      add\n        /* \"#utility.yul\":2180:2206   */\n      swap1\n      pop\n        /* \"#utility.yul\":2216:2281   */\n      tag_153\n        /* \"#utility.yul\":2278:2279   */\n      0x00\n        /* \"#utility.yul\":2267:2276   */\n      dup4\n        /* \"#utility.yul\":2263:2280   */\n      add\n        /* \"#utility.yul\":2254:2260   */\n      dup5\n        /* \"#utility.yul\":2216:2281   */\n      tag_83\n      jump\t// in\n    tag_153:\n        /* \"#utility.yul\":2078:2288   */\n      swap3\n      swap2\n      pop\n      pop\n      jump\t// out\n        /* \"#utility.yul\":2294:2393   */\n    tag_84:\n        /* \"#utility.yul\":2346:2352   */\n      0x00\n        /* \"#utility.yul\":2380:2385   */\n      dup2\n        /* \"#utility.yul\":2374:2386   */\n      mload\n        /* \"#utility.yul\":2364:2386   */\n      swap1\n      pop\n        /* \"#utility.yul\":2294:2393   */\n      swap2\n      swap1\n      pop\n      jump\t// out\n        /* \"#utility.yul\":2399:2568   */\n    tag_85:\n        /* \"#utility.yul\":2483:2494   */\n      0x00\n        /* \"#utility.yul\":2517:2523   */\n      dup3\n        /* \"#utility.yul\":2512:2515   */\n      dup3\n        /* \"#utility.yul\":2505:2524   */\n      mstore\n        /* \"#utility.yul\":2557:2561   */\n      0x20\n        /* \"#utility.yul\":2552:2555   */\n      dup3\n        /* \"#utility.yul\":2548:2562   */\n      add\n        /* \"#utility.yul\":2533:2562   */\n      swap1\n      pop\n        /* \"#utility.yul\":2399:2568   */\n      swap3\n      swap2\n      pop\n      pop\n      jump\t// out\n        /* \"#utility.yul\":2574:2713   */\n    tag_86:\n        /* \"#utility.yul\":2663:2669   */\n      dup3\n        /* \"#utility.yul\":2658:2661   */\n      dup2\n        /* \"#utility.yul\":2653:2656   */\n      dup4\n        /* \"#utility.yul\":2647:2670   */\n      mcopy\n        /* \"#utility.yul\":2704:2705   */\n      0x00\n        /* \"#utility.yul\":2695:2701   */\n      dup4\n        /* \"#utility.yul\":2690:2693   */\n      dup4\n        /* \"#utility.yul\":2686:2702   */\n      add\n        /* \"#utility.yul\":2679:2706   */\n      mstore\n        /* \"#utility.yul\":2574:2713   */\n      pop\n      pop\n      pop\n      jump\t// out\n        /* \"#utility.yul\":2719:2821   */\n    tag_87:\n        /* \"#utility.yul\":2760:2766   */\n      0x00\n        /* \"#utility.yul\":2811:2813   */\n      0x1f\n        /* \"#utility.yul\":2807:2814   */\n      not\n        /* \"#utility.yul\":2802:2804   */\n      0x1f\n        /* \"#utility.yul\":2795:2800   */\n      dup4\n        /* \"#utility.yul\":2791:2805   */\n      add\n        /* \"#utility.yul\":2787:2815   */\n      and\n        /* \"#utility.yul\":2777:2815   */\n      swap1\n      pop\n        /* \"#utility.yul\":2719:2821   */\n      swap2\n      swap1\n      pop\n      jump\t// out\n        /* \"#utility.yul\":2827:3204   */\n    tag_88:\n        /* \"#utility.yul\":2915:2918   */\n      0x00\n        /* \"#utility.yul\":2943:2982   */\n      tag_159\n        /* \"#utility.yul\":2976:2981   */\n      dup3\n        /* \"#utility.yul\":2943:2982   */\n      tag_84\n      jump\t// in\n    tag_159:\n        /* \"#utility.yul\":2998:3069   */\n      tag_160\n        /* \"#utility.yul\":3062:3068   */\n      dup2\n        /* \"#utility.yul\":3057:3060   */\n      dup6\n        /* \"#utility.yul\":2998:3069   */\n      tag_85\n      jump\t// in\n    tag_160:\n        /* \"#utility.yul\":2991:3069   */\n      swap4\n      pop\n        /* \"#utility.yul\":3078:3143   */\n      tag_161\n        /* \"#utility.yul\":3136:3142   */\n      dup2\n        /* \"#utility.yul\":3131:3134   */\n      dup6\n        /* \"#utility.yul\":3124:3128   */\n      0x20\n        /* \"#utility.yul\":3117:3122   */\n      dup7\n        /* \"#utility.yul\":3113:3129   */\n      add\n        /* \"#utility.yul\":3078:3143   */\n      tag_86\n      jump\t// in\n    tag_161:\n        /* \"#utility.yul\":3168:3197   */\n      tag_162\n        /* \"#utility.yul\":3190:3196   */\n      dup2\n        /* \"#utility.yul\":3168:3197   */\n      tag_87\n      jump\t// in\n    tag_162:\n        /* \"#utility.yul\":3163:3166   */\n      dup5\n        /* \"#utility.yul\":3159:3198   */\n      add\n        /* \"#utility.yul\":3152:3198   */\n      swap2\n      pop\n        /* \"#utility.yul\":2919:3204   */\n      pop\n        /* \"#utility.yul\":2827:3204   */\n      swap3\n      swap2\n      pop\n      pop\n      jump\t// out\n        /* \"#utility.yul\":3210:3328   */\n    tag_89:\n        /* \"#utility.yul\":3297:3321   */\n      tag_164\n        /* \"#utility.yul\":3315:3320   */\n      dup2\n        /* \"#utility.yul\":3297:3321   */\n      tag_75\n      jump\t// in\n    tag_164:\n        /* \"#utility.yul\":3292:3295   */\n      dup3\n        /* \"#utility.yul\":3285:3322   */\n      mstore\n        /* \"#utility.yul\":3210:3328   */\n      pop\n      pop\n      jump\t// out\n        /* \"#utility.yul\":3334:3757   */\n    tag_25:\n        /* \"#utility.yul\":3475:3479   */\n      0x00\n        /* \"#utility.yul\":3513:3515   */\n      0x40\n        /* \"#utility.yul\":3502:3511   */\n      dup3\n        /* \"#utility.yul\":3498:3516   */\n      add\n        /* \"#utility.yul\":3490:3516   */\n      swap1\n      pop\n        /* \"#utility.yul\":3562:3571   */\n      dup2\n        /* \"#utility.yul\":3556:3560   */\n      dup2\n        /* \"#utility.yul\":3552:3572   */\n      sub\n        /* \"#utility.yul\":3548:3549   */\n      0x00\n        /* \"#utility.yul\":3537:3546   */\n      dup4\n        /* \"#utility.yul\":3533:3550   */\n      add\n        /* \"#utility.yul\":3526:3573   */\n      mstore\n        /* \"#utility.yul\":3590:3668   */\n      tag_166\n        /* \"#utility.yul\":3663:3667   */\n      dup2\n        /* \"#utility.yul\":3654:3660   */\n      dup6\n        /* \"#utility.yul\":3590:3668   */\n      tag_88\n      jump\t// in\n    tag_166:\n        /* \"#utility.yul\":3582:3668   */\n      swap1\n      pop\n        /* \"#utility.yul\":3678:3750   */\n      tag_167\n        /* \"#utility.yul\":3746:3748   */\n      0x20\n        /* \"#utility.yul\":3735:3744   */\n      dup4\n        /* \"#utility.yul\":3731:3749   */\n      add\n        /* \"#utility.yul\":3722:3728   */\n      dup5\n        /* \"#utility.yul\":3678:3750   */\n      tag_89\n      jump\t// in\n    tag_167:\n        /* \"#utility.yul\":3334:3757   */\n      swap4\n      swap3\n      pop\n      pop\n      pop\n      jump\t// out\n        /* \"#utility.yul\":3763:3880   */\n    tag_90:\n        /* \"#utility.yul\":3872:3873   */\n      0x00\n        /* \"#utility.yul\":3869:3870   */\n      0x00\n        /* \"#utility.yul\":3862:3874   */\n      revert\n        /* \"#utility.yul\":3886:4003   */\n    tag_91:\n        /* \"#utility.yul\":3995:3996   */\n      0x00\n        /* \"#utility.yul\":3992:3993   */\n      0x00\n        /* \"#utility.yul\":3985:3997   */\n      revert\n        /* \"#utility.yul\":4009:4189   */\n    tag_92:\n        /* \"#utility.yul\":4057:4134   */\n      0x4e487b7100000000000000000000000000000000000000000000000000000000\n        /* \"#utility.yul\":4054:4055   */\n      0x00\n        /* \"#utility.yul\":4047:4135   */\n      mstore\n        /* \"#utility.yul\":4154:4158   */\n      0x41\n        /* \"#utility.yul\":4151:4152   */\n      0x04\n        /* \"#utility.yul\":4144:4159   */\n      mstore\n        /* \"#utility.yul\":4178:4182   */\n      0x24\n        /* \"#utility.yul\":4175:4176   */\n      0x00\n        /* \"#utility.yul\":4168:4183   */\n      revert\n        /* \"#utility.yul\":4195:4476   */\n    tag_93:\n        /* \"#utility.yul\":4278:4305   */\n      tag_172\n        /* \"#utility.yul\":4300:4304   */\n      dup3\n        /* \"#utility.yul\":4278:4305   */\n      tag_87\n      jump\t// in\n    tag_172:\n        /* \"#utility.yul\":4270:4276   */\n      dup2\n        /* \"#utility.yul\":4266:4306   */\n      add\n        /* \"#utility.yul\":4408:4414   */\n      dup2\n        /* \"#utility.yul\":4396:4406   */\n      dup2\n        /* \"#utility.yul\":4393:4415   */\n      lt\n        /* \"#utility.yul\":4372:4390   */\n      0xffffffffffffffff\n        /* \"#utility.yul\":4360:4370   */\n      dup3\n        /* \"#utility.yul\":4357:4391   */\n      gt\n        /* \"#utility.yul\":4354:4416   */\n      or\n        /* \"#utility.yul\":4351:4439   */\n      iszero\n      tag_173\n      jumpi\n        /* \"#utility.yul\":4419:4437   */\n      tag_174\n      tag_92\n      jump\t// in\n    tag_174:\n        /* \"#utility.yul\":4351:4439   */\n    tag_173:\n        /* \"#utility.yul\":4459:4469   */\n      dup1\n        /* \"#utility.yul\":4455:4457   */\n      0x40\n        /* \"#utility.yul\":4448:4470   */\n      mstore\n        /* \"#utility.yul\":4238:4476   */\n      pop\n        /* \"#utility.yul\":4195:4476   */\n      pop\n      pop\n      jump\t// out\n        /* \"#utility.yul\":4482:4611   */\n    tag_94:\n        /* \"#utility.yul\":4516:4522   */\n      0x00\n        /* \"#utility.yul\":4543:4563   */\n      tag_176\n      tag_72\n      jump\t// in\n    tag_176:\n        /* \"#utility.yul\":4533:4563   */\n      swap1\n      pop\n        /* \"#utility.yul\":4572:4605   */\n      tag_177\n        /* \"#utility.yul\":4600:4604   */\n      dup3\n        /* \"#utility.yul\":4592:4598   */\n      dup3\n        /* \"#utility.yul\":4572:4605   */\n      tag_93\n      jump\t// in\n    tag_177:\n        /* \"#utility.yul\":4482:4611   */\n      swap2\n      swap1\n      pop\n      jump\t// out\n        /* \"#utility.yul\":4617:4925   */\n    tag_95:\n        /* \"#utility.yul\":4679:4683   */\n      0x00\n        /* \"#utility.yul\":4769:4787   */\n      0xffffffffffffffff\n        /* \"#utility.yul\":4761:4767   */\n      dup3\n        /* \"#utility.yul\":4758:4788   */\n      gt\n        /* \"#utility.yul\":4755:4811   */\n      iszero\n      tag_179\n      jumpi\n        /* \"#utility.yul\":4791:4809   */\n      tag_180\n      tag_92\n      jump\t// in\n    tag_180:\n        /* \"#utility.yul\":4755:4811   */\n    tag_179:\n        /* \"#utility.yul\":4829:4858   */\n      tag_181\n        /* \"#utility.yul\":4851:4857   */\n      dup3\n        /* \"#utility.yul\":4829:4858   */\n      tag_87\n      jump\t// in\n    tag_181:\n        /* \"#utility.yul\":4821:4858   */\n      swap1\n      pop\n        /* \"#utility.yul\":4913:4917   */\n      0x20\n        /* \"#utility.yul\":4907:4911   */\n      dup2\n        /* \"#utility.yul\":4903:4918   */\n      add\n        /* \"#utility.yul\":4895:4918   */\n      swap1\n      pop\n        /* \"#utility.yul\":4617:4925   */\n      swap2\n      swap1\n      pop\n      jump\t// out\n        /* \"#utility.yul\":4931:5079   */\n    tag_96:\n        /* \"#utility.yul\":5029:5035   */\n      dup3\n        /* \"#utility.yul\":5024:5027   */\n      dup2\n        /* \"#utility.yul\":5019:5022   */\n      dup4\n        /* \"#utility.yul\":5006:5036   */\n      calldatacopy\n        /* \"#utility.yul\":5070:5071   */\n      0x00\n        /* \"#utility.yul\":5061:5067   */\n      dup4\n        /* \"#utility.yul\":5056:5059   */\n      dup4\n        /* \"#utility.yul\":5052:5068   */\n      add\n        /* \"#utility.yul\":5045:5072   */\n      mstore\n        /* \"#utility.yul\":4931:5079   */\n      pop\n      pop\n      pop\n      jump\t// out\n        /* \"#utility.yul\":5085:5510   */\n    tag_97:\n        /* \"#utility.yul\":5163:5168   */\n      0x00\n        /* \"#utility.yul\":5188:5254   */\n      tag_184\n        /* \"#utility.yul\":5204:5253   */\n      tag_185\n        /* \"#utility.yul\":5246:5252   */\n      dup5\n        /* \"#utility.yul\":5204:5253   */\n      tag_95\n      jump\t// in\n    tag_185:\n        /* \"#utility.yul\":5188:5254   */\n      tag_94\n      jump\t// in\n    tag_184:\n        /* \"#utility.yul\":5179:5254   */\n      swap1\n      pop\n        /* \"#utility.yul\":5277:5283   */\n      dup3\n        /* \"#utility.yul\":5270:5275   */\n      dup2\n        /* \"#utility.yul\":5263:5284   */\n      mstore\n        /* \"#utility.yul\":5315:5319   */\n      0x20\n        /* \"#utility.yul\":5308:5313   */\n      dup2\n        /* \"#utility.yul\":5304:5320   */\n      add\n        /* \"#utility.yul\":5353:5356   */\n      dup5\n        /* \"#utility.yul\":5344:5350   */\n      dup5\n        /* \"#utility.yul\":5339:5342   */\n      dup5\n        /* \"#utility.yul\":5335:5351   */\n      add\n        /* \"#utility.yul\":5332:5357   */\n      gt\n        /* \"#utility.yul\":5329:5441   */\n      iszero\n      tag_186\n      jumpi\n        /* \"#utility.yul\":5360:5439   */\n      tag_187\n      tag_91\n      jump\t// in\n    tag_187:\n        /* \"#utility.yul\":5329:5441   */\n    tag_186:\n        /* \"#utility.yul\":5450:5504   */\n      tag_188\n        /* \"#utility.yul\":5497:5503   */\n      dup5\n        /* \"#utility.yul\":5492:5495   */\n      dup3\n        /* \"#utility.yul\":5487:5490   */\n      dup6\n        /* \"#utility.yul\":5450:5504   */\n      tag_96\n      jump\t// in\n    tag_188:\n        /* \"#utility.yul\":5169:5510   */\n      pop\n        /* \"#utility.yul\":5085:5510   */\n      swap4\n      swap3\n      pop\n      pop\n      pop\n      jump\t// out\n        /* \"#utility.yul\":5530:5870   */\n    tag_98:\n        /* \"#utility.yul\":5586:5591   */\n      0x00\n        /* \"#utility.yul\":5635:5638   */\n      dup3\n        /* \"#utility.yul\":5628:5632   */\n      0x1f\n        /* \"#utility.yul\":5620:5626   */\n      dup4\n        /* \"#utility.yul\":5616:5633   */\n      add\n        /* \"#utility.yul\":5612:5639   */\n      slt\n        /* \"#utility.yul\":5602:5724   */\n      tag_190\n      jumpi\n        /* \"#utility.yul\":5643:5722   */\n      tag_191\n      tag_90\n      jump\t// in\n    tag_191:\n        /* \"#utility.yul\":5602:5724   */\n    tag_190:\n        /* \"#utility.yul\":5760:5766   */\n      dup2\n        /* \"#utility.yul\":5747:5767   */\n      calldataload\n        /* \"#utility.yul\":5785:5864   */\n      tag_192\n        /* \"#utility.yul\":5860:5863   */\n      dup5\n        /* \"#utility.yul\":5852:5858   */\n      dup3\n        /* \"#utility.yul\":5845:5849   */\n      0x20\n        /* \"#utility.yul\":5837:5843   */\n      dup7\n        /* \"#utility.yul\":5833:5850   */\n      add\n        /* \"#utility.yul\":5785:5864   */\n      tag_97\n      jump\t// in\n    tag_192:\n        /* \"#utility.yul\":5776:5864   */\n      swap2\n      pop\n        /* \"#utility.yul\":5592:5870   */\n      pop\n        /* \"#utility.yul\":5530:5870   */\n      swap3\n      swap2\n      pop\n      pop\n      jump\t// out\n        /* \"#utility.yul\":5876:6385   */\n    tag_32:\n        /* \"#utility.yul\":5945:5951   */\n      0x00\n        /* \"#utility.yul\":5994:5996   */\n      0x20\n        /* \"#utility.yul\":5982:5991   */\n      dup3\n        /* \"#utility.yul\":5973:5980   */\n      dup5\n        /* \"#utility.yul\":5969:5992   */\n      sub\n        /* \"#utility.yul\":5965:5997   */\n      slt\n        /* \"#utility.yul\":5962:6081   */\n      iszero\n      tag_194\n      jumpi\n        /* \"#utility.yul\":6000:6079   */\n      tag_195\n      tag_73\n      jump\t// in\n    tag_195:\n        /* \"#utility.yul\":5962:6081   */\n    tag_194:\n        /* \"#utility.yul\":6148:6149   */\n      0x00\n        /* \"#utility.yul\":6137:6146   */\n      dup3\n        /* \"#utility.yul\":6133:6150   */\n      add\n        /* \"#utility.yul\":6120:6151   */\n      calldataload\n        /* \"#utility.yul\":6178:6196   */\n      0xffffffffffffffff\n        /* \"#utility.yul\":6170:6176   */\n      dup2\n        /* \"#utility.yul\":6167:6197   */\n      gt\n        /* \"#utility.yul\":6164:6281   */\n      iszero\n      tag_196\n      jumpi\n        /* \"#utility.yul\":6200:6279   */\n      tag_197\n      tag_74\n      jump\t// in\n    tag_197:\n        /* \"#utility.yul\":6164:6281   */\n    tag_196:\n        /* \"#utility.yul\":6305:6368   */\n      tag_198\n        /* \"#utility.yul\":6360:6367   */\n      dup5\n        /* \"#utility.yul\":6351:6357   */\n      dup3\n        /* \"#utility.yul\":6340:6349   */\n      dup6\n        /* \"#utility.yul\":6336:6358   */\n      add\n        /* \"#utility.yul\":6305:6368   */\n      tag_98\n      jump\t// in\n    tag_198:\n        /* \"#utility.yul\":6295:6368   */\n      swap2\n      pop\n        /* \"#utility.yul\":6091:6378   */\n      pop\n        /* \"#utility.yul\":5876:6385   */\n      swap3\n      swap2\n      pop\n      pop\n      jump\t// out\n        /* \"#utility.yul\":6391:6613   */\n    tag_37:\n        /* \"#utility.yul\":6484:6488   */\n      0x00\n        /* \"#utility.yul\":6522:6524   */\n      0x20\n        /* \"#utility.yul\":6511:6520   */\n      dup3\n        /* \"#utility.yul\":6507:6525   */\n      add\n        /* \"#utility.yul\":6499:6525   */\n      swap1\n      pop\n        /* \"#utility.yul\":6535:6606   */\n      tag_200\n        /* \"#utility.yul\":6603:6604   */\n      0x00\n        /* \"#utility.yul\":6592:6601   */\n      dup4\n        /* \"#utility.yul\":6588:6605   */\n      add\n        /* \"#utility.yul\":6579:6585   */\n      dup5\n        /* \"#utility.yul\":6535:6606   */\n      tag_89\n      jump\t// in\n    tag_200:\n        /* \"#utility.yul\":6391:6613   */\n      swap3\n      swap2\n      pop\n      pop\n      jump\t// out\n        /* \"#utility.yul\":6619:6737   */\n    tag_99:\n        /* \"#utility.yul\":6706:6730   */\n      tag_202\n        /* \"#utility.yul\":6724:6729   */\n      dup2\n        /* \"#utility.yul\":6706:6730   */\n      tag_79\n      jump\t// in\n    tag_202:\n        /* \"#utility.yul\":6701:6704   */\n      dup3\n        /* \"#utility.yul\":6694:6731   */\n      mstore\n        /* \"#utility.yul\":6619:6737   */\n      pop\n      pop\n      jump\t// out\n        /* \"#utility.yul\":6743:6965   */\n    tag_41:\n        /* \"#utility.yul\":6836:6840   */\n      0x00\n        /* \"#utility.yul\":6874:6876   */\n      0x20\n        /* \"#utility.yul\":6863:6872   */\n      dup3\n        /* \"#utility.yul\":6859:6877   */\n      add\n        /* \"#utility.yul\":6851:6877   */\n      swap1\n      pop\n        /* \"#utility.yul\":6887:6958   */\n      tag_204\n        /* \"#utility.yul\":6955:6956   */\n      0x00\n        /* \"#utility.yul\":6944:6953   */\n      dup4\n        /* \"#utility.yul\":6940:6957   */\n      add\n        /* \"#utility.yul\":6931:6937   */\n      dup5\n        /* \"#utility.yul\":6887:6958   */\n      tag_99\n      jump\t// in\n    tag_204:\n        /* \"#utility.yul\":6743:6965   */\n      swap3\n      swap2\n      pop\n      pop\n      jump\t// out\n        /* \"#utility.yul\":6971:7135   */\n    tag_100:\n        /* \"#utility.yul\":7111:7127   */\n      0x6b616d75207564616820766f7465000000000000000000000000000000000000\n        /* \"#utility.yul\":7107:7108   */\n      0x00\n        /* \"#utility.yul\":7099:7105   */\n      dup3\n        /* \"#utility.yul\":7095:7109   */\n      add\n        /* \"#utility.yul\":7088:7128   */\n      mstore\n        /* \"#utility.yul\":6971:7135   */\n      pop\n      jump\t// out\n        /* \"#utility.yul\":7141:7507   */\n    tag_101:\n        /* \"#utility.yul\":7283:7286   */\n      0x00\n        /* \"#utility.yul\":7304:7371   */\n      tag_207\n        /* \"#utility.yul\":7368:7370   */\n      0x0e\n        /* \"#utility.yul\":7363:7366   */\n      dup4\n        /* \"#utility.yul\":7304:7371   */\n      tag_85\n      jump\t// in\n    tag_207:\n        /* \"#utility.yul\":7297:7371   */\n      swap2\n      pop\n        /* \"#utility.yul\":7380:7473   */\n      tag_208\n        /* \"#utility.yul\":7469:7472   */\n      dup3\n        /* \"#utility.yul\":7380:7473   */\n      tag_100\n      jump\t// in\n    tag_208:\n        /* \"#utility.yul\":7498:7500   */\n      0x20\n        /* \"#utility.yul\":7493:7496   */\n      dup3\n        /* \"#utility.yul\":7489:7501   */\n      add\n        /* \"#utility.yul\":7482:7501   */\n      swap1\n      pop\n        /* \"#utility.yul\":7141:7507   */\n      swap2\n      swap1\n      pop\n      jump\t// out\n        /* \"#utility.yul\":7513:7932   */\n    tag_45:\n        /* \"#utility.yul\":7679:7683   */\n      0x00\n        /* \"#utility.yul\":7717:7719   */\n      0x20\n        /* \"#utility.yul\":7706:7715   */\n      dup3\n        /* \"#utility.yul\":7702:7720   */\n      add\n        /* \"#utility.yul\":7694:7720   */\n      swap1\n      pop\n        /* \"#utility.yul\":7766:7775   */\n      dup2\n        /* \"#utility.yul\":7760:7764   */\n      dup2\n        /* \"#utility.yul\":7756:7776   */\n      sub\n        /* \"#utility.yul\":7752:7753   */\n      0x00\n        /* \"#utility.yul\":7741:7750   */\n      dup4\n        /* \"#utility.yul\":7737:7754   */\n      add\n        /* \"#utility.yul\":7730:7777   */\n      mstore\n        /* \"#utility.yul\":7794:7925   */\n      tag_210\n        /* \"#utility.yul\":7920:7924   */\n      dup2\n        /* \"#utility.yul\":7794:7925   */\n      tag_101\n      jump\t// in\n    tag_210:\n        /* \"#utility.yul\":7786:7925   */\n      swap1\n      pop\n        /* \"#utility.yul\":7513:7932   */\n      swap2\n      swap1\n      pop\n      jump\t// out\n        /* \"#utility.yul\":7938:8096   */\n    tag_102:\n        /* \"#utility.yul\":8078:8088   */\n      0x67612076616c6964000000000000000000000000000000000000000000000000\n        /* \"#utility.yul\":8074:8075   */\n      0x00\n        /* \"#utility.yul\":8066:8072   */\n      dup3\n        /* \"#utility.yul\":8062:8076   */\n      add\n        /* \"#utility.yul\":8055:8089   */\n      mstore\n        /* \"#utility.yul\":7938:8096   */\n      pop\n      jump\t// out\n        /* \"#utility.yul\":8102:8467   */\n    tag_103:\n        /* \"#utility.yul\":8244:8247   */\n      0x00\n        /* \"#utility.yul\":8265:8331   */\n      tag_213\n        /* \"#utility.yul\":8329:8330   */\n      0x08\n        /* \"#utility.yul\":8324:8327   */\n      dup4\n        /* \"#utility.yul\":8265:8331   */\n      tag_85\n      jump\t// in\n    tag_213:\n        /* \"#utility.yul\":8258:8331   */\n      swap2\n      pop\n        /* \"#utility.yul\":8340:8433   */\n      tag_214\n        /* \"#utility.yul\":8429:8432   */\n      dup3\n        /* \"#utility.yul\":8340:8433   */\n      tag_102\n      jump\t// in\n    tag_214:\n        /* \"#utility.yul\":8458:8460   */\n      0x20\n        /* \"#utility.yul\":8453:8456   */\n      dup3\n        /* \"#utility.yul\":8449:8461   */\n      add\n        /* \"#utility.yul\":8442:8461   */\n      swap1\n      pop\n        /* \"#utility.yul\":8102:8467   */\n      swap2\n      swap1\n      pop\n      jump\t// out\n        /* \"#utility.yul\":8473:8892   */\n    tag_48:\n        /* \"#utility.yul\":8639:8643   */\n      0x00\n        /* \"#utility.yul\":8677:8679   */\n      0x20\n        /* \"#utility.yul\":8666:8675   */\n      dup3\n        /* \"#utility.yul\":8662:8680   */\n      add\n        /* \"#utility.yul\":8654:8680   */\n      swap1\n      pop\n        /* \"#utility.yul\":8726:8735   */\n      dup2\n        /* \"#utility.yul\":8720:8724   */\n      dup2\n        /* \"#utility.yul\":8716:8736   */\n      sub\n        /* \"#utility.yul\":8712:8713   */\n      0x00\n        /* \"#utility.yul\":8701:8710   */\n      dup4\n        /* \"#utility.yul\":8697:8714   */\n      add\n        /* \"#utility.yul\":8690:8737   */\n      mstore\n        /* \"#utility.yul\":8754:8885   */\n      tag_216\n        /* \"#utility.yul\":8880:8884   */\n      dup2\n        /* \"#utility.yul\":8754:8885   */\n      tag_103\n      jump\t// in\n    tag_216:\n        /* \"#utility.yul\":8746:8885   */\n      swap1\n      pop\n        /* \"#utility.yul\":8473:8892   */\n      swap2\n      swap1\n      pop\n      jump\t// out\n        /* \"#utility.yul\":8898:9078   */\n    tag_104:\n        /* \"#utility.yul\":8946:9023   */\n      0x4e487b7100000000000000000000000000000000000000000000000000000000\n        /* \"#utility.yul\":8943:8944   */\n      0x00\n        /* \"#utility.yul\":8936:9024   */\n      mstore\n        /* \"#utility.yul\":9043:9047   */\n      0x11\n        /* \"#utility.yul\":9040:9041   */\n      0x04\n        /* \"#utility.yul\":9033:9048   */\n      mstore\n        /* \"#utility.yul\":9067:9071   */\n      0x24\n        /* \"#utility.yul\":9064:9065   */\n      0x00\n        /* \"#utility.yul\":9057:9072   */\n      revert\n        /* \"#utility.yul\":9084:9317   */\n    tag_50:\n        /* \"#utility.yul\":9123:9126   */\n      0x00\n        /* \"#utility.yul\":9146:9170   */\n      tag_219\n        /* \"#utility.yul\":9164:9169   */\n      dup3\n        /* \"#utility.yul\":9146:9170   */\n      tag_75\n      jump\t// in\n    tag_219:\n        /* \"#utility.yul\":9137:9170   */\n      swap2\n      pop\n        /* \"#utility.yul\":9192:9258   */\n      0xffffffffffffffffffffffffffffffffffffffffffffffffffffffffffffffff\n        /* \"#utility.yul\":9185:9190   */\n      dup3\n        /* \"#utility.yul\":9182:9259   */\n      sub\n        /* \"#utility.yul\":9179:9282   */\n      tag_220\n      jumpi\n        /* \"#utility.yul\":9262:9280   */\n      tag_221\n      tag_104\n      jump\t// in\n    tag_221:\n        /* \"#utility.yul\":9179:9282   */\n    tag_220:\n        /* \"#utility.yul\":9309:9310   */\n      0x01\n        /* \"#utility.yul\":9302:9307   */\n      dup3\n        /* \"#utility.yul\":9298:9311   */\n      add\n        /* \"#utility.yul\":9291:9311   */\n      swap1\n      pop\n        /* \"#utility.yul\":9084:9317   */\n      swap2\n      swap1\n      pop\n      jump\t// out\n        /* \"#utility.yul\":9323:9503   */\n    tag_105:\n        /* \"#utility.yul\":9371:9448   */\n      0x4e487b7100000000000000000000000000000000000000000000000000000000\n        /* \"#utility.yul\":9368:9369   */\n      0x00\n        /* \"#utility.yul\":9361:9449   */\n      mstore\n        /* \"#utility.yul\":9468:9472   */\n      0x22\n        /* \"#utility.yul\":9465:9466   */\n      0x04\n        /* \"#utility.yul\":9458:9473   */\n      mstore\n        /* \"#utility.yul\":9492:9496   */\n      0x24\n        /* \"#utility.yul\":9489:9490   */\n      0x00\n        /* \"#utility.yul\":9482:9497   */\n      revert\n        /* \"#utility.yul\":9509:9829   */\n    tag_52:\n        /* \"#utility.yul\":9553:9559   */\n      0x00\n        /* \"#utility.yul\":9590:9591   */\n      0x02\n        /* \"#utility.yul\":9584:9588   */\n      dup3\n        /* \"#utility.yul\":9580:9592   */\n      div\n        /* \"#utility.yul\":9570:9592   */\n      swap1\n      pop\n        /* \"#utility.yul\":9637:9638   */\n      0x01\n        /* \"#utility.yul\":9631:9635   */\n      dup3\n        /* \"#utility.yul\":9627:9639   */\n      and\n        /* \"#utility.yul\":9658:9676   */\n      dup1\n        /* \"#utility.yul\":9648:9729   */\n      tag_224\n      jumpi\n        /* \"#utility.yul\":9714:9718   */\n      0x7f\n        /* \"#utility.yul\":9706:9712   */\n      dup3\n        /* \"#utility.yul\":9702:9719   */\n      and\n        /* \"#utility.yul\":9692:9719   */\n      swap2\n      pop\n        /* \"#utility.yul\":9648:9729   */\n    tag_224:\n        /* \"#utility.yul\":9776:9778   */\n      0x20\n        /* \"#utility.yul\":9768:9774   */\n      dup3\n        /* \"#utility.yul\":9765:9779   */\n      lt\n        /* \"#utility.yul\":9745:9763   */\n      dup2\n        /* \"#utility.yul\":9742:9780   */\n      sub\n        /* \"#utility.yul\":9739:9823   */\n      tag_225\n      jumpi\n        /* \"#utility.yul\":9795:9813   */\n      tag_226\n      tag_105\n      jump\t// in\n    tag_226:\n        /* \"#utility.yul\":9739:9823   */\n    tag_225:\n        /* \"#utility.yul\":9560:9829   */\n      pop\n        /* \"#utility.yul\":9509:9829   */\n      swap2\n      swap1\n      pop\n      jump\t// out\n        /* \"#utility.yul\":9835:10057   */\n    tag_106:\n        /* \"#utility.yul\":9975:10009   */\n      0x48616e79612061646d696e2079672062697361206e616d626168206b616e6469\n        /* \"#utility.yul\":9971:9972   */\n      0x00\n        /* \"#utility.yul\":9963:9969   */\n      dup3\n        /* \"#utility.yul\":9959:9973   */\n      add\n        /* \"#utility.yul\":9952:10010   */\n      mstore\n        /* \"#utility.yul\":10044:10049   */\n      0x6461740000000000000000000000000000000000000000000000000000000000\n        /* \"#utility.yul\":10039:10041   */\n      0x20\n        /* \"#utility.yul\":10031:10037   */\n      dup3\n        /* \"#utility.yul\":10027:10042   */\n      add\n        /* \"#utility.yul\":10020:10050   */\n      mstore\n        /* \"#utility.yul\":9835:10057   */\n      pop\n      jump\t// out\n        /* \"#utility.yul\":10063:10429   */\n    tag_107:\n        /* \"#utility.yul\":10205:10208   */\n      0x00\n        /* \"#utility.yul\":10226:10293   */\n      tag_229\n        /* \"#utility.yul\":10290:10292   */\n      0x23\n        /* \"#utility.yul\":10285:10288   */\n      dup4\n        /* \"#utility.yul\":10226:10293   */\n      tag_85\n      jump\t// in\n    tag_229:\n        /* \"#utility.yul\":10219:10293   */\n      swap2\n      pop\n        /* \"#utility.yul\":10302:10395   */\n      tag_230\n        /* \"#utility.yul\":10391:10394   */\n      dup3\n        /* \"#utility.yul\":10302:10395   */\n      tag_106\n      jump\t// in\n    tag_230:\n        /* \"#utility.yul\":10420:10422   */\n      0x40\n        /* \"#utility.yul\":10415:10418   */\n      dup3\n        /* \"#utility.yul\":10411:10423   */\n      add\n        /* \"#utility.yul\":10404:10423   */\n      swap1\n      pop\n        /* \"#utility.yul\":10063:10429   */\n      swap2\n      swap1\n      pop\n      jump\t// out\n        /* \"#utility.yul\":10435:10854   */\n    tag_68:\n        /* \"#utility.yul\":10601:10605   */\n      0x00\n        /* \"#utility.yul\":10639:10641   */\n      0x20\n        /* \"#utility.yul\":10628:10637   */\n      dup3\n        /* \"#utility.yul\":10624:10642   */\n      add\n        /* \"#utility.yul\":10616:10642   */\n      swap1\n      pop\n        /* \"#utility.yul\":10688:10697   */\n      dup2\n        /* \"#utility.yul\":10682:10686   */\n      dup2\n        /* \"#utility.yul\":10678:10698   */\n      sub\n        /* \"#utility.yul\":10674:10675   */\n      0x00\n        /* \"#utility.yul\":10663:10672   */\n      dup4\n        /* \"#utility.yul\":10659:10676   */\n      add\n        /* \"#utility.yul\":10652:10699   */\n      mstore\n        /* \"#utility.yul\":10716:10847   */\n      tag_232\n        /* \"#utility.yul\":10842:10846   */\n      dup2\n        /* \"#utility.yul\":10716:10847   */\n      tag_107\n      jump\t// in\n    tag_232:\n        /* \"#utility.yul\":10708:10847   */\n      swap1\n      pop\n        /* \"#utility.yul\":10435:10854   */\n      swap2\n      swap1\n      pop\n      jump\t// out\n        /* \"#utility.yul\":10860:11001   */\n    tag_108:\n        /* \"#utility.yul\":10909:10913   */\n      0x00\n        /* \"#utility.yul\":10932:10935   */\n      dup2\n        /* \"#utility.yul\":10924:10935   */\n      swap1\n      pop\n        /* \"#utility.yul\":10955:10958   */\n      dup2\n        /* \"#utility.yul\":10952:10953   */\n      0x00\n        /* \"#utility.yul\":10945:10959   */\n      mstore\n        /* \"#utility.yul\":10989:10993   */\n      0x20\n        /* \"#utility.yul\":10986:10987   */\n      0x00\n        /* \"#utility.yul\":10976:10994   */\n      keccak256\n        /* \"#utility.yul\":10968:10994   */\n      swap1\n      pop\n        /* \"#utility.yul\":10860:11001   */\n      swap2\n      swap1\n      pop\n      jump\t// out\n        /* \"#utility.yul\":11007:11100   */\n    tag_109:\n        /* \"#utility.yul\":11044:11050   */\n      0x00\n        /* \"#utility.yul\":11091:11093   */\n      0x20\n        /* \"#utility.yul\":11086:11088   */\n      0x1f\n        /* \"#utility.yul\":11079:11084   */\n      dup4\n        /* \"#utility.yul\":11075:11089   */\n      add\n        /* \"#utility.yul\":11071:11094   */\n      div\n        /* \"#utility.yul\":11061:11094   */\n      swap1\n      pop\n        /* \"#utility.yul\":11007:11100   */\n      swap2\n      swap1\n      pop\n      jump\t// out\n        /* \"#utility.yul\":11106:11213   */\n    tag_110:\n        /* \"#utility.yul\":11150:11158   */\n      0x00\n        /* \"#utility.yul\":11200:11205   */\n      dup3\n        /* \"#utility.yul\":11194:11198   */\n      dup3\n        /* \"#utility.yul\":11190:11206   */\n      shl\n        /* \"#utility.yul\":11169:11206   */\n      swap1\n      pop\n        /* \"#utility.yul\":11106:11213   */\n      swap3\n      swap2\n      pop\n      pop\n      jump\t// out\n        /* \"#utility.yul\":11219:11612   */\n    tag_111:\n        /* \"#utility.yul\":11288:11294   */\n      0x00\n        /* \"#utility.yul\":11338:11339   */\n      0x08\n        /* \"#utility.yul\":11326:11336   */\n      dup4\n        /* \"#utility.yul\":11322:11340   */\n      mul\n        /* \"#utility.yul\":11361:11458   */\n      tag_237\n        /* \"#utility.yul\":11391:11457   */\n      0xffffffffffffffffffffffffffffffffffffffffffffffffffffffffffffffff\n        /* \"#utility.yul\":11380:11389   */\n      dup3\n        /* \"#utility.yul\":11361:11458   */\n      tag_110\n      jump\t// in\n    tag_237:\n        /* \"#utility.yul\":11479:11518   */\n      tag_238\n        /* \"#utility.yul\":11509:11517   */\n      dup7\n        /* \"#utility.yul\":11498:11507   */\n      dup4\n        /* \"#utility.yul\":11479:11518   */\n      tag_110\n      jump\t// in\n    tag_238:\n        /* \"#utility.yul\":11467:11518   */\n      swap6\n      pop\n        /* \"#utility.yul\":11551:11555   */\n      dup1\n        /* \"#utility.yul\":11547:11556   */\n      not\n        /* \"#utility.yul\":11540:11545   */\n      dup5\n        /* \"#utility.yul\":11536:11557   */\n      and\n        /* \"#utility.yul\":11527:11557   */\n      swap4\n      pop\n        /* \"#utility.yul\":11600:11604   */\n      dup1\n        /* \"#utility.yul\":11590:11598   */\n      dup7\n        /* \"#utility.yul\":11586:11605   */\n      and\n        /* \"#utility.yul\":11579:11584   */\n      dup5\n        /* \"#utility.yul\":11576:11606   */\n      or\n        /* \"#utility.yul\":11566:11606   */\n      swap3\n      pop\n        /* \"#utility.yul\":11295:11612   */\n      pop\n      pop\n        /* \"#utility.yul\":11219:11612   */\n      swap4\n      swap3\n      pop\n      pop\n      pop\n      jump\t// out\n        /* \"#utility.yul\":11618:11678   */\n    tag_112:\n        /* \"#utility.yul\":11646:11649   */\n      0x00\n        /* \"#utility.yul\":11667:11672   */\n      dup2\n        /* \"#utility.yul\":11660:11672   */\n      swap1\n      pop\n        /* \"#utility.yul\":11618:11678   */\n      swap2\n      swap1\n      pop\n      jump\t// out\n        /* \"#utility.yul\":11684:11826   */\n    tag_113:\n        /* \"#utility.yul\":11734:11743   */\n      0x00\n        /* \"#utility.yul\":11767:11820   */\n      tag_241\n        /* \"#utility.yul\":11785:11819   */\n      tag_242\n        /* \"#utility.yul\":11794:11818   */\n      tag_243\n        /* \"#utility.yul\":11812:11817   */\n      dup5\n        /* \"#utility.yul\":11794:11818   */\n      tag_75\n      jump\t// in\n    tag_243:\n        /* \"#utility.yul\":11785:11819   */\n      tag_112\n      jump\t// in\n    tag_242:\n        /* \"#utility.yul\":11767:11820   */\n      tag_75\n      jump\t// in\n    tag_241:\n        /* \"#utility.yul\":11754:11820   */\n      swap1\n      pop\n        /* \"#utility.yul\":11684:11826   */\n      swap2\n      swap1\n      pop\n      jump\t// out\n        /* \"#utility.yul\":11832:11907   */\n    tag_114:\n        /* \"#utility.yul\":11875:11878   */\n      0x00\n        /* \"#utility.yul\":11896:11901   */\n      dup2\n        /* \"#utility.yul\":11889:11901   */\n      swap1\n      pop\n        /* \"#utility.yul\":11832:11907   */\n      swap2\n      swap1\n      pop\n      jump\t// out\n        /* \"#utility.yul\":11913:12182   */\n    tag_115:\n        /* \"#utility.yul\":12023:12062   */\n      tag_246\n        /* \"#utility.yul\":12054:12061   */\n      dup4\n        /* \"#utility.yul\":12023:12062   */\n      tag_113\n      jump\t// in\n    tag_246:\n        /* \"#utility.yul\":12084:12175   */\n      tag_247\n        /* \"#utility.yul\":12133:12174   */\n      tag_248\n        /* \"#utility.yul\":12157:12173   */\n      dup3\n        /* \"#utility.yul\":12133:12174   */\n      tag_114\n      jump\t// in\n    tag_248:\n        /* \"#utility.yul\":12125:12131   */\n      dup5\n        /* \"#utility.yul\":12118:12122   */\n      dup5\n        /* \"#utility.yul\":12112:12123   */\n      sload\n        /* \"#utility.yul\":12084:12175   */\n      tag_111\n      jump\t// in\n    tag_247:\n        /* \"#utility.yul\":12078:12082   */\n      dup3\n        /* \"#utility.yul\":12071:12176   */\n      sstore\n        /* \"#utility.yul\":11989:12182   */\n      pop\n        /* \"#utility.yul\":11913:12182   */\n      pop\n      pop\n      pop\n      jump\t// out\n        /* \"#utility.yul\":12188:12261   */\n    tag_116:\n        /* \"#utility.yul\":12233:12236   */\n      0x00\n        /* \"#utility.yul\":12254:12255   */\n      0x00\n        /* \"#utility.yul\":12247:12255   */\n      swap1\n      pop\n        /* \"#utility.yul\":12188:12261   */\n      swap1\n      jump\t// out\n        /* \"#utility.yul\":12267:12456   */\n    tag_117:\n        /* \"#utility.yul\":12344:12376   */\n      tag_251\n      tag_116\n      jump\t// in\n    tag_251:\n        /* \"#utility.yul\":12385:12450   */\n      tag_252\n        /* \"#utility.yul\":12443:12449   */\n      dup2\n        /* \"#utility.yul\":12435:12441   */\n      dup5\n        /* \"#utility.yul\":12429:12433   */\n      dup5\n        /* \"#utility.yul\":12385:12450   */\n      tag_115\n      jump\t// in\n    tag_252:\n        /* \"#utility.yul\":12320:12456   */\n      pop\n        /* \"#utility.yul\":12267:12456   */\n      pop\n      pop\n      jump\t// out\n        /* \"#utility.yul\":12462:12648   */\n    tag_118:\n        /* \"#utility.yul\":12522:12642   */\n    tag_254:\n        /* \"#utility.yul\":12539:12542   */\n      dup2\n        /* \"#utility.yul\":12532:12537   */\n      dup2\n        /* \"#utility.yul\":12529:12543   */\n      lt\n        /* \"#utility.yul\":12522:12642   */\n      iszero\n      tag_256\n      jumpi\n        /* \"#utility.yul\":12593:12632   */\n      tag_257\n        /* \"#utility.yul\":12630:12631   */\n      0x00\n        /* \"#utility.yul\":12623:12628   */\n      dup3\n        /* \"#utility.yul\":12593:12632   */\n      tag_117\n      jump\t// in\n    tag_257:\n        /* \"#utility.yul\":12566:12567   */\n      0x01\n        /* \"#utility.yul\":12559:12564   */\n      dup2\n        /* \"#utility.yul\":12555:12568   */\n      add\n        /* \"#utility.yul\":12546:12568   */\n      swap1\n      pop\n        /* \"#utility.yul\":12522:12642   */\n      jump(tag_254)\n    tag_256:\n        /* \"#utility.yul\":12462:12648   */\n      pop\n      pop\n      jump\t// out\n        /* \"#utility.yul\":12654:13197   */\n    tag_119:\n        /* \"#utility.yul\":12755:12757   */\n      0x1f\n        /* \"#utility.yul\":12750:12753   */\n      dup3\n        /* \"#utility.yul\":12747:12758   */\n      gt\n        /* \"#utility.yul\":12744:13190   */\n      iszero\n      tag_259\n      jumpi\n        /* \"#utility.yul\":12789:12827   */\n      tag_260\n        /* \"#utility.yul\":12821:12826   */\n      dup2\n        /* \"#utility.yul\":12789:12827   */\n      tag_108\n      jump\t// in\n    tag_260:\n        /* \"#utility.yul\":12873:12902   */\n      tag_261\n        /* \"#utility.yul\":12891:12901   */\n      dup5\n        /* \"#utility.yul\":12873:12902   */\n      tag_109\n      jump\t// in\n    tag_261:\n        /* \"#utility.yul\":12863:12871   */\n      dup2\n        /* \"#utility.yul\":12859:12903   */\n      add\n        /* \"#utility.yul\":13056:13058   */\n      0x20\n        /* \"#utility.yul\":13044:13054   */\n      dup6\n        /* \"#utility.yul\":13041:13059   */\n      lt\n        /* \"#utility.yul\":13038:13087   */\n      iszero\n      tag_262\n      jumpi\n        /* \"#utility.yul\":13077:13085   */\n      dup2\n        /* \"#utility.yul\":13062:13085   */\n      swap1\n      pop\n        /* \"#utility.yul\":13038:13087   */\n    tag_262:\n        /* \"#utility.yul\":13100:13180   */\n      tag_263\n        /* \"#utility.yul\":13156:13178   */\n      tag_264\n        /* \"#utility.yul\":13174:13177   */\n      dup6\n        /* \"#utility.yul\":13156:13178   */\n      tag_109\n      jump\t// in\n    tag_264:\n        /* \"#utility.yul\":13146:13154   */\n      dup4\n        /* \"#utility.yul\":13142:13179   */\n      add\n        /* \"#utility.yul\":13129:13140   */\n      dup3\n        /* \"#utility.yul\":13100:13180   */\n      tag_118\n      jump\t// in\n    tag_263:\n        /* \"#utility.yul\":12759:13190   */\n      pop\n      pop\n        /* \"#utility.yul\":12744:13190   */\n    tag_259:\n        /* \"#utility.yul\":12654:13197   */\n      pop\n      pop\n      pop\n      jump\t// out\n        /* \"#utility.yul\":13203:13320   */\n    tag_120:\n        /* \"#utility.yul\":13257:13265   */\n      0x00\n        /* \"#utility.yul\":13307:13312   */\n      dup3\n        /* \"#utility.yul\":13301:13305   */\n      dup3\n        /* \"#utility.yul\":13297:13313   */\n      shr\n        /* \"#utility.yul\":13276:13313   */\n      swap1\n      pop\n        /* \"#utility.yul\":13203:13320   */\n      swap3\n      swap2\n      pop\n      pop\n      jump\t// out\n        /* \"#utility.yul\":13326:13495   */\n    tag_121:\n        /* \"#utility.yul\":13370:13376   */\n      0x00\n        /* \"#utility.yul\":13403:13454   */\n      tag_267\n        /* \"#utility.yul\":13451:13452   */\n      0x00\n        /* \"#utility.yul\":13447:13453   */\n      not\n        /* \"#utility.yul\":13439:13444   */\n      dup5\n        /* \"#utility.yul\":13436:13437   */\n      0x08\n        /* \"#utility.yul\":13432:13445   */\n      mul\n        /* \"#utility.yul\":13403:13454   */\n      tag_120\n      jump\t// in\n    tag_267:\n        /* \"#utility.yul\":13399:13455   */\n      not\n        /* \"#utility.yul\":13484:13488   */\n      dup1\n        /* \"#utility.yul\":13478:13482   */\n      dup4\n        /* \"#utility.yul\":13474:13489   */\n      and\n        /* \"#utility.yul\":13464:13489   */\n      swap2\n      pop\n        /* \"#utility.yul\":13377:13495   */\n      pop\n        /* \"#utility.yul\":13326:13495   */\n      swap3\n      swap2\n      pop\n      pop\n      jump\t// out\n        /* \"#utility.yul\":13500:13795   */\n    tag_122:\n        /* \"#utility.yul\":13576:13580   */\n      0x00\n        /* \"#utility.yul\":13722:13751   */\n      tag_269\n        /* \"#utility.yul\":13747:13750   */\n      dup4\n        /* \"#utility.yul\":13741:13745   */\n      dup4\n        /* \"#utility.yul\":13722:13751   */\n      tag_121\n      jump\t// in\n    tag_269:\n        /* \"#utility.yul\":13714:13751   */\n      swap2\n      pop\n        /* \"#utility.yul\":13784:13787   */\n      dup3\n        /* \"#utility.yul\":13781:13782   */\n      0x02\n        /* \"#utility.yul\":13777:13788   */\n      mul\n        /* \"#utility.yul\":13771:13775   */\n      dup3\n        /* \"#utility.yul\":13768:13789   */\n      or\n        /* \"#utility.yul\":13760:13789   */\n      swap1\n      pop\n        /* \"#utility.yul\":13500:13795   */\n      swap3\n      swap2\n      pop\n      pop\n      jump\t// out\n        /* \"#utility.yul\":13800:15195   */\n    tag_70:\n        /* \"#utility.yul\":13917:13954   */\n      tag_271\n        /* \"#utility.yul\":13950:13953   */\n      dup3\n        /* \"#utility.yul\":13917:13954   */\n      tag_84\n      jump\t// in\n    tag_271:\n        /* \"#utility.yul\":14019:14037   */\n      0xffffffffffffffff\n        /* \"#utility.yul\":14011:14017   */\n      dup2\n        /* \"#utility.yul\":14008:14038   */\n      gt\n        /* \"#utility.yul\":14005:14061   */\n      iszero\n      tag_272\n      jumpi\n        /* \"#utility.yul\":14041:14059   */\n      tag_273\n      tag_92\n      jump\t// in\n    tag_273:\n        /* \"#utility.yul\":14005:14061   */\n    tag_272:\n        /* \"#utility.yul\":14085:14123   */\n      tag_274\n        /* \"#utility.yul\":14117:14121   */\n      dup3\n        /* \"#utility.yul\":14111:14122   */\n      sload\n        /* \"#utility.yul\":14085:14123   */\n      tag_52\n      jump\t// in\n    tag_274:\n        /* \"#utility.yul\":14170:14237   */\n      tag_275\n        /* \"#utility.yul\":14230:14236   */\n      dup3\n        /* \"#utility.yul\":14222:14228   */\n      dup3\n        /* \"#utility.yul\":14216:14220   */\n      dup6\n        /* \"#utility.yul\":14170:14237   */\n      tag_119\n      jump\t// in\n    tag_275:\n        /* \"#utility.yul\":14264:14265   */\n      0x00\n        /* \"#utility.yul\":14288:14292   */\n      0x20\n        /* \"#utility.yul\":14275:14292   */\n      swap1\n      pop\n        /* \"#utility.yul\":14320:14322   */\n      0x1f\n        /* \"#utility.yul\":14312:14318   */\n      dup4\n        /* \"#utility.yul\":14309:14323   */\n      gt\n        /* \"#utility.yul\":14337:14338   */\n      0x01\n        /* \"#utility.yul\":14332:14950   */\n      dup2\n      eq\n      tag_277\n      jumpi\n        /* \"#utility.yul\":14994:14995   */\n      0x00\n        /* \"#utility.yul\":15011:15017   */\n      dup5\n        /* \"#utility.yul\":15008:15085   */\n      iszero\n      tag_278\n      jumpi\n        /* \"#utility.yul\":15060:15069   */\n      dup3\n        /* \"#utility.yul\":15055:15058   */\n      dup8\n        /* \"#utility.yul\":15051:15070   */\n      add\n        /* \"#utility.yul\":15045:15071   */\n      mload\n        /* \"#utility.yul\":15036:15071   */\n      swap1\n      pop\n        /* \"#utility.yul\":15008:15085   */\n    tag_278:\n        /* \"#utility.yul\":15111:15178   */\n      tag_279\n        /* \"#utility.yul\":15171:15177   */\n      dup6\n        /* \"#utility.yul\":15164:15169   */\n      dup3\n        /* \"#utility.yul\":15111:15178   */\n      tag_122\n      jump\t// in\n    tag_279:\n        /* \"#utility.yul\":15105:15109   */\n      dup7\n        /* \"#utility.yul\":15098:15179   */\n      sstore\n        /* \"#utility.yul\":14967:15189   */\n      pop\n        /* \"#utility.yul\":14302:15189   */\n      jump(tag_276)\n        /* \"#utility.yul\":14332:14950   */\n    tag_277:\n        /* \"#utility.yul\":14384:14388   */\n      0x1f\n        /* \"#utility.yul\":14380:14389   */\n      not\n        /* \"#utility.yul\":14372:14378   */\n      dup5\n        /* \"#utility.yul\":14368:14390   */\n      and\n        /* \"#utility.yul\":14418:14455   */\n      tag_280\n        /* \"#utility.yul\":14450:14454   */\n      dup7\n        /* \"#utility.yul\":14418:14455   */\n      tag_108\n      jump\t// in\n    tag_280:\n        /* \"#utility.yul\":14477:14478   */\n      0x00\n        /* \"#utility.yul\":14491:14699   */\n    tag_281:\n        /* \"#utility.yul\":14505:14512   */\n      dup3\n        /* \"#utility.yul\":14502:14503   */\n      dup2\n        /* \"#utility.yul\":14499:14513   */\n      lt\n        /* \"#utility.yul\":14491:14699   */\n      iszero\n      tag_283\n      jumpi\n        /* \"#utility.yul\":14584:14593   */\n      dup5\n        /* \"#utility.yul\":14579:14582   */\n      dup10\n        /* \"#utility.yul\":14575:14594   */\n      add\n        /* \"#utility.yul\":14569:14595   */\n      mload\n        /* \"#utility.yul\":14561:14567   */\n      dup3\n        /* \"#utility.yul\":14554:14596   */\n      sstore\n        /* \"#utility.yul\":14635:14636   */\n      0x01\n        /* \"#utility.yul\":14627:14633   */\n      dup3\n        /* \"#utility.yul\":14623:14637   */\n      add\n        /* \"#utility.yul\":14613:14637   */\n      swap2\n      pop\n        /* \"#utility.yul\":14682:14684   */\n      0x20\n        /* \"#utility.yul\":14671:14680   */\n      dup6\n        /* \"#utility.yul\":14667:14685   */\n      add\n        /* \"#utility.yul\":14654:14685   */\n      swap5\n      pop\n        /* \"#utility.yul\":14528:14532   */\n      0x20\n        /* \"#utility.yul\":14525:14526   */\n      dup2\n        /* \"#utility.yul\":14521:14533   */\n      add\n        /* \"#utility.yul\":14516:14533   */\n      swap1\n      pop\n        /* \"#utility.yul\":14491:14699   */\n      jump(tag_281)\n    tag_283:\n        /* \"#utility.yul\":14727:14733   */\n      dup7\n        /* \"#utility.yul\":14718:14725   */\n      dup4\n        /* \"#utility.yul\":14715:14734   */\n      lt\n        /* \"#utility.yul\":14712:14891   */\n      iszero\n      tag_284\n      jumpi\n        /* \"#utility.yul\":14785:14794   */\n      dup5\n        /* \"#utility.yul\":14780:14783   */\n      dup10\n        /* \"#utility.yul\":14776:14795   */\n      add\n        /* \"#utility.yul\":14770:14796   */\n      mload\n        /* \"#utility.yul\":14828:14876   */\n      tag_285\n        /* \"#utility.yul\":14870:14874   */\n      0x1f\n        /* \"#utility.yul\":14862:14868   */\n      dup10\n        /* \"#utility.yul\":14858:14875   */\n      and\n        /* \"#utility.yul\":14847:14856   */\n      dup3\n        /* \"#utility.yul\":14828:14876   */\n      tag_121\n      jump\t// in\n    tag_285:\n        /* \"#utility.yul\":14820:14826   */\n      dup4\n        /* \"#utility.yul\":14813:14877   */\n      sstore\n        /* \"#utility.yul\":14735:14891   */\n      pop\n        /* \"#utility.yul\":14712:14891   */\n    tag_284:\n        /* \"#utility.yul\":14937:14938   */\n      0x01\n        /* \"#utility.yul\":14933:14934   */\n      0x02\n        /* \"#utility.yul\":14925:14931   */\n      dup9\n        /* \"#utility.yul\":14921:14935   */\n      mul\n        /* \"#utility.yul\":14917:14939   */\n      add\n        /* \"#utility.yul\":14911:14915   */\n      dup9\n        /* \"#utility.yul\":14904:14940   */\n      sstore\n        /* \"#utility.yul\":14339:14950   */\n      pop\n      pop\n      pop\n        /* \"#utility.yul\":14302:15189   */\n    tag_276:\n      pop\n        /* \"#utility.yul\":13892:15195   */\n      pop\n      pop\n      pop\n        /* \"#utility.yul\":13800:15195   */\n      pop\n      pop\n      jump\t// out\n\n    auxdata: 0xa26469706673582212202099ba093b0e015ca830b93993d9045e3d80d680cfc01621c50c062f2c635d6864736f6c634300081e0033\n}\n",
				"bytecode": {
					"linkReferences": {},
					"object": "6080604052348015600e575f5ffd5b50335f5f6101000a81548173ffffffffffffffffffffffffffffffffffffffff021916908373ffffffffffffffffffffffffffffffffffffffff160217905550610e208061005b5f395ff3fe608060405234801561000f575f5ffd5b506004361061007b575f3560e01c806335b8e8201161005957806335b8e820146100fc578063462e91ec1461012d578063a9a981a314610149578063f851a440146101675761007b565b80630121b93f1461007f57806309eef43e1461009b5780633477ee2e146100cb575b5f5ffd5b61009960048036038101906100949190610608565b610185565b005b6100b560048036038101906100b0919061068d565b6102d4565b6040516100c291906106d2565b60405180910390f35b6100e560048036038101906100e09190610608565b6102f1565b6040516100f392919061076a565b60405180910390f35b61011660048036038101906101119190610608565b610397565b60405161012492919061076a565b60405180910390f35b610147600480360381019061014291906108c4565b6104a9565b005b61015161059a565b60405161015e919061090b565b60405180910390f35b61016f6105a0565b60405161017c9190610933565b60405180910390f35b60035f3373ffffffffffffffffffffffffffffffffffffffff1673ffffffffffffffffffffffffffffffffffffffff1681526020019081526020015f205f9054906101000a900460ff161561020f576040517f08c379a000000000000000000000000000000000000000000000000000000000815260040161020690610996565b60405180910390fd5b6002548110610253576040517f08c379a000000000000000000000000000000000000000000000000000000000815260040161024a906109fe565b60405180910390fd5b60015f8281526020019081526020015f206001015f81548092919061027790610a49565b9190505550600160035f3373ffffffffffffffffffffffffffffffffffffffff1673ffffffffffffffffffffffffffffffffffffffff1681526020019081526020015f205f6101000a81548160ff02191690831515021790555050565b6003602052805f5260405f205f915054906101000a900460ff1681565b6001602052805f5260405f205f91509050805f01805461031090610abd565b80601f016020809104026020016040519081016040528092919081815260200182805461033c90610abd565b80156103875780601f1061035e57610100808354040283529160200191610387565b820191905f5260205f20905b81548152906001019060200180831161036a57829003601f168201915b5050505050908060010154905082565b60605f60025483106103de576040517f08c379a00000000000000000000000000000000000000000000000000000000081526004016103d5906109fe565b60405180910390fd5b5f60015f8581526020019081526020015f206040518060400160405290815f8201805461040a90610abd565b80601f016020809104026020016040519081016040528092919081815260200182805461043690610abd565b80156104815780601f1061045857610100808354040283529160200191610481565b820191905f5260205f20905b81548152906001019060200180831161046457829003601f168201915b505050505081526020016001820154815250509050805f015181602001519250925050915091565b5f5f9054906101000a900473ffffffffffffffffffffffffffffffffffffffff1673ffffffffffffffffffffffffffffffffffffffff163373ffffffffffffffffffffffffffffffffffffffff1614610537576040517f08c379a000000000000000000000000000000000000000000000000000000000815260040161052e90610b5d565b60405180910390fd5b60405180604001604052808281526020015f81525060015f60025481526020019081526020015f205f820151815f0190816105729190610d1b565b506020820151816001015590505060025f81548092919061059290610a49565b919050555050565b60025481565b5f5f9054906101000a900473ffffffffffffffffffffffffffffffffffffffff1681565b5f604051905090565b5f5ffd5b5f5ffd5b5f819050919050565b6105e7816105d5565b81146105f1575f5ffd5b50565b5f81359050610602816105de565b92915050565b5f6020828403121561061d5761061c6105cd565b5b5f61062a848285016105f4565b91505092915050565b5f73ffffffffffffffffffffffffffffffffffffffff82169050919050565b5f61065c82610633565b9050919050565b61066c81610652565b8114610676575f5ffd5b50565b5f8135905061068781610663565b92915050565b5f602082840312156106a2576106a16105cd565b5b5f6106af84828501610679565b91505092915050565b5f8115159050919050565b6106cc816106b8565b82525050565b5f6020820190506106e55f8301846106c3565b92915050565b5f81519050919050565b5f82825260208201905092915050565b8281835e5f83830152505050565b5f601f19601f8301169050919050565b5f61072d826106eb565b61073781856106f5565b9350610747818560208601610705565b61075081610713565b840191505092915050565b610764816105d5565b82525050565b5f6040820190508181035f8301526107828185610723565b9050610791602083018461075b565b9392505050565b5f5ffd5b5f5ffd5b7f4e487b71000000000000000000000000000000000000000000000000000000005f52604160045260245ffd5b6107d682610713565b810181811067ffffffffffffffff821117156107f5576107f46107a0565b5b80604052505050565b5f6108076105c4565b905061081382826107cd565b919050565b5f67ffffffffffffffff821115610832576108316107a0565b5b61083b82610713565b9050602081019050919050565b828183375f83830152505050565b5f61086861086384610818565b6107fe565b9050828152602081018484840111156108845761088361079c565b5b61088f848285610848565b509392505050565b5f82601f8301126108ab576108aa610798565b5b81356108bb848260208601610856565b91505092915050565b5f602082840312156108d9576108d86105cd565b5b5f82013567ffffffffffffffff8111156108f6576108f56105d1565b5b61090284828501610897565b91505092915050565b5f60208201905061091e5f83018461075b565b92915050565b61092d81610652565b82525050565b5f6020820190506109465f830184610924565b92915050565b7f6b616d75207564616820766f74650000000000000000000000000000000000005f82015250565b5f610980600e836106f5565b915061098b8261094c565b602082019050919050565b5f6020820190508181035f8301526109ad81610974565b9050919050565b7f67612076616c69640000000000000000000000000000000000000000000000005f82015250565b5f6109e86008836106f5565b91506109f3826109b4565b602082019050919050565b5f6020820190508181035f830152610a15816109dc565b9050919050565b7f4e487b71000000000000000000000000000000000000000000000000000000005f52601160045260245ffd5b5f610a53826105d5565b91507fffffffffffffffffffffffffffffffffffffffffffffffffffffffffffffffff8203610a8557610a84610a1c565b5b600182019050919050565b7f4e487b71000000000000000000000000000000000000000000000000000000005f52602260045260245ffd5b5f6002820490506001821680610ad457607f821691505b602082108103610ae757610ae6610a90565b5b50919050565b7f48616e79612061646d696e2079672062697361206e616d626168206b616e64695f8201527f6461740000000000000000000000000000000000000000000000000000000000602082015250565b5f610b476023836106f5565b9150610b5282610aed565b604082019050919050565b5f6020820190508181035f830152610b7481610b3b565b9050919050565b5f819050815f5260205f209050919050565b5f6020601f8301049050919050565b5f82821b905092915050565b5f60088302610bd77fffffffffffffffffffffffffffffffffffffffffffffffffffffffffffffffff82610b9c565b610be18683610b9c565b95508019841693508086168417925050509392505050565b5f819050919050565b5f610c1c610c17610c12846105d5565b610bf9565b6105d5565b9050919050565b5f819050919050565b610c3583610c02565b610c49610c4182610c23565b848454610ba8565b825550505050565b5f5f905090565b610c60610c51565b610c6b818484610c2c565b505050565b5b81811015610c8e57610c835f82610c58565b600181019050610c71565b5050565b601f821115610cd357610ca481610b7b565b610cad84610b8d565b81016020851015610cbc578190505b610cd0610cc885610b8d565b830182610c70565b50505b505050565b5f82821c905092915050565b5f610cf35f1984600802610cd8565b1980831691505092915050565b5f610d0b8383610ce4565b9150826002028217905092915050565b610d24826106eb565b67ffffffffffffffff811115610d3d57610d3c6107a0565b5b610d478254610abd565b610d52828285610c92565b5f60209050601f831160018114610d83575f8415610d71578287015190505b610d7b8582610d00565b865550610de2565b601f198416610d9186610b7b565b5f5b82811015610db857848901518255600182019150602085019450602081019050610d93565b86831015610dd55784890151610dd1601f891682610ce4565b8355505b6001600288020188555050505b50505050505056fea26469706673582212202099ba093b0e015ca830b93993d9045e3d80d680cfc01621c50c062f2c635d6864736f6c634300081e0033",
					"opcodes": "PUSH1 0x80 PUSH1 0x40 MSTORE CALLVALUE DUP1 ISZERO PUSH1 0xE JUMPI PUSH0 PUSH0 REVERT JUMPDEST POP CALLER PUSH0 PUSH0 PUSH2 0x100 EXP DUP2 SLOAD DUP2 PUSH20 0xFFFFFFFFFFFFFFFFFFFFFFFFFFFFFFFFFFFFFFFF MUL NOT AND SWAP1 DUP4 PUSH20 0xFFFFFFFFFFFFFFFFFFFFFFFFFFFFFFFFFFFFFFFF AND MUL OR SWAP1 SSTORE POP PUSH2 0xE20 DUP1 PUSH2 0x5B PUSH0 CODECOPY PUSH0 RETURN INVALID PUSH1 0x80 PUSH1 0x40 MSTORE CALLVALUE DUP1 ISZERO PUSH2 0xF JUMPI PUSH0 PUSH0 REVERT JUMPDEST POP PUSH1 0x4 CALLDATASIZE LT PUSH2 0x7B JUMPI PUSH0 CALLDATALOAD PUSH1 0xE0 SHR DUP1 PUSH4 0x35B8E820 GT PUSH2 0x59 JUMPI DUP1 PUSH4 0x35B8E820 EQ PUSH2 0xFC JUMPI DUP1 PUSH4 0x462E91EC EQ PUSH2 0x12D JUMPI DUP1 PUSH4 0xA9A981A3 EQ PUSH2 0x149 JUMPI DUP1 PUSH4 0xF851A440 EQ PUSH2 0x167 JUMPI PUSH2 0x7B JUMP JUMPDEST DUP1 PUSH4 0x121B93F EQ PUSH2 0x7F JUMPI DUP1 PUSH4 0x9EEF43E EQ PUSH2 0x9B JUMPI DUP1 PUSH4 0x3477EE2E EQ PUSH2 0xCB JUMPI JUMPDEST PUSH0 PUSH0 REVERT JUMPDEST PUSH2 0x99 PUSH1 0x4 DUP1 CALLDATASIZE SUB DUP2 ADD SWAP1 PUSH2 0x94 SWAP2 SWAP1 PUSH2 0x608 JUMP JUMPDEST PUSH2 0x185 JUMP JUMPDEST STOP JUMPDEST PUSH2 0xB5 PUSH1 0x4 DUP1 CALLDATASIZE SUB DUP2 ADD SWAP1 PUSH2 0xB0 SWAP2 SWAP1 PUSH2 0x68D JUMP JUMPDEST PUSH2 0x2D4 JUMP JUMPDEST PUSH1 0x40 MLOAD PUSH2 0xC2 SWAP2 SWAP1 PUSH2 0x6D2 JUMP JUMPDEST PUSH1 0x40 MLOAD DUP1 SWAP2 SUB SWAP1 RETURN JUMPDEST PUSH2 0xE5 PUSH1 0x4 DUP1 CALLDATASIZE SUB DUP2 ADD SWAP1 PUSH2 0xE0 SWAP2 SWAP1 PUSH2 0x608 JUMP JUMPDEST PUSH2 0x2F1 JUMP JUMPDEST PUSH1 0x40 MLOAD PUSH2 0xF3 SWAP3 SWAP2 SWAP1 PUSH2 0x76A JUMP JUMPDEST PUSH1 0x40 MLOAD DUP1 SWAP2 SUB SWAP1 RETURN JUMPDEST PUSH2 0x116 PUSH1 0x4 DUP1 CALLDATASIZE SUB DUP2 ADD SWAP1 PUSH2 0x111 SWAP2 SWAP1 PUSH2 0x608 JUMP JUMPDEST PUSH2 0x397 JUMP JUMPDEST PUSH1 0x40 MLOAD PUSH2 0x124 SWAP3 SWAP2 SWAP1 PUSH2 0x76A JUMP JUMPDEST PUSH1 0x40 MLOAD DUP1 SWAP2 SUB SWAP1 RETURN JUMPDEST PUSH2 0x147 PUSH1 0x4 DUP1 CALLDATASIZE SUB DUP2 ADD SWAP1 PUSH2 0x142 SWAP2 SWAP1 PUSH2 0x8C4 JUMP JUMPDEST PUSH2 0x4A9 JUMP JUMPDEST STOP JUMPDEST PUSH2 0x151 PUSH2 0x59A JUMP JUMPDEST PUSH1 0x40 MLOAD PUSH2 0x15E SWAP2 SWAP1 PUSH2 0x90B JUMP JUMPDEST PUSH1 0x40 MLOAD DUP1 SWAP2 SUB SWAP1 RETURN JUMPDEST PUSH2 0x16F PUSH2 0x5A0 JUMP JUMPDEST PUSH1 0x40 MLOAD PUSH2 0x17C SWAP2 SWAP1 PUSH2 0x933 JUMP JUMPDEST PUSH1 0x40 MLOAD DUP1 SWAP2 SUB SWAP1 RETURN JUMPDEST PUSH1 0x3 PUSH0 CALLER PUSH20 0xFFFFFFFFFFFFFFFFFFFFFFFFFFFFFFFFFFFFFFFF AND PUSH20 0xFFFFFFFFFFFFFFFFFFFFFFFFFFFFFFFFFFFFFFFF AND DUP2 MSTORE PUSH1 0x20 ADD SWAP1 DUP2 MSTORE PUSH1 0x20 ADD PUSH0 KECCAK256 PUSH0 SWAP1 SLOAD SWAP1 PUSH2 0x100 EXP SWAP1 DIV PUSH1 0xFF AND ISZERO PUSH2 0x20F JUMPI PUSH1 0x40 MLOAD PUSH32 0x8C379A000000000000000000000000000000000000000000000000000000000 DUP2 MSTORE PUSH1 0x4 ADD PUSH2 0x206 SWAP1 PUSH2 0x996 JUMP JUMPDEST PUSH1 0x40 MLOAD DUP1 SWAP2 SUB SWAP1 REVERT JUMPDEST PUSH1 0x2 SLOAD DUP2 LT PUSH2 0x253 JUMPI PUSH1 0x40 MLOAD PUSH32 0x8C379A000000000000000000000000000000000000000000000000000000000 DUP2 MSTORE PUSH1 0x4 ADD PUSH2 0x24A SWAP1 PUSH2 0x9FE JUMP JUMPDEST PUSH1 0x40 MLOAD DUP1 SWAP2 SUB SWAP1 REVERT JUMPDEST PUSH1 0x1 PUSH0 DUP3 DUP2 MSTORE PUSH1 0x20 ADD SWAP1 DUP2 MSTORE PUSH1 0x20 ADD PUSH0 KECCAK256 PUSH1 0x1 ADD PUSH0 DUP2 SLOAD DUP1 SWAP3 SWAP2 SWAP1 PUSH2 0x277 SWAP1 PUSH2 0xA49 JUMP JUMPDEST SWAP2 SWAP1 POP SSTORE POP PUSH1 0x1 PUSH1 0x3 PUSH0 CALLER PUSH20 0xFFFFFFFFFFFFFFFFFFFFFFFFFFFFFFFFFFFFFFFF AND PUSH20 0xFFFFFFFFFFFFFFFFFFFFFFFFFFFFFFFFFFFFFFFF AND DUP2 MSTORE PUSH1 0x20 ADD SWAP1 DUP2 MSTORE PUSH1 0x20 ADD PUSH0 KECCAK256 PUSH0 PUSH2 0x100 EXP DUP2 SLOAD DUP2 PUSH1 0xFF MUL NOT AND SWAP1 DUP4 ISZERO ISZERO MUL OR SWAP1 SSTORE POP POP JUMP JUMPDEST PUSH1 0x3 PUSH1 0x20 MSTORE DUP1 PUSH0 MSTORE PUSH1 0x40 PUSH0 KECCAK256 PUSH0 SWAP2 POP SLOAD SWAP1 PUSH2 0x100 EXP SWAP1 DIV PUSH1 0xFF AND DUP2 JUMP JUMPDEST PUSH1 0x1 PUSH1 0x20 MSTORE DUP1 PUSH0 MSTORE PUSH1 0x40 PUSH0 KECCAK256 PUSH0 SWAP2 POP SWAP1 POP DUP1 PUSH0 ADD DUP1 SLOAD PUSH2 0x310 SWAP1 PUSH2 0xABD JUMP JUMPDEST DUP1 PUSH1 0x1F ADD PUSH1 0x20 DUP1 SWAP2 DIV MUL PUSH1 0x20 ADD PUSH1 0x40 MLOAD SWAP1 DUP2 ADD PUSH1 0x40 MSTORE DUP1 SWAP3 SWAP2 SWAP1 DUP2 DUP2 MSTORE PUSH1 0x20 ADD DUP3 DUP1 SLOAD PUSH2 0x33C SWAP1 PUSH2 0xABD JUMP JUMPDEST DUP1 ISZERO PUSH2 0x387 JUMPI DUP1 PUSH1 0x1F LT PUSH2 0x35E JUMPI PUSH2 0x100 DUP1 DUP4 SLOAD DIV MUL DUP4 MSTORE SWAP2 PUSH1 0x20 ADD SWAP2 PUSH2 0x387 JUMP JUMPDEST DUP3 ADD SWAP2 SWAP1 PUSH0 MSTORE PUSH1 0x20 PUSH0 KECCAK256 SWAP1 JUMPDEST DUP2 SLOAD DUP2 MSTORE SWAP1 PUSH1 0x1 ADD SWAP1 PUSH1 0x20 ADD DUP1 DUP4 GT PUSH2 0x36A JUMPI DUP3 SWAP1 SUB PUSH1 0x1F AND DUP3 ADD SWAP2 JUMPDEST POP POP POP POP POP SWAP1 DUP1 PUSH1 0x1 ADD SLOAD SWAP1 POP DUP3 JUMP JUMPDEST PUSH1 0x60 PUSH0 PUSH1 0x2 SLOAD DUP4 LT PUSH2 0x3DE JUMPI PUSH1 0x40 MLOAD PUSH32 0x8C379A000000000000000000000000000000000000000000000000000000000 DUP2 MSTORE PUSH1 0x4 ADD PUSH2 0x3D5 SWAP1 PUSH2 0x9FE JUMP JUMPDEST PUSH1 0x40 MLOAD DUP1 SWAP2 SUB SWAP1 REVERT JUMPDEST PUSH0 PUSH1 0x1 PUSH0 DUP6 DUP2 MSTORE PUSH1 0x20 ADD SWAP1 DUP2 MSTORE PUSH1 0x20 ADD PUSH0 KECCAK256 PUSH1 0x40 MLOAD DUP1 PUSH1 0x40 ADD PUSH1 0x40 MSTORE SWAP1 DUP2 PUSH0 DUP3 ADD DUP1 SLOAD PUSH2 0x40A SWAP1 PUSH2 0xABD JUMP JUMPDEST DUP1 PUSH1 0x1F ADD PUSH1 0x20 DUP1 SWAP2 DIV MUL PUSH1 0x20 ADD PUSH1 0x40 MLOAD SWAP1 DUP2 ADD PUSH1 0x40 MSTORE DUP1 SWAP3 SWAP2 SWAP1 DUP2 DUP2 MSTORE PUSH1 0x20 ADD DUP3 DUP1 SLOAD PUSH2 0x436 SWAP1 PUSH2 0xABD JUMP JUMPDEST DUP1 ISZERO PUSH2 0x481 JUMPI DUP1 PUSH1 0x1F LT PUSH2 0x458 JUMPI PUSH2 0x100 DUP1 DUP4 SLOAD DIV MUL DUP4 MSTORE SWAP2 PUSH1 0x20 ADD SWAP2 PUSH2 0x481 JUMP JUMPDEST DUP3 ADD SWAP2 SWAP1 PUSH0 MSTORE PUSH1 0x20 PUSH0 KECCAK256 SWAP1 JUMPDEST DUP2 SLOAD DUP2 MSTORE SWAP1 PUSH1 0x1 ADD SWAP1 PUSH1 0x20 ADD DUP1 DUP4 GT PUSH2 0x464 JUMPI DUP3 SWAP1 SUB PUSH1 0x1F AND DUP3 ADD SWAP2 JUMPDEST POP POP POP POP POP DUP2 MSTORE PUSH1 0x20 ADD PUSH1 0x1 DUP3 ADD SLOAD DUP2 MSTORE POP POP SWAP1 POP DUP1 PUSH0 ADD MLOAD DUP2 PUSH1 0x20 ADD MLOAD SWAP3 POP SWAP3 POP POP SWAP2 POP SWAP2 JUMP JUMPDEST PUSH0 PUSH0 SWAP1 SLOAD SWAP1 PUSH2 0x100 EXP SWAP1 DIV PUSH20 0xFFFFFFFFFFFFFFFFFFFFFFFFFFFFFFFFFFFFFFFF AND PUSH20 0xFFFFFFFFFFFFFFFFFFFFFFFFFFFFFFFFFFFFFFFF AND CALLER PUSH20 0xFFFFFFFFFFFFFFFFFFFFFFFFFFFFFFFFFFFFFFFF AND EQ PUSH2 0x537 JUMPI PUSH1 0x40 MLOAD PUSH32 0x8C379A000000000000000000000000000000000000000000000000000000000 DUP2 MSTORE PUSH1 0x4 ADD PUSH2 0x52E SWAP1 PUSH2 0xB5D JUMP JUMPDEST PUSH1 0x40 MLOAD DUP1 SWAP2 SUB SWAP1 REVERT JUMPDEST PUSH1 0x40 MLOAD DUP1 PUSH1 0x40 ADD PUSH1 0x40 MSTORE DUP1 DUP3 DUP2 MSTORE PUSH1 0x20 ADD PUSH0 DUP2 MSTORE POP PUSH1 0x1 PUSH0 PUSH1 0x2 SLOAD DUP2 MSTORE PUSH1 0x20 ADD SWAP1 DUP2 MSTORE PUSH1 0x20 ADD PUSH0 KECCAK256 PUSH0 DUP3 ADD MLOAD DUP2 PUSH0 ADD SWAP1 DUP2 PUSH2 0x572 SWAP2 SWAP1 PUSH2 0xD1B JUMP JUMPDEST POP PUSH1 0x20 DUP3 ADD MLOAD DUP2 PUSH1 0x1 ADD SSTORE SWAP1 POP POP PUSH1 0x2 PUSH0 DUP2 SLOAD DUP1 SWAP3 SWAP2 SWAP1 PUSH2 0x592 SWAP1 PUSH2 0xA49 JUMP JUMPDEST SWAP2 SWAP1 POP SSTORE POP POP JUMP JUMPDEST PUSH1 0x2 SLOAD DUP2 JUMP JUMPDEST PUSH0 PUSH0 SWAP1 SLOAD SWAP1 PUSH2 0x100 EXP SWAP1 DIV PUSH20 0xFFFFFFFFFFFFFFFFFFFFFFFFFFFFFFFFFFFFFFFF AND DUP2 JUMP JUMPDEST PUSH0 PUSH1 0x40 MLOAD SWAP1 POP SWAP1 JUMP JUMPDEST PUSH0 PUSH0 REVERT JUMPDEST PUSH0 PUSH0 REVERT JUMPDEST PUSH0 DUP2 SWAP1 POP SWAP2 SWAP1 POP JUMP JUMPDEST PUSH2 0x5E7 DUP2 PUSH2 0x5D5 JUMP JUMPDEST DUP2 EQ PUSH2 0x5F1 JUMPI PUSH0 PUSH0 REVERT JUMPDEST POP JUMP JUMPDEST PUSH0 DUP2 CALLDATALOAD SWAP1 POP PUSH2 0x602 DUP2 PUSH2 0x5DE JUMP JUMPDEST SWAP3 SWAP2 POP POP JUMP JUMPDEST PUSH0 PUSH1 0x20 DUP3 DUP5 SUB SLT ISZERO PUSH2 0x61D JUMPI PUSH2 0x61C PUSH2 0x5CD JUMP JUMPDEST JUMPDEST PUSH0 PUSH2 0x62A DUP5 DUP3 DUP6 ADD PUSH2 0x5F4 JUMP JUMPDEST SWAP2 POP POP SWAP3 SWAP2 POP POP JUMP JUMPDEST PUSH0 PUSH20 0xFFFFFFFFFFFFFFFFFFFFFFFFFFFFFFFFFFFFFFFF DUP3 AND SWAP1 POP SWAP2 SWAP1 POP JUMP JUMPDEST PUSH0 PUSH2 0x65C DUP3 PUSH2 0x633 JUMP JUMPDEST SWAP1 POP SWAP2 SWAP1 POP JUMP JUMPDEST PUSH2 0x66C DUP2 PUSH2 0x652 JUMP JUMPDEST DUP2 EQ PUSH2 0x676 JUMPI PUSH0 PUSH0 REVERT JUMPDEST POP JUMP JUMPDEST PUSH0 DUP2 CALLDATALOAD SWAP1 POP PUSH2 0x687 DUP2 PUSH2 0x663 JUMP JUMPDEST SWAP3 SWAP2 POP POP JUMP JUMPDEST PUSH0 PUSH1 0x20 DUP3 DUP5 SUB SLT ISZERO PUSH2 0x6A2 JUMPI PUSH2 0x6A1 PUSH2 0x5CD JUMP JUMPDEST JUMPDEST PUSH0 PUSH2 0x6AF DUP5 DUP3 DUP6 ADD PUSH2 0x679 JUMP JUMPDEST SWAP2 POP POP SWAP3 SWAP2 POP POP JUMP JUMPDEST PUSH0 DUP2 ISZERO ISZERO SWAP1 POP SWAP2 SWAP1 POP JUMP JUMPDEST PUSH2 0x6CC DUP2 PUSH2 0x6B8 JUMP JUMPDEST DUP3 MSTORE POP POP JUMP JUMPDEST PUSH0 PUSH1 0x20 DUP3 ADD SWAP1 POP PUSH2 0x6E5 PUSH0 DUP4 ADD DUP5 PUSH2 0x6C3 JUMP JUMPDEST SWAP3 SWAP2 POP POP JUMP JUMPDEST PUSH0 DUP2 MLOAD SWAP1 POP SWAP2 SWAP1 POP JUMP JUMPDEST PUSH0 DUP3 DUP3 MSTORE PUSH1 0x20 DUP3 ADD SWAP1 POP SWAP3 SWAP2 POP POP JUMP JUMPDEST DUP3 DUP2 DUP4 MCOPY PUSH0 DUP4 DUP4 ADD MSTORE POP POP POP JUMP JUMPDEST PUSH0 PUSH1 0x1F NOT PUSH1 0x1F DUP4 ADD AND SWAP1 POP SWAP2 SWAP1 POP JUMP JUMPDEST PUSH0 PUSH2 0x72D DUP3 PUSH2 0x6EB JUMP JUMPDEST PUSH2 0x737 DUP2 DUP6 PUSH2 0x6F5 JUMP JUMPDEST SWAP4 POP PUSH2 0x747 DUP2 DUP6 PUSH1 0x20 DUP7 ADD PUSH2 0x705 JUMP JUMPDEST PUSH2 0x750 DUP2 PUSH2 0x713 JUMP JUMPDEST DUP5 ADD SWAP2 POP POP SWAP3 SWAP2 POP POP JUMP JUMPDEST PUSH2 0x764 DUP2 PUSH2 0x5D5 JUMP JUMPDEST DUP3 MSTORE POP POP JUMP JUMPDEST PUSH0 PUSH1 0x40 DUP3 ADD SWAP1 POP DUP2 DUP2 SUB PUSH0 DUP4 ADD MSTORE PUSH2 0x782 DUP2 DUP6 PUSH2 0x723 JUMP JUMPDEST SWAP1 POP PUSH2 0x791 PUSH1 0x20 DUP4 ADD DUP5 PUSH2 0x75B JUMP JUMPDEST SWAP4 SWAP3 POP POP POP JUMP JUMPDEST PUSH0 PUSH0 REVERT JUMPDEST PUSH0 PUSH0 REVERT JUMPDEST PUSH32 0x4E487B7100000000000000000000000000000000000000000000000000000000 PUSH0 MSTORE PUSH1 0x41 PUSH1 0x4 MSTORE PUSH1 0x24 PUSH0 REVERT JUMPDEST PUSH2 0x7D6 DUP3 PUSH2 0x713 JUMP JUMPDEST DUP2 ADD DUP2 DUP2 LT PUSH8 0xFFFFFFFFFFFFFFFF DUP3 GT OR ISZERO PUSH2 0x7F5 JUMPI PUSH2 0x7F4 PUSH2 0x7A0 JUMP JUMPDEST JUMPDEST DUP1 PUSH1 0x40 MSTORE POP POP POP JUMP JUMPDEST PUSH0 PUSH2 0x807 PUSH2 0x5C4 JUMP JUMPDEST SWAP1 POP PUSH2 0x813 DUP3 DUP3 PUSH2 0x7CD JUMP JUMPDEST SWAP2 SWAP1 POP JUMP JUMPDEST PUSH0 PUSH8 0xFFFFFFFFFFFFFFFF DUP3 GT ISZERO PUSH2 0x832 JUMPI PUSH2 0x831 PUSH2 0x7A0 JUMP JUMPDEST JUMPDEST PUSH2 0x83B DUP3 PUSH2 0x713 JUMP JUMPDEST SWAP1 POP PUSH1 0x20 DUP2 ADD SWAP1 POP SWAP2 SWAP1 POP JUMP JUMPDEST DUP3 DUP2 DUP4 CALLDATACOPY PUSH0 DUP4 DUP4 ADD MSTORE POP POP POP JUMP JUMPDEST PUSH0 PUSH2 0x868 PUSH2 0x863 DUP5 PUSH2 0x818 JUMP JUMPDEST PUSH2 0x7FE JUMP JUMPDEST SWAP1 POP DUP3 DUP2 MSTORE PUSH1 0x20 DUP2 ADD DUP5 DUP5 DUP5 ADD GT ISZERO PUSH2 0x884 JUMPI PUSH2 0x883 PUSH2 0x79C JUMP JUMPDEST JUMPDEST PUSH2 0x88F DUP5 DUP3 DUP6 PUSH2 0x848 JUMP JUMPDEST POP SWAP4 SWAP3 POP POP POP JUMP JUMPDEST PUSH0 DUP3 PUSH1 0x1F DUP4 ADD SLT PUSH2 0x8AB JUMPI PUSH2 0x8AA PUSH2 0x798 JUMP JUMPDEST JUMPDEST DUP2 CALLDATALOAD PUSH2 0x8BB DUP5 DUP3 PUSH1 0x20 DUP7 ADD PUSH2 0x856 JUMP JUMPDEST SWAP2 POP POP SWAP3 SWAP2 POP POP JUMP JUMPDEST PUSH0 PUSH1 0x20 DUP3 DUP5 SUB SLT ISZERO PUSH2 0x8D9 JUMPI PUSH2 0x8D8 PUSH2 0x5CD JUMP JUMPDEST JUMPDEST PUSH0 DUP3 ADD CALLDATALOAD PUSH8 0xFFFFFFFFFFFFFFFF DUP2 GT ISZERO PUSH2 0x8F6 JUMPI PUSH2 0x8F5 PUSH2 0x5D1 JUMP JUMPDEST JUMPDEST PUSH2 0x902 DUP5 DUP3 DUP6 ADD PUSH2 0x897 JUMP JUMPDEST SWAP2 POP POP SWAP3 SWAP2 POP POP JUMP JUMPDEST PUSH0 PUSH1 0x20 DUP3 ADD SWAP1 POP PUSH2 0x91E PUSH0 DUP4 ADD DUP5 PUSH2 0x75B JUMP JUMPDEST SWAP3 SWAP2 POP POP JUMP JUMPDEST PUSH2 0x92D DUP2 PUSH2 0x652 JUMP JUMPDEST DUP3 MSTORE POP POP JUMP JUMPDEST PUSH0 PUSH1 0x20 DUP3 ADD SWAP1 POP PUSH2 0x946 PUSH0 DUP4 ADD DUP5 PUSH2 0x924 JUMP JUMPDEST SWAP3 SWAP2 POP POP JUMP JUMPDEST PUSH32 0x6B616D75207564616820766F7465000000000000000000000000000000000000 PUSH0 DUP3 ADD MSTORE POP JUMP JUMPDEST PUSH0 PUSH2 0x980 PUSH1 0xE DUP4 PUSH2 0x6F5 JUMP JUMPDEST SWAP2 POP PUSH2 0x98B DUP3 PUSH2 0x94C JUMP JUMPDEST PUSH1 0x20 DUP3 ADD SWAP1 POP SWAP2 SWAP1 POP JUMP JUMPDEST PUSH0 PUSH1 0x20 DUP3 ADD SWAP1 POP DUP2 DUP2 SUB PUSH0 DUP4 ADD MSTORE PUSH2 0x9AD DUP2 PUSH2 0x974 JUMP JUMPDEST SWAP1 POP SWAP2 SWAP1 POP JUMP JUMPDEST PUSH32 0x67612076616C6964000000000000000000000000000000000000000000000000 PUSH0 DUP3 ADD MSTORE POP JUMP JUMPDEST PUSH0 PUSH2 0x9E8 PUSH1 0x8 DUP4 PUSH2 0x6F5 JUMP JUMPDEST SWAP2 POP PUSH2 0x9F3 DUP3 PUSH2 0x9B4 JUMP JUMPDEST PUSH1 0x20 DUP3 ADD SWAP1 POP SWAP2 SWAP1 POP JUMP JUMPDEST PUSH0 PUSH1 0x20 DUP3 ADD SWAP1 POP DUP2 DUP2 SUB PUSH0 DUP4 ADD MSTORE PUSH2 0xA15 DUP2 PUSH2 0x9DC JUMP JUMPDEST SWAP1 POP SWAP2 SWAP1 POP JUMP JUMPDEST PUSH32 0x4E487B7100000000000000000000000000000000000000000000000000000000 PUSH0 MSTORE PUSH1 0x11 PUSH1 0x4 MSTORE PUSH1 0x24 PUSH0 REVERT JUMPDEST PUSH0 PUSH2 0xA53 DUP3 PUSH2 0x5D5 JUMP JUMPDEST SWAP2 POP PUSH32 0xFFFFFFFFFFFFFFFFFFFFFFFFFFFFFFFFFFFFFFFFFFFFFFFFFFFFFFFFFFFFFFFF DUP3 SUB PUSH2 0xA85 JUMPI PUSH2 0xA84 PUSH2 0xA1C JUMP JUMPDEST JUMPDEST PUSH1 0x1 DUP3 ADD SWAP1 POP SWAP2 SWAP1 POP JUMP JUMPDEST PUSH32 0x4E487B7100000000000000000000000000000000000000000000000000000000 PUSH0 MSTORE PUSH1 0x22 PUSH1 0x4 MSTORE PUSH1 0x24 PUSH0 REVERT JUMPDEST PUSH0 PUSH1 0x2 DUP3 DIV SWAP1 POP PUSH1 0x1 DUP3 AND DUP1 PUSH2 0xAD4 JUMPI PUSH1 0x7F DUP3 AND SWAP2 POP JUMPDEST PUSH1 0x20 DUP3 LT DUP2 SUB PUSH2 0xAE7 JUMPI PUSH2 0xAE6 PUSH2 0xA90 JUMP JUMPDEST JUMPDEST POP SWAP2 SWAP1 POP JUMP JUMPDEST PUSH32 0x48616E79612061646D696E2079672062697361206E616D626168206B616E6469 PUSH0 DUP3 ADD MSTORE PUSH32 0x6461740000000000000000000000000000000000000000000000000000000000 PUSH1 0x20 DUP3 ADD MSTORE POP JUMP JUMPDEST PUSH0 PUSH2 0xB47 PUSH1 0x23 DUP4 PUSH2 0x6F5 JUMP JUMPDEST SWAP2 POP PUSH2 0xB52 DUP3 PUSH2 0xAED JUMP JUMPDEST PUSH1 0x40 DUP3 ADD SWAP1 POP SWAP2 SWAP1 POP JUMP JUMPDEST PUSH0 PUSH1 0x20 DUP3 ADD SWAP1 POP DUP2 DUP2 SUB PUSH0 DUP4 ADD MSTORE PUSH2 0xB74 DUP2 PUSH2 0xB3B JUMP JUMPDEST SWAP1 POP SWAP2 SWAP1 POP JUMP JUMPDEST PUSH0 DUP2 SWAP1 POP DUP2 PUSH0 MSTORE PUSH1 0x20 PUSH0 KECCAK256 SWAP1 POP SWAP2 SWAP1 POP JUMP JUMPDEST PUSH0 PUSH1 0x20 PUSH1 0x1F DUP4 ADD DIV SWAP1 POP SWAP2 SWAP1 POP JUMP JUMPDEST PUSH0 DUP3 DUP3 SHL SWAP1 POP SWAP3 SWAP2 POP POP JUMP JUMPDEST PUSH0 PUSH1 0x8 DUP4 MUL PUSH2 0xBD7 PUSH32 0xFFFFFFFFFFFFFFFFFFFFFFFFFFFFFFFFFFFFFFFFFFFFFFFFFFFFFFFFFFFFFFFF DUP3 PUSH2 0xB9C JUMP JUMPDEST PUSH2 0xBE1 DUP7 DUP4 PUSH2 0xB9C JUMP JUMPDEST SWAP6 POP DUP1 NOT DUP5 AND SWAP4 POP DUP1 DUP7 AND DUP5 OR SWAP3 POP POP POP SWAP4 SWAP3 POP POP POP JUMP JUMPDEST PUSH0 DUP2 SWAP1 POP SWAP2 SWAP1 POP JUMP JUMPDEST PUSH0 PUSH2 0xC1C PUSH2 0xC17 PUSH2 0xC12 DUP5 PUSH2 0x5D5 JUMP JUMPDEST PUSH2 0xBF9 JUMP JUMPDEST PUSH2 0x5D5 JUMP JUMPDEST SWAP1 POP SWAP2 SWAP1 POP JUMP JUMPDEST PUSH0 DUP2 SWAP1 POP SWAP2 SWAP1 POP JUMP JUMPDEST PUSH2 0xC35 DUP4 PUSH2 0xC02 JUMP JUMPDEST PUSH2 0xC49 PUSH2 0xC41 DUP3 PUSH2 0xC23 JUMP JUMPDEST DUP5 DUP5 SLOAD PUSH2 0xBA8 JUMP JUMPDEST DUP3 SSTORE POP POP POP POP JUMP JUMPDEST PUSH0 PUSH0 SWAP1 POP SWAP1 JUMP JUMPDEST PUSH2 0xC60 PUSH2 0xC51 JUMP JUMPDEST PUSH2 0xC6B DUP2 DUP5 DUP5 PUSH2 0xC2C JUMP JUMPDEST POP POP POP JUMP JUMPDEST JUMPDEST DUP2 DUP2 LT ISZERO PUSH2 0xC8E JUMPI PUSH2 0xC83 PUSH0 DUP3 PUSH2 0xC58 JUMP JUMPDEST PUSH1 0x1 DUP2 ADD SWAP1 POP PUSH2 0xC71 JUMP JUMPDEST POP POP JUMP JUMPDEST PUSH1 0x1F DUP3 GT ISZERO PUSH2 0xCD3 JUMPI PUSH2 0xCA4 DUP2 PUSH2 0xB7B JUMP JUMPDEST PUSH2 0xCAD DUP5 PUSH2 0xB8D JUMP JUMPDEST DUP2 ADD PUSH1 0x20 DUP6 LT ISZERO PUSH2 0xCBC JUMPI DUP2 SWAP1 POP JUMPDEST PUSH2 0xCD0 PUSH2 0xCC8 DUP6 PUSH2 0xB8D JUMP JUMPDEST DUP4 ADD DUP3 PUSH2 0xC70 JUMP JUMPDEST POP POP JUMPDEST POP POP POP JUMP JUMPDEST PUSH0 DUP3 DUP3 SHR SWAP1 POP SWAP3 SWAP2 POP POP JUMP JUMPDEST PUSH0 PUSH2 0xCF3 PUSH0 NOT DUP5 PUSH1 0x8 MUL PUSH2 0xCD8 JUMP JUMPDEST NOT DUP1 DUP4 AND SWAP2 POP POP SWAP3 SWAP2 POP POP JUMP JUMPDEST PUSH0 PUSH2 0xD0B DUP4 DUP4 PUSH2 0xCE4 JUMP JUMPDEST SWAP2 POP DUP3 PUSH1 0x2 MUL DUP3 OR SWAP1 POP SWAP3 SWAP2 POP POP JUMP JUMPDEST PUSH2 0xD24 DUP3 PUSH2 0x6EB JUMP JUMPDEST PUSH8 0xFFFFFFFFFFFFFFFF DUP2 GT ISZERO PUSH2 0xD3D JUMPI PUSH2 0xD3C PUSH2 0x7A0 JUMP JUMPDEST JUMPDEST PUSH2 0xD47 DUP3 SLOAD PUSH2 0xABD JUMP JUMPDEST PUSH2 0xD52 DUP3 DUP3 DUP6 PUSH2 0xC92 JUMP JUMPDEST PUSH0 PUSH1 0x20 SWAP1 POP PUSH1 0x1F DUP4 GT PUSH1 0x1 DUP2 EQ PUSH2 0xD83 JUMPI PUSH0 DUP5 ISZERO PUSH2 0xD71 JUMPI DUP3 DUP8 ADD MLOAD SWAP1 POP JUMPDEST PUSH2 0xD7B DUP6 DUP3 PUSH2 0xD00 JUMP JUMPDEST DUP7 SSTORE POP PUSH2 0xDE2 JUMP JUMPDEST PUSH1 0x1F NOT DUP5 AND PUSH2 0xD91 DUP7 PUSH2 0xB7B JUMP JUMPDEST PUSH0 JUMPDEST DUP3 DUP2 LT ISZERO PUSH2 0xDB8 JUMPI DUP5 DUP10 ADD MLOAD DUP3 SSTORE PUSH1 0x1 DUP3 ADD SWAP2 POP PUSH1 0x20 DUP6 ADD SWAP5 POP PUSH1 0x20 DUP2 ADD SWAP1 POP PUSH2 0xD93 JUMP JUMPDEST DUP7 DUP4 LT ISZERO PUSH2 0xDD5 JUMPI DUP5 DUP10 ADD MLOAD PUSH2 0xDD1 PUSH1 0x1F DUP10 AND DUP3 PUSH2 0xCE4 JUMP JUMPDEST DUP4 SSTORE POP JUMPDEST PUSH1 0x1 PUSH1 0x2 DUP9 MUL ADD DUP9 SSTORE POP POP POP JUMPDEST POP POP POP POP POP POP JUMP INVALID LOG2 PUSH5 0x6970667358 0x22 SLT KECCAK256 KECCAK256 SWAP10 0xBA MULMOD EXTCODESIZE 0xE ADD TLOAD 0xA8 ADDRESS 0xB9 CODECOPY SWAP4 0xD9 DIV MCOPY RETURNDATASIZE DUP1 0xD6 DUP1 0xCF 0xC0 AND 0x21 0xC5 0xC MOD 0x2F 0x2C PUSH4 0x5D686473 PUSH16 0x6C634300081E00330000000000000000 "
				},
				"gasEstimates": {
					"creation": {
						"codeDepositCost": "723200",
						"executionCost": "25015",
						"totalCost": "748215"
					},
					"external": {
						"addCandidate(string)": "infinite",
						"admin()": "2573",
						"candidateCount()": "2469",
						"candidates(uint256)": "infinite",
						"getCandidate(uint256)": "infinite",
						"hasVoted(address)": "2856",
						"vote(uint256)": "infinite"
					}
				},
				"methodIdentifiers": {
					"addCandidate(string)": "462e91ec",
					"admin()": "f851a440",
					"candidateCount()": "a9a981a3",
					"candidates(uint256)": "3477ee2e",
					"getCandidate(uint256)": "35b8e820",
					"hasVoted(address)": "09eef43e",
					"vote(uint256)": "0121b93f"
				}
			},
			"storageLayout": {
				"storage": [
					{
						"astId": 3,
						"contract": "contracts/Voting.sol:Mapping",
						"label": "admin",
						"offset": 0,
						"slot": "0",
						"type": "t_address"
					},
					{
						"astId": 22,
						"contract": "contracts/Voting.sol:Mapping",
						"label": "candidates",
						"offset": 0,
						"slot": "1",
						"type": "t_mapping(t_uint256,t_struct(Candidate)17_storage)"
					},
					{
						"astId": 24,
						"contract": "contracts/Voting.sol:Mapping",
						"label": "candidateCount",
						"offset": 0,
						"slot": "2",
						"type": "t_uint256"
					},
					{
						"astId": 28,
						"contract": "contracts/Voting.sol:Mapping",
						"label": "hasVoted",
						"offset": 0,
						"slot": "3",
						"type": "t_mapping(t_address,t_bool)"
					}
				],
				"types": {
					"t_address": {
						"encoding": "inplace",
						"label": "address",
						"numberOfBytes": "20"
					},
					"t_bool": {
						"encoding": "inplace",
						"label": "bool",
						"numberOfBytes": "1"
					},
					"t_mapping(t_address,t_bool)": {
						"encoding": "mapping",
						"key": "t_address",
						"label": "mapping(address => bool)",
						"numberOfBytes": "32",
						"value": "t_bool"
					},
					"t_mapping(t_uint256,t_struct(Candidate)17_storage)": {
						"encoding": "mapping",
						"key": "t_uint256",
						"label": "mapping(uint256 => struct Mapping.Candidate)",
						"numberOfBytes": "32",
						"value": "t_struct(Candidate)17_storage"
					},
					"t_string_storage": {
						"encoding": "bytes",
						"label": "string",
						"numberOfBytes": "32"
					},
					"t_struct(Candidate)17_storage": {
						"encoding": "inplace",
						"label": "struct Mapping.Candidate",
						"members": [
							{
								"astId": 14,
								"contract": "contracts/Voting.sol:Mapping",
								"label": "name",
								"offset": 0,
								"slot": "0",
								"type": "t_string_storage"
							},
							{
								"astId": 16,
								"contract": "contracts/Voting.sol:Mapping",
								"label": "voteCount",
								"offset": 0,
								"slot": "1",
								"type": "t_uint256"
							}
						],
						"numberOfBytes": "64"
					},
					"t_uint256": {
						"encoding": "inplace",
						"label": "uint256",
						"numberOfBytes": "32"
					}
				}
			},
			"userdoc": {
				"kind": "user",
				"methods": {},
				"version": 1
			}
		}
	}
}