{
	"contracts/Address.sol": {
		"Address": {
			"abi": [
				{
					"inputs": [
						{
							"internalType": "address",
							"name": "",
							"type": "address"
						}
					],
					"name": "balances",
					"outputs": [
						{
							"internalType": "uint256",
							"name": "",
							"type": "uint256"
						}
					],
					"stateMutability": "view",
					"type": "function"
				},
				{
					"inputs": [],
					"name": "deposit",
					"outputs": [],
					"stateMutability": "payable",
					"type": "function"
				},
				{
					"inputs": [
						{
							"internalType": "address",
							"name": "user",
							"type": "address"
						}
					],
					"name": "getBalance",
					"outputs": [
						{
							"internalType": "uint256",
							"name": "",
							"type": "uint256"
						}
					],
					"stateMutability": "view",
					"type": "function"
				},
				{
					"inputs": [],
					"name": "myBalance",
					"outputs": [
						{
							"internalType": "uint256",
							"name": "",
							"type": "uint256"
						}
					],
					"stateMutability": "view",
					"type": "function"
				},
				{
					"inputs": [
						{
							"internalType": "address",
							"name": "to",
							"type": "address"
						},
						{
							"internalType": "uint256",
							"name": "_amount",
							"type": "uint256"
						}
					],
					"name": "withdrawTo",
					"outputs": [],
					"stateMutability": "nonpayable",
					"type": "function"
				}
			],
			"devdoc": {
				"kind": "dev",
				"methods": {},
				"version": 1
			},
			"evm": {
				"assembly": "    /* \"contracts/Address.sol\":68:912  contract Address {\r... */\n  mstore(0x40, 0x80)\n  callvalue\n  dup1\n  iszero\n  tag_1\n  jumpi\n  0x00\n  dup1\n  revert\ntag_1:\n  pop\n  dataSize(sub_0)\n  dup1\n  dataOffset(sub_0)\n  0x00\n  codecopy\n  0x00\n  return\nstop\n\nsub_0: assembly {\n        /* \"contracts/Address.sol\":68:912  contract Address {\r... */\n      mstore(0x40, 0x80)\n      jumpi(tag_1, lt(calldatasize, 0x04))\n      shr(0xe0, calldataload(0x00))\n      dup1\n      0x205c2878\n      eq\n      tag_2\n      jumpi\n      dup1\n      0x27e235e3\n      eq\n      tag_3\n      jumpi\n      dup1\n      0xc9116b69\n      eq\n      tag_4\n      jumpi\n      dup1\n      0xd0e30db0\n      eq\n      tag_5\n      jumpi\n      dup1\n      0xf8b2cb4f\n      eq\n      tag_6\n      jumpi\n    tag_1:\n      0x00\n      dup1\n      revert\n        /* \"contracts/Address.sol\":490:907  function withdrawTo(address to, uint _amount) public {\r... */\n    tag_2:\n      callvalue\n      dup1\n      iszero\n      tag_7\n      jumpi\n      0x00\n      dup1\n      revert\n    tag_7:\n      pop\n      tag_8\n      0x04\n      dup1\n      calldatasize\n      sub\n      dup2\n      add\n      swap1\n      tag_9\n      swap2\n      swap1\n      tag_10\n      jump\t// in\n    tag_9:\n      tag_11\n      jump\t// in\n    tag_8:\n      stop\n        /* \"contracts/Address.sol\":92:130  mapping(address=>uint) public balances */\n    tag_3:\n      callvalue\n      dup1\n      iszero\n      tag_12\n      jumpi\n      0x00\n      dup1\n      revert\n    tag_12:\n      pop\n      tag_13\n      0x04\n      dup1\n      calldatasize\n      sub\n      dup2\n      add\n      swap1\n      tag_14\n      swap2\n      swap1\n      tag_15\n      jump\t// in\n    tag_14:\n      tag_16\n      jump\t// in\n    tag_13:\n      mload(0x40)\n      tag_17\n      swap2\n      swap1\n      tag_18\n      jump\t// in\n    tag_17:\n      mload(0x40)\n      dup1\n      swap2\n      sub\n      swap1\n      return\n        /* \"contracts/Address.sol\":280:373  function myBalance()public view returns (uint) {\r... */\n    tag_4:\n      callvalue\n      dup1\n      iszero\n      tag_19\n      jumpi\n      0x00\n      dup1\n      revert\n    tag_19:\n      pop\n      tag_20\n      tag_21\n      jump\t// in\n    tag_20:\n      mload(0x40)\n      tag_22\n      swap2\n      swap1\n      tag_18\n      jump\t// in\n    tag_22:\n      mload(0x40)\n      dup1\n      swap2\n      sub\n      swap1\n      return\n        /* \"contracts/Address.sol\":139:272  function deposit() public payable  {\r... */\n    tag_5:\n      tag_23\n      tag_24\n      jump\t// in\n    tag_23:\n      stop\n        /* \"contracts/Address.sol\":381:482  function getBalance(address user) public view returns(uint) {\r... */\n    tag_6:\n      callvalue\n      dup1\n      iszero\n      tag_25\n      jumpi\n      0x00\n      dup1\n      revert\n    tag_25:\n      pop\n      tag_26\n      0x04\n      dup1\n      calldatasize\n      sub\n      dup2\n      add\n      swap1\n      tag_27\n      swap2\n      swap1\n      tag_15\n      jump\t// in\n    tag_27:\n      tag_28\n      jump\t// in\n    tag_26:\n      mload(0x40)\n      tag_29\n      swap2\n      swap1\n      tag_18\n      jump\t// in\n    tag_29:\n      mload(0x40)\n      dup1\n      swap2\n      sub\n      swap1\n      return\n        /* \"contracts/Address.sol\":490:907  function withdrawTo(address to, uint _amount) public {\r... */\n    tag_11:\n        /* \"contracts/Address.sol\":572:573  0 */\n      0x00\n        /* \"contracts/Address.sol\":562:569  _amount */\n      dup2\n        /* \"contracts/Address.sol\":562:573  _amount > 0 */\n      gt\n        /* \"contracts/Address.sol\":554:603  require(_amount > 0, \"Jumlah harus lebih dari 0\") */\n      tag_31\n      jumpi\n      mload(0x40)\n      0x08c379a000000000000000000000000000000000000000000000000000000000\n      dup2\n      mstore\n      0x04\n      add\n      tag_32\n      swap1\n      tag_33\n      jump\t// in\n    tag_32:\n      mload(0x40)\n      dup1\n      swap2\n      sub\n      swap1\n      revert\n    tag_31:\n        /* \"contracts/Address.sol\":646:653  _amount */\n      dup1\n        /* \"contracts/Address.sol\":622:630  balances */\n      0x00\n        /* \"contracts/Address.sol\":622:642  balances[msg.sender] */\n      dup1\n        /* \"contracts/Address.sol\":631:641  msg.sender */\n      caller\n        /* \"contracts/Address.sol\":622:642  balances[msg.sender] */\n      0xffffffffffffffffffffffffffffffffffffffff\n      and\n      0xffffffffffffffffffffffffffffffffffffffff\n      and\n      dup2\n      mstore\n      0x20\n      add\n      swap1\n      dup2\n      mstore\n      0x20\n      add\n      0x00\n      keccak256\n      sload\n        /* \"contracts/Address.sol\":622:653  balances[msg.sender] >= _amount */\n      lt\n      iszero\n        /* \"contracts/Address.sol\":614:675  require(balances[msg.sender] >= _amount, \"Saldo tidak cukup\") */\n      tag_34\n      jumpi\n      mload(0x40)\n      0x08c379a000000000000000000000000000000000000000000000000000000000\n      dup2\n      mstore\n      0x04\n      add\n      tag_35\n      swap1\n      tag_36\n      jump\t// in\n    tag_35:\n      mload(0x40)\n      dup1\n      swap2\n      sub\n      swap1\n      revert\n    tag_34:\n        /* \"contracts/Address.sol\":708:709  0 */\n      0x00\n        /* \"contracts/Address.sol\":694:710  to != address(0) */\n      0xffffffffffffffffffffffffffffffffffffffff\n      and\n        /* \"contracts/Address.sol\":694:696  to */\n      dup3\n        /* \"contracts/Address.sol\":694:710  to != address(0) */\n      0xffffffffffffffffffffffffffffffffffffffff\n      and\n      eq\n      iszero\n        /* \"contracts/Address.sol\":686:740  require(to != address(0), \"Alamat tujuan tidak valid\") */\n      tag_37\n      jumpi\n      mload(0x40)\n      0x08c379a000000000000000000000000000000000000000000000000000000000\n      dup2\n      mstore\n      0x04\n      add\n      tag_38\n      swap1\n      tag_39\n      jump\t// in\n    tag_38:\n      mload(0x40)\n      dup1\n      swap2\n      sub\n      swap1\n      revert\n    tag_37:\n        /* \"contracts/Address.sol\":777:784  _amount */\n      dup1\n        /* \"contracts/Address.sol\":753:761  balances */\n      0x00\n        /* \"contracts/Address.sol\":753:773  balances[msg.sender] */\n      dup1\n        /* \"contracts/Address.sol\":762:772  msg.sender */\n      caller\n        /* \"contracts/Address.sol\":753:773  balances[msg.sender] */\n      0xffffffffffffffffffffffffffffffffffffffff\n      and\n      0xffffffffffffffffffffffffffffffffffffffff\n      and\n      dup2\n      mstore\n      0x20\n      add\n      swap1\n      dup2\n      mstore\n      0x20\n      add\n      0x00\n      keccak256\n      0x00\n        /* \"contracts/Address.sol\":753:784  balances[msg.sender] -= _amount */\n      dup3\n      dup3\n      sload\n      tag_40\n      swap2\n      swap1\n      tag_41\n      jump\t// in\n    tag_40:\n      swap3\n      pop\n      pop\n      dup2\n      swap1\n      sstore\n      pop\n        /* \"contracts/Address.sol\":798:810  bool success */\n      0x00\n        /* \"contracts/Address.sol\":824:826  to */\n      dup3\n        /* \"contracts/Address.sol\":816:832  payable(to).call */\n      0xffffffffffffffffffffffffffffffffffffffff\n      and\n        /* \"contracts/Address.sol\":840:847  _amount */\n      dup3\n        /* \"contracts/Address.sol\":816:852  payable(to).call{value: _amount}(\"\") */\n      mload(0x40)\n      tag_42\n      swap1\n      tag_43\n      jump\t// in\n    tag_42:\n      0x00\n      mload(0x40)\n      dup1\n      dup4\n      sub\n      dup2\n      dup6\n      dup8\n      gas\n      call\n      swap3\n      pop\n      pop\n      pop\n      returndatasize\n      dup1\n      0x00\n      dup2\n      eq\n      tag_46\n      jumpi\n      mload(0x40)\n      swap2\n      pop\n      and(add(returndatasize, 0x3f), not(0x1f))\n      dup3\n      add\n      0x40\n      mstore\n      returndatasize\n      dup3\n      mstore\n      returndatasize\n      0x00\n      0x20\n      dup5\n      add\n      returndatacopy\n      jump(tag_45)\n    tag_46:\n      0x60\n      swap2\n      pop\n    tag_45:\n      pop\n        /* \"contracts/Address.sol\":797:852  (bool success, ) = payable(to).call{value: _amount}(\"\") */\n      pop\n      swap1\n      pop\n        /* \"contracts/Address.sol\":871:878  success */\n      dup1\n        /* \"contracts/Address.sol\":863:899  require(success, \"Gagal tarik dana\") */\n      tag_47\n      jumpi\n      mload(0x40)\n      0x08c379a000000000000000000000000000000000000000000000000000000000\n      dup2\n      mstore\n      0x04\n      add\n      tag_48\n      swap1\n      tag_49\n      jump\t// in\n    tag_48:\n      mload(0x40)\n      dup1\n      swap2\n      sub\n      swap1\n      revert\n    tag_47:\n        /* \"contracts/Address.sol\":490:907  function withdrawTo(address to, uint _amount) public {\r... */\n      pop\n      pop\n      pop\n      jump\t// out\n        /* \"contracts/Address.sol\":92:130  mapping(address=>uint) public balances */\n    tag_16:\n      mstore(0x20, 0x00)\n      dup1\n      0x00\n      mstore\n      keccak256(0x00, 0x40)\n      0x00\n      swap2\n      pop\n      swap1\n      pop\n      sload\n      dup2\n      jump\t// out\n        /* \"contracts/Address.sol\":280:373  function myBalance()public view returns (uint) {\r... */\n    tag_21:\n        /* \"contracts/Address.sol\":321:325  uint */\n      0x00\n        /* \"contracts/Address.sol\":345:353  balances */\n      dup1\n        /* \"contracts/Address.sol\":345:365  balances[msg.sender] */\n      0x00\n        /* \"contracts/Address.sol\":354:364  msg.sender */\n      caller\n        /* \"contracts/Address.sol\":345:365  balances[msg.sender] */\n      0xffffffffffffffffffffffffffffffffffffffff\n      and\n      0xffffffffffffffffffffffffffffffffffffffff\n      and\n      dup2\n      mstore\n      0x20\n      add\n      swap1\n      dup2\n      mstore\n      0x20\n      add\n      0x00\n      keccak256\n      sload\n        /* \"contracts/Address.sol\":338:365  return balances[msg.sender] */\n      swap1\n      pop\n        /* \"contracts/Address.sol\":280:373  function myBalance()public view returns (uint) {\r... */\n      swap1\n      jump\t// out\n        /* \"contracts/Address.sol\":139:272  function deposit() public payable  {\r... */\n    tag_24:\n        /* \"contracts/Address.sol\":204:205  0 */\n      0x00\n        /* \"contracts/Address.sol\":193:202  msg.value */\n      callvalue\n        /* \"contracts/Address.sol\":193:205  msg.value >0 */\n      gt\n        /* \"contracts/Address.sol\":185:222  require(msg.value >0, 'Mengirim ETH') */\n      tag_52\n      jumpi\n      mload(0x40)\n      0x08c379a000000000000000000000000000000000000000000000000000000000\n      dup2\n      mstore\n      0x04\n      add\n      tag_53\n      swap1\n      tag_54\n      jump\t// in\n    tag_53:\n      mload(0x40)\n      dup1\n      swap2\n      sub\n      swap1\n      revert\n    tag_52:\n        /* \"contracts/Address.sol\":255:264  msg.value */\n      callvalue\n        /* \"contracts/Address.sol\":233:241  balances */\n      0x00\n        /* \"contracts/Address.sol\":233:253  balances[msg.sender] */\n      dup1\n        /* \"contracts/Address.sol\":242:252  msg.sender */\n      caller\n        /* \"contracts/Address.sol\":233:253  balances[msg.sender] */\n      0xffffffffffffffffffffffffffffffffffffffff\n      and\n      0xffffffffffffffffffffffffffffffffffffffff\n      and\n      dup2\n      mstore\n      0x20\n      add\n      swap1\n      dup2\n      mstore\n      0x20\n      add\n      0x00\n      keccak256\n      0x00\n        /* \"contracts/Address.sol\":233:264  balances[msg.sender]+=msg.value */\n      dup3\n      dup3\n      sload\n      tag_55\n      swap2\n      swap1\n      tag_56\n      jump\t// in\n    tag_55:\n      swap3\n      pop\n      pop\n      dup2\n      swap1\n      sstore\n      pop\n        /* \"contracts/Address.sol\":139:272  function deposit() public payable  {\r... */\n      jump\t// out\n        /* \"contracts/Address.sol\":381:482  function getBalance(address user) public view returns(uint) {\r... */\n    tag_28:\n        /* \"contracts/Address.sol\":435:439  uint */\n      0x00\n        /* \"contracts/Address.sol\":460:468  balances */\n      dup1\n        /* \"contracts/Address.sol\":460:474  balances[user] */\n      0x00\n        /* \"contracts/Address.sol\":469:473  user */\n      dup4\n        /* \"contracts/Address.sol\":460:474  balances[user] */\n      0xffffffffffffffffffffffffffffffffffffffff\n      and\n      0xffffffffffffffffffffffffffffffffffffffff\n      and\n      dup2\n      mstore\n      0x20\n      add\n      swap1\n      dup2\n      mstore\n      0x20\n      add\n      0x00\n      keccak256\n      sload\n        /* \"contracts/Address.sol\":452:474  return  balances[user] */\n      swap1\n      pop\n        /* \"contracts/Address.sol\":381:482  function getBalance(address user) public view returns(uint) {\r... */\n      swap2\n      swap1\n      pop\n      jump\t// out\n        /* \"#utility.yul\":7:146   */\n    tag_59:\n        /* \"#utility.yul\":53:58   */\n      0x00\n        /* \"#utility.yul\":91:97   */\n      dup2\n        /* \"#utility.yul\":78:98   */\n      calldataload\n        /* \"#utility.yul\":69:98   */\n      swap1\n      pop\n        /* \"#utility.yul\":107:140   */\n      tag_61\n        /* \"#utility.yul\":134:139   */\n      dup2\n        /* \"#utility.yul\":107:140   */\n      tag_62\n      jump\t// in\n    tag_61:\n        /* \"#utility.yul\":59:146   */\n      swap3\n      swap2\n      pop\n      pop\n      jump\t// out\n        /* \"#utility.yul\":152:291   */\n    tag_63:\n        /* \"#utility.yul\":198:203   */\n      0x00\n        /* \"#utility.yul\":236:242   */\n      dup2\n        /* \"#utility.yul\":223:243   */\n      calldataload\n        /* \"#utility.yul\":214:243   */\n      swap1\n      pop\n        /* \"#utility.yul\":252:285   */\n      tag_65\n        /* \"#utility.yul\":279:284   */\n      dup2\n        /* \"#utility.yul\":252:285   */\n      tag_66\n      jump\t// in\n    tag_65:\n        /* \"#utility.yul\":204:291   */\n      swap3\n      swap2\n      pop\n      pop\n      jump\t// out\n        /* \"#utility.yul\":297:559   */\n    tag_15:\n        /* \"#utility.yul\":356:362   */\n      0x00\n        /* \"#utility.yul\":405:407   */\n      0x20\n        /* \"#utility.yul\":393:402   */\n      dup3\n        /* \"#utility.yul\":384:391   */\n      dup5\n        /* \"#utility.yul\":380:403   */\n      sub\n        /* \"#utility.yul\":376:408   */\n      slt\n        /* \"#utility.yul\":373:375   */\n      iszero\n      tag_68\n      jumpi\n        /* \"#utility.yul\":421:422   */\n      0x00\n        /* \"#utility.yul\":418:419   */\n      dup1\n        /* \"#utility.yul\":411:423   */\n      revert\n        /* \"#utility.yul\":373:375   */\n    tag_68:\n        /* \"#utility.yul\":464:465   */\n      0x00\n        /* \"#utility.yul\":489:542   */\n      tag_69\n        /* \"#utility.yul\":534:541   */\n      dup5\n        /* \"#utility.yul\":525:531   */\n      dup3\n        /* \"#utility.yul\":514:523   */\n      dup6\n        /* \"#utility.yul\":510:532   */\n      add\n        /* \"#utility.yul\":489:542   */\n      tag_59\n      jump\t// in\n    tag_69:\n        /* \"#utility.yul\":479:542   */\n      swap2\n      pop\n        /* \"#utility.yul\":435:552   */\n      pop\n        /* \"#utility.yul\":363:559   */\n      swap3\n      swap2\n      pop\n      pop\n      jump\t// out\n        /* \"#utility.yul\":565:972   */\n    tag_10:\n        /* \"#utility.yul\":633:639   */\n      0x00\n        /* \"#utility.yul\":641:647   */\n      dup1\n        /* \"#utility.yul\":690:692   */\n      0x40\n        /* \"#utility.yul\":678:687   */\n      dup4\n        /* \"#utility.yul\":669:676   */\n      dup6\n        /* \"#utility.yul\":665:688   */\n      sub\n        /* \"#utility.yul\":661:693   */\n      slt\n        /* \"#utility.yul\":658:660   */\n      iszero\n      tag_71\n      jumpi\n        /* \"#utility.yul\":706:707   */\n      0x00\n        /* \"#utility.yul\":703:704   */\n      dup1\n        /* \"#utility.yul\":696:708   */\n      revert\n        /* \"#utility.yul\":658:660   */\n    tag_71:\n        /* \"#utility.yul\":749:750   */\n      0x00\n        /* \"#utility.yul\":774:827   */\n      tag_72\n        /* \"#utility.yul\":819:826   */\n      dup6\n        /* \"#utility.yul\":810:816   */\n      dup3\n        /* \"#utility.yul\":799:808   */\n      dup7\n        /* \"#utility.yul\":795:817   */\n      add\n        /* \"#utility.yul\":774:827   */\n      tag_59\n      jump\t// in\n    tag_72:\n        /* \"#utility.yul\":764:827   */\n      swap3\n      pop\n        /* \"#utility.yul\":720:837   */\n      pop\n        /* \"#utility.yul\":876:878   */\n      0x20\n        /* \"#utility.yul\":902:955   */\n      tag_73\n        /* \"#utility.yul\":947:954   */\n      dup6\n        /* \"#utility.yul\":938:944   */\n      dup3\n        /* \"#utility.yul\":927:936   */\n      dup7\n        /* \"#utility.yul\":923:945   */\n      add\n        /* \"#utility.yul\":902:955   */\n      tag_63\n      jump\t// in\n    tag_73:\n        /* \"#utility.yul\":892:955   */\n      swap2\n      pop\n        /* \"#utility.yul\":847:965   */\n      pop\n        /* \"#utility.yul\":648:972   */\n      swap3\n      pop\n      swap3\n      swap1\n      pop\n      jump\t// out\n        /* \"#utility.yul\":978:1344   */\n    tag_74:\n        /* \"#utility.yul\":1120:1123   */\n      0x00\n        /* \"#utility.yul\":1141:1208   */\n      tag_76\n        /* \"#utility.yul\":1205:1207   */\n      0x10\n        /* \"#utility.yul\":1200:1203   */\n      dup4\n        /* \"#utility.yul\":1141:1208   */\n      tag_77\n      jump\t// in\n    tag_76:\n        /* \"#utility.yul\":1134:1208   */\n      swap2\n      pop\n        /* \"#utility.yul\":1217:1310   */\n      tag_78\n        /* \"#utility.yul\":1306:1309   */\n      dup3\n        /* \"#utility.yul\":1217:1310   */\n      tag_79\n      jump\t// in\n    tag_78:\n        /* \"#utility.yul\":1335:1337   */\n      0x20\n        /* \"#utility.yul\":1330:1333   */\n      dup3\n        /* \"#utility.yul\":1326:1338   */\n      add\n        /* \"#utility.yul\":1319:1338   */\n      swap1\n      pop\n        /* \"#utility.yul\":1124:1344   */\n      swap2\n      swap1\n      pop\n      jump\t// out\n        /* \"#utility.yul\":1350:1716   */\n    tag_80:\n        /* \"#utility.yul\":1492:1495   */\n      0x00\n        /* \"#utility.yul\":1513:1580   */\n      tag_82\n        /* \"#utility.yul\":1577:1579   */\n      0x19\n        /* \"#utility.yul\":1572:1575   */\n      dup4\n        /* \"#utility.yul\":1513:1580   */\n      tag_77\n      jump\t// in\n    tag_82:\n        /* \"#utility.yul\":1506:1580   */\n      swap2\n      pop\n        /* \"#utility.yul\":1589:1682   */\n      tag_83\n        /* \"#utility.yul\":1678:1681   */\n      dup3\n        /* \"#utility.yul\":1589:1682   */\n      tag_84\n      jump\t// in\n    tag_83:\n        /* \"#utility.yul\":1707:1709   */\n      0x20\n        /* \"#utility.yul\":1702:1705   */\n      dup3\n        /* \"#utility.yul\":1698:1710   */\n      add\n        /* \"#utility.yul\":1691:1710   */\n      swap1\n      pop\n        /* \"#utility.yul\":1496:1716   */\n      swap2\n      swap1\n      pop\n      jump\t// out\n        /* \"#utility.yul\":1722:2088   */\n    tag_85:\n        /* \"#utility.yul\":1864:1867   */\n      0x00\n        /* \"#utility.yul\":1885:1952   */\n      tag_87\n        /* \"#utility.yul\":1949:1951   */\n      0x0c\n        /* \"#utility.yul\":1944:1947   */\n      dup4\n        /* \"#utility.yul\":1885:1952   */\n      tag_77\n      jump\t// in\n    tag_87:\n        /* \"#utility.yul\":1878:1952   */\n      swap2\n      pop\n        /* \"#utility.yul\":1961:2054   */\n      tag_88\n        /* \"#utility.yul\":2050:2053   */\n      dup3\n        /* \"#utility.yul\":1961:2054   */\n      tag_89\n      jump\t// in\n    tag_88:\n        /* \"#utility.yul\":2079:2081   */\n      0x20\n        /* \"#utility.yul\":2074:2077   */\n      dup3\n        /* \"#utility.yul\":2070:2082   */\n      add\n        /* \"#utility.yul\":2063:2082   */\n      swap1\n      pop\n        /* \"#utility.yul\":1868:2088   */\n      swap2\n      swap1\n      pop\n      jump\t// out\n        /* \"#utility.yul\":2094:2460   */\n    tag_90:\n        /* \"#utility.yul\":2236:2239   */\n      0x00\n        /* \"#utility.yul\":2257:2324   */\n      tag_92\n        /* \"#utility.yul\":2321:2323   */\n      0x19\n        /* \"#utility.yul\":2316:2319   */\n      dup4\n        /* \"#utility.yul\":2257:2324   */\n      tag_77\n      jump\t// in\n    tag_92:\n        /* \"#utility.yul\":2250:2324   */\n      swap2\n      pop\n        /* \"#utility.yul\":2333:2426   */\n      tag_93\n        /* \"#utility.yul\":2422:2425   */\n      dup3\n        /* \"#utility.yul\":2333:2426   */\n      tag_94\n      jump\t// in\n    tag_93:\n        /* \"#utility.yul\":2451:2453   */\n      0x20\n        /* \"#utility.yul\":2446:2449   */\n      dup3\n        /* \"#utility.yul\":2442:2454   */\n      add\n        /* \"#utility.yul\":2435:2454   */\n      swap1\n      pop\n        /* \"#utility.yul\":2240:2460   */\n      swap2\n      swap1\n      pop\n      jump\t// out\n        /* \"#utility.yul\":2466:2832   */\n    tag_95:\n        /* \"#utility.yul\":2608:2611   */\n      0x00\n        /* \"#utility.yul\":2629:2696   */\n      tag_97\n        /* \"#utility.yul\":2693:2695   */\n      0x11\n        /* \"#utility.yul\":2688:2691   */\n      dup4\n        /* \"#utility.yul\":2629:2696   */\n      tag_77\n      jump\t// in\n    tag_97:\n        /* \"#utility.yul\":2622:2696   */\n      swap2\n      pop\n        /* \"#utility.yul\":2705:2798   */\n      tag_98\n        /* \"#utility.yul\":2794:2797   */\n      dup3\n        /* \"#utility.yul\":2705:2798   */\n      tag_99\n      jump\t// in\n    tag_98:\n        /* \"#utility.yul\":2823:2825   */\n      0x20\n        /* \"#utility.yul\":2818:2821   */\n      dup3\n        /* \"#utility.yul\":2814:2826   */\n      add\n        /* \"#utility.yul\":2807:2826   */\n      swap1\n      pop\n        /* \"#utility.yul\":2612:2832   */\n      swap2\n      swap1\n      pop\n      jump\t// out\n        /* \"#utility.yul\":2838:3236   */\n    tag_100:\n        /* \"#utility.yul\":2997:3000   */\n      0x00\n        /* \"#utility.yul\":3018:3101   */\n      tag_102\n        /* \"#utility.yul\":3099:3100   */\n      0x00\n        /* \"#utility.yul\":3094:3097   */\n      dup4\n        /* \"#utility.yul\":3018:3101   */\n      tag_103\n      jump\t// in\n    tag_102:\n        /* \"#utility.yul\":3011:3101   */\n      swap2\n      pop\n        /* \"#utility.yul\":3110:3203   */\n      tag_104\n        /* \"#utility.yul\":3199:3202   */\n      dup3\n        /* \"#utility.yul\":3110:3203   */\n      tag_105\n      jump\t// in\n    tag_104:\n        /* \"#utility.yul\":3228:3229   */\n      0x00\n        /* \"#utility.yul\":3223:3226   */\n      dup3\n        /* \"#utility.yul\":3219:3230   */\n      add\n        /* \"#utility.yul\":3212:3230   */\n      swap1\n      pop\n        /* \"#utility.yul\":3001:3236   */\n      swap2\n      swap1\n      pop\n      jump\t// out\n        /* \"#utility.yul\":3242:3360   */\n    tag_106:\n        /* \"#utility.yul\":3329:3353   */\n      tag_108\n        /* \"#utility.yul\":3347:3352   */\n      dup2\n        /* \"#utility.yul\":3329:3353   */\n      tag_109\n      jump\t// in\n    tag_108:\n        /* \"#utility.yul\":3324:3327   */\n      dup3\n        /* \"#utility.yul\":3317:3354   */\n      mstore\n        /* \"#utility.yul\":3307:3360   */\n      pop\n      pop\n      jump\t// out\n        /* \"#utility.yul\":3366:3745   */\n    tag_43:\n        /* \"#utility.yul\":3550:3553   */\n      0x00\n        /* \"#utility.yul\":3572:3719   */\n      tag_111\n        /* \"#utility.yul\":3715:3718   */\n      dup3\n        /* \"#utility.yul\":3572:3719   */\n      tag_100\n      jump\t// in\n    tag_111:\n        /* \"#utility.yul\":3565:3719   */\n      swap2\n      pop\n        /* \"#utility.yul\":3736:3739   */\n      dup2\n        /* \"#utility.yul\":3729:3739   */\n      swap1\n      pop\n        /* \"#utility.yul\":3554:3745   */\n      swap2\n      swap1\n      pop\n      jump\t// out\n        /* \"#utility.yul\":3751:4170   */\n    tag_49:\n        /* \"#utility.yul\":3917:3921   */\n      0x00\n        /* \"#utility.yul\":3955:3957   */\n      0x20\n        /* \"#utility.yul\":3944:3953   */\n      dup3\n        /* \"#utility.yul\":3940:3958   */\n      add\n        /* \"#utility.yul\":3932:3958   */\n      swap1\n      pop\n        /* \"#utility.yul\":4004:4013   */\n      dup2\n        /* \"#utility.yul\":3998:4002   */\n      dup2\n        /* \"#utility.yul\":3994:4014   */\n      sub\n        /* \"#utility.yul\":3990:3991   */\n      0x00\n        /* \"#utility.yul\":3979:3988   */\n      dup4\n        /* \"#utility.yul\":3975:3992   */\n      add\n        /* \"#utility.yul\":3968:4015   */\n      mstore\n        /* \"#utility.yul\":4032:4163   */\n      tag_113\n        /* \"#utility.yul\":4158:4162   */\n      dup2\n        /* \"#utility.yul\":4032:4163   */\n      tag_74\n      jump\t// in\n    tag_113:\n        /* \"#utility.yul\":4024:4163   */\n      swap1\n      pop\n        /* \"#utility.yul\":3922:4170   */\n      swap2\n      swap1\n      pop\n      jump\t// out\n        /* \"#utility.yul\":4176:4595   */\n    tag_33:\n        /* \"#utility.yul\":4342:4346   */\n      0x00\n        /* \"#utility.yul\":4380:4382   */\n      0x20\n        /* \"#utility.yul\":4369:4378   */\n      dup3\n        /* \"#utility.yul\":4365:4383   */\n      add\n        /* \"#utility.yul\":4357:4383   */\n      swap1\n      pop\n        /* \"#utility.yul\":4429:4438   */\n      dup2\n        /* \"#utility.yul\":4423:4427   */\n      dup2\n        /* \"#utility.yul\":4419:4439   */\n      sub\n        /* \"#utility.yul\":4415:4416   */\n      0x00\n        /* \"#utility.yul\":4404:4413   */\n      dup4\n        /* \"#utility.yul\":4400:4417   */\n      add\n        /* \"#utility.yul\":4393:4440   */\n      mstore\n        /* \"#utility.yul\":4457:4588   */\n      tag_115\n        /* \"#utility.yul\":4583:4587   */\n      dup2\n        /* \"#utility.yul\":4457:4588   */\n      tag_80\n      jump\t// in\n    tag_115:\n        /* \"#utility.yul\":4449:4588   */\n      swap1\n      pop\n        /* \"#utility.yul\":4347:4595   */\n      swap2\n      swap1\n      pop\n      jump\t// out\n        /* \"#utility.yul\":4601:5020   */\n    tag_54:\n        /* \"#utility.yul\":4767:4771   */\n      0x00\n        /* \"#utility.yul\":4805:4807   */\n      0x20\n        /* \"#utility.yul\":4794:4803   */\n      dup3\n        /* \"#utility.yul\":4790:4808   */\n      add\n        /* \"#utility.yul\":4782:4808   */\n      swap1\n      pop\n        /* \"#utility.yul\":4854:4863   */\n      dup2\n        /* \"#utility.yul\":4848:4852   */\n      dup2\n        /* \"#utility.yul\":4844:4864   */\n      sub\n        /* \"#utility.yul\":4840:4841   */\n      0x00\n        /* \"#utility.yul\":4829:4838   */\n      dup4\n        /* \"#utility.yul\":4825:4842   */\n      add\n        /* \"#utility.yul\":4818:4865   */\n      mstore\n        /* \"#utility.yul\":4882:5013   */\n      tag_117\n        /* \"#utility.yul\":5008:5012   */\n      dup2\n        /* \"#utility.yul\":4882:5013   */\n      tag_85\n      jump\t// in\n    tag_117:\n        /* \"#utility.yul\":4874:5013   */\n      swap1\n      pop\n        /* \"#utility.yul\":4772:5020   */\n      swap2\n      swap1\n      pop\n      jump\t// out\n        /* \"#utility.yul\":5026:5445   */\n    tag_39:\n        /* \"#utility.yul\":5192:5196   */\n      0x00\n        /* \"#utility.yul\":5230:5232   */\n      0x20\n        /* \"#utility.yul\":5219:5228   */\n      dup3\n        /* \"#utility.yul\":5215:5233   */\n      add\n        /* \"#utility.yul\":5207:5233   */\n      swap1\n      pop\n        /* \"#utility.yul\":5279:5288   */\n      dup2\n        /* \"#utility.yul\":5273:5277   */\n      dup2\n        /* \"#utility.yul\":5269:5289   */\n      sub\n        /* \"#utility.yul\":5265:5266   */\n      0x00\n        /* \"#utility.yul\":5254:5263   */\n      dup4\n        /* \"#utility.yul\":5250:5267   */\n      add\n        /* \"#utility.yul\":5243:5290   */\n      mstore\n        /* \"#utility.yul\":5307:5438   */\n      tag_119\n        /* \"#utility.yul\":5433:5437   */\n      dup2\n        /* \"#utility.yul\":5307:5438   */\n      tag_90\n      jump\t// in\n    tag_119:\n        /* \"#utility.yul\":5299:5438   */\n      swap1\n      pop\n        /* \"#utility.yul\":5197:5445   */\n      swap2\n      swap1\n      pop\n      jump\t// out\n        /* \"#utility.yul\":5451:5870   */\n    tag_36:\n        /* \"#utility.yul\":5617:5621   */\n      0x00\n        /* \"#utility.yul\":5655:5657   */\n      0x20\n        /* \"#utility.yul\":5644:5653   */\n      dup3\n        /* \"#utility.yul\":5640:5658   */\n      add\n        /* \"#utility.yul\":5632:5658   */\n      swap1\n      pop\n        /* \"#utility.yul\":5704:5713   */\n      dup2\n        /* \"#utility.yul\":5698:5702   */\n      dup2\n        /* \"#utility.yul\":5694:5714   */\n      sub\n        /* \"#utility.yul\":5690:5691   */\n      0x00\n        /* \"#utility.yul\":5679:5688   */\n      dup4\n        /* \"#utility.yul\":5675:5692   */\n      add\n        /* \"#utility.yul\":5668:5715   */\n      mstore\n        /* \"#utility.yul\":5732:5863   */\n      tag_121\n        /* \"#utility.yul\":5858:5862   */\n      dup2\n        /* \"#utility.yul\":5732:5863   */\n      tag_95\n      jump\t// in\n    tag_121:\n        /* \"#utility.yul\":5724:5863   */\n      swap1\n      pop\n        /* \"#utility.yul\":5622:5870   */\n      swap2\n      swap1\n      pop\n      jump\t// out\n        /* \"#utility.yul\":5876:6098   */\n    tag_18:\n        /* \"#utility.yul\":5969:5973   */\n      0x00\n        /* \"#utility.yul\":6007:6009   */\n      0x20\n        /* \"#utility.yul\":5996:6005   */\n      dup3\n        /* \"#utility.yul\":5992:6010   */\n      add\n        /* \"#utility.yul\":5984:6010   */\n      swap1\n      pop\n        /* \"#utility.yul\":6020:6091   */\n      tag_123\n        /* \"#utility.yul\":6088:6089   */\n      0x00\n        /* \"#utility.yul\":6077:6086   */\n      dup4\n        /* \"#utility.yul\":6073:6090   */\n      add\n        /* \"#utility.yul\":6064:6070   */\n      dup5\n        /* \"#utility.yul\":6020:6091   */\n      tag_106\n      jump\t// in\n    tag_123:\n        /* \"#utility.yul\":5974:6098   */\n      swap3\n      swap2\n      pop\n      pop\n      jump\t// out\n        /* \"#utility.yul\":6104:6251   */\n    tag_103:\n        /* \"#utility.yul\":6205:6216   */\n      0x00\n        /* \"#utility.yul\":6242:6245   */\n      dup2\n        /* \"#utility.yul\":6227:6245   */\n      swap1\n      pop\n        /* \"#utility.yul\":6217:6251   */\n      swap3\n      swap2\n      pop\n      pop\n      jump\t// out\n        /* \"#utility.yul\":6257:6426   */\n    tag_77:\n        /* \"#utility.yul\":6341:6352   */\n      0x00\n        /* \"#utility.yul\":6375:6381   */\n      dup3\n        /* \"#utility.yul\":6370:6373   */\n      dup3\n        /* \"#utility.yul\":6363:6382   */\n      mstore\n        /* \"#utility.yul\":6415:6419   */\n      0x20\n        /* \"#utility.yul\":6410:6413   */\n      dup3\n        /* \"#utility.yul\":6406:6420   */\n      add\n        /* \"#utility.yul\":6391:6420   */\n      swap1\n      pop\n        /* \"#utility.yul\":6353:6426   */\n      swap3\n      swap2\n      pop\n      pop\n      jump\t// out\n        /* \"#utility.yul\":6432:6737   */\n    tag_56:\n        /* \"#utility.yul\":6472:6475   */\n      0x00\n        /* \"#utility.yul\":6491:6511   */\n      tag_127\n        /* \"#utility.yul\":6509:6510   */\n      dup3\n        /* \"#utility.yul\":6491:6511   */\n      tag_109\n      jump\t// in\n    tag_127:\n        /* \"#utility.yul\":6486:6511   */\n      swap2\n      pop\n        /* \"#utility.yul\":6525:6545   */\n      tag_128\n        /* \"#utility.yul\":6543:6544   */\n      dup4\n        /* \"#utility.yul\":6525:6545   */\n      tag_109\n      jump\t// in\n    tag_128:\n        /* \"#utility.yul\":6520:6545   */\n      swap3\n      pop\n        /* \"#utility.yul\":6679:6680   */\n      dup3\n        /* \"#utility.yul\":6611:6677   */\n      0xffffffffffffffffffffffffffffffffffffffffffffffffffffffffffffffff\n        /* \"#utility.yul\":6607:6681   */\n      sub\n        /* \"#utility.yul\":6604:6605   */\n      dup3\n        /* \"#utility.yul\":6601:6682   */\n      gt\n        /* \"#utility.yul\":6598:6600   */\n      iszero\n      tag_129\n      jumpi\n        /* \"#utility.yul\":6685:6703   */\n      tag_130\n      tag_131\n      jump\t// in\n    tag_130:\n        /* \"#utility.yul\":6598:6600   */\n    tag_129:\n        /* \"#utility.yul\":6729:6730   */\n      dup3\n        /* \"#utility.yul\":6726:6727   */\n      dup3\n        /* \"#utility.yul\":6722:6731   */\n      add\n        /* \"#utility.yul\":6715:6731   */\n      swap1\n      pop\n        /* \"#utility.yul\":6476:6737   */\n      swap3\n      swap2\n      pop\n      pop\n      jump\t// out\n        /* \"#utility.yul\":6743:6934   */\n    tag_41:\n        /* \"#utility.yul\":6783:6787   */\n      0x00\n        /* \"#utility.yul\":6803:6823   */\n      tag_133\n        /* \"#utility.yul\":6821:6822   */\n      dup3\n        /* \"#utility.yul\":6803:6823   */\n      tag_109\n      jump\t// in\n    tag_133:\n        /* \"#utility.yul\":6798:6823   */\n      swap2\n      pop\n        /* \"#utility.yul\":6837:6857   */\n      tag_134\n        /* \"#utility.yul\":6855:6856   */\n      dup4\n        /* \"#utility.yul\":6837:6857   */\n      tag_109\n      jump\t// in\n    tag_134:\n        /* \"#utility.yul\":6832:6857   */\n      swap3\n      pop\n        /* \"#utility.yul\":6876:6877   */\n      dup3\n        /* \"#utility.yul\":6873:6874   */\n      dup3\n        /* \"#utility.yul\":6870:6878   */\n      lt\n        /* \"#utility.yul\":6867:6869   */\n      iszero\n      tag_135\n      jumpi\n        /* \"#utility.yul\":6881:6899   */\n      tag_136\n      tag_131\n      jump\t// in\n    tag_136:\n        /* \"#utility.yul\":6867:6869   */\n    tag_135:\n        /* \"#utility.yul\":6926:6927   */\n      dup3\n        /* \"#utility.yul\":6923:6924   */\n      dup3\n        /* \"#utility.yul\":6919:6928   */\n      sub\n        /* \"#utility.yul\":6911:6928   */\n      swap1\n      pop\n        /* \"#utility.yul\":6788:6934   */\n      swap3\n      swap2\n      pop\n      pop\n      jump\t// out\n        /* \"#utility.yul\":6940:7036   */\n    tag_137:\n        /* \"#utility.yul\":6977:6984   */\n      0x00\n        /* \"#utility.yul\":7006:7030   */\n      tag_139\n        /* \"#utility.yul\":7024:7029   */\n      dup3\n        /* \"#utility.yul\":7006:7030   */\n      tag_140\n      jump\t// in\n    tag_139:\n        /* \"#utility.yul\":6995:7030   */\n      swap1\n      pop\n        /* \"#utility.yul\":6985:7036   */\n      swap2\n      swap1\n      pop\n      jump\t// out\n        /* \"#utility.yul\":7042:7168   */\n    tag_140:\n        /* \"#utility.yul\":7079:7086   */\n      0x00\n        /* \"#utility.yul\":7119:7161   */\n      0xffffffffffffffffffffffffffffffffffffffff\n        /* \"#utility.yul\":7112:7117   */\n      dup3\n        /* \"#utility.yul\":7108:7162   */\n      and\n        /* \"#utility.yul\":7097:7162   */\n      swap1\n      pop\n        /* \"#utility.yul\":7087:7168   */\n      swap2\n      swap1\n      pop\n      jump\t// out\n        /* \"#utility.yul\":7174:7251   */\n    tag_109:\n        /* \"#utility.yul\":7211:7218   */\n      0x00\n        /* \"#utility.yul\":7240:7245   */\n      dup2\n        /* \"#utility.yul\":7229:7245   */\n      swap1\n      pop\n        /* \"#utility.yul\":7219:7251   */\n      swap2\n      swap1\n      pop\n      jump\t// out\n        /* \"#utility.yul\":7257:7437   */\n    tag_131:\n        /* \"#utility.yul\":7305:7382   */\n      0x4e487b7100000000000000000000000000000000000000000000000000000000\n        /* \"#utility.yul\":7302:7303   */\n      0x00\n        /* \"#utility.yul\":7295:7383   */\n      mstore\n        /* \"#utility.yul\":7402:7406   */\n      0x11\n        /* \"#utility.yul\":7399:7400   */\n      0x04\n        /* \"#utility.yul\":7392:7407   */\n      mstore\n        /* \"#utility.yul\":7426:7430   */\n      0x24\n        /* \"#utility.yul\":7423:7424   */\n      0x00\n        /* \"#utility.yul\":7416:7431   */\n      revert\n        /* \"#utility.yul\":7443:7609   */\n    tag_79:\n        /* \"#utility.yul\":7583:7601   */\n      0x476167616c20746172696b2064616e6100000000000000000000000000000000\n        /* \"#utility.yul\":7579:7580   */\n      0x00\n        /* \"#utility.yul\":7571:7577   */\n      dup3\n        /* \"#utility.yul\":7567:7581   */\n      add\n        /* \"#utility.yul\":7560:7602   */\n      mstore\n        /* \"#utility.yul\":7549:7609   */\n      pop\n      jump\t// out\n        /* \"#utility.yul\":7615:7790   */\n    tag_84:\n        /* \"#utility.yul\":7755:7782   */\n      0x4a756d6c6168206861727573206c656269682064617269203000000000000000\n        /* \"#utility.yul\":7751:7752   */\n      0x00\n        /* \"#utility.yul\":7743:7749   */\n      dup3\n        /* \"#utility.yul\":7739:7753   */\n      add\n        /* \"#utility.yul\":7732:7783   */\n      mstore\n        /* \"#utility.yul\":7721:7790   */\n      pop\n      jump\t// out\n        /* \"#utility.yul\":7796:7958   */\n    tag_89:\n        /* \"#utility.yul\":7936:7950   */\n      0x4d656e676972696d204554480000000000000000000000000000000000000000\n        /* \"#utility.yul\":7932:7933   */\n      0x00\n        /* \"#utility.yul\":7924:7930   */\n      dup3\n        /* \"#utility.yul\":7920:7934   */\n      add\n        /* \"#utility.yul\":7913:7951   */\n      mstore\n        /* \"#utility.yul\":7902:7958   */\n      pop\n      jump\t// out\n        /* \"#utility.yul\":7964:8139   */\n    tag_94:\n        /* \"#utility.yul\":8104:8131   */\n      0x416c616d61742074756a75616e20746964616b2076616c696400000000000000\n        /* \"#utility.yul\":8100:8101   */\n      0x00\n        /* \"#utility.yul\":8092:8098   */\n      dup3\n        /* \"#utility.yul\":8088:8102   */\n      add\n        /* \"#utility.yul\":8081:8132   */\n      mstore\n        /* \"#utility.yul\":8070:8139   */\n      pop\n      jump\t// out\n        /* \"#utility.yul\":8145:8312   */\n    tag_99:\n        /* \"#utility.yul\":8285:8304   */\n      0x53616c646f20746964616b2063756b7570000000000000000000000000000000\n        /* \"#utility.yul\":8281:8282   */\n      0x00\n        /* \"#utility.yul\":8273:8279   */\n      dup3\n        /* \"#utility.yul\":8269:8283   */\n      add\n        /* \"#utility.yul\":8262:8305   */\n      mstore\n        /* \"#utility.yul\":8251:8312   */\n      pop\n      jump\t// out\n        /* \"#utility.yul\":8318:8432   */\n    tag_105:\n        /* \"#utility.yul\":8424:8432   */\n      pop\n      jump\t// out\n        /* \"#utility.yul\":8438:8560   */\n    tag_62:\n        /* \"#utility.yul\":8511:8535   */\n      tag_151\n        /* \"#utility.yul\":8529:8534   */\n      dup2\n        /* \"#utility.yul\":8511:8535   */\n      tag_137\n      jump\t// in\n    tag_151:\n        /* \"#utility.yul\":8504:8509   */\n      dup2\n        /* \"#utility.yul\":8501:8536   */\n      eq\n        /* \"#utility.yul\":8491:8493   */\n      tag_152\n      jumpi\n        /* \"#utility.yul\":8550:8551   */\n      0x00\n        /* \"#utility.yul\":8547:8548   */\n      dup1\n        /* \"#utility.yul\":8540:8552   */\n      revert\n        /* \"#utility.yul\":8491:8493   */\n    tag_152:\n        /* \"#utility.yul\":8481:8560   */\n      pop\n      jump\t// out\n        /* \"#utility.yul\":8566:8688   */\n    tag_66:\n        /* \"#utility.yul\":8639:8663   */\n      tag_154\n        /* \"#utility.yul\":8657:8662   */\n      dup2\n        /* \"#utility.yul\":8639:8663   */\n      tag_109\n      jump\t// in\n    tag_154:\n        /* \"#utility.yul\":8632:8637   */\n      dup2\n        /* \"#utility.yul\":8629:8664   */\n      eq\n        /* \"#utility.yul\":8619:8621   */\n      tag_155\n      jumpi\n        /* \"#utility.yul\":8678:8679   */\n      0x00\n        /* \"#utility.yul\":8675:8676   */\n      dup1\n        /* \"#utility.yul\":8668:8680   */\n      revert\n        /* \"#utility.yul\":8619:8621   */\n    tag_155:\n        /* \"#utility.yul\":8609:8688   */\n      pop\n      jump\t// out\n\n    auxdata: 0xa2646970667358221220e34f9d59006c458a71535c4ed89428f47b3579530a7844d7ced580f2f9211e5764736f6c63430008040033\n}\n",
				"bytecode": {
					"linkReferences": {},
					"object": "608060405234801561001057600080fd5b50610926806100206000396000f3fe60806040526004361061004a5760003560e01c8063205c28781461004f57806327e235e314610078578063c9116b69146100b5578063d0e30db0146100e0578063f8b2cb4f146100ea575b600080fd5b34801561005b57600080fd5b50610076600480360381019061007191906104f4565b610127565b005b34801561008457600080fd5b5061009f600480360381019061009a91906104cb565b610361565b6040516100ac91906106c6565b60405180910390f35b3480156100c157600080fd5b506100ca610379565b6040516100d791906106c6565b60405180910390f35b6100e86103bf565b005b3480156100f657600080fd5b50610111600480360381019061010c91906104cb565b610459565b60405161011e91906106c6565b60405180910390f35b6000811161016a576040517f08c379a000000000000000000000000000000000000000000000000000000000815260040161016190610646565b60405180910390fd5b806000803373ffffffffffffffffffffffffffffffffffffffff1673ffffffffffffffffffffffffffffffffffffffff1681526020019081526020016000205410156101eb576040517f08c379a00000000000000000000000000000000000000000000000000000000081526004016101e2906106a6565b60405180910390fd5b600073ffffffffffffffffffffffffffffffffffffffff168273ffffffffffffffffffffffffffffffffffffffff16141561025b576040517f08c379a000000000000000000000000000000000000000000000000000000000815260040161025290610686565b60405180910390fd5b806000803373ffffffffffffffffffffffffffffffffffffffff1673ffffffffffffffffffffffffffffffffffffffff16815260200190815260200160002060008282546102a99190610753565b9250508190555060008273ffffffffffffffffffffffffffffffffffffffff16826040516102d690610611565b60006040518083038185875af1925050503d8060008114610313576040519150601f19603f3d011682016040523d82523d6000602084013e610318565b606091505b505090508061035c576040517f08c379a000000000000000000000000000000000000000000000000000000000815260040161035390610626565b60405180910390fd5b505050565b60006020528060005260406000206000915090505481565b60008060003373ffffffffffffffffffffffffffffffffffffffff1673ffffffffffffffffffffffffffffffffffffffff16815260200190815260200160002054905090565b60003411610402576040517f08c379a00000000000000000000000000000000000000000000000000000000081526004016103f990610666565b60405180910390fd5b346000803373ffffffffffffffffffffffffffffffffffffffff1673ffffffffffffffffffffffffffffffffffffffff168152602001908152602001600020600082825461045091906106fd565b92505081905550565b60008060008373ffffffffffffffffffffffffffffffffffffffff1673ffffffffffffffffffffffffffffffffffffffff168152602001908152602001600020549050919050565b6000813590506104b0816108c2565b92915050565b6000813590506104c5816108d9565b92915050565b6000602082840312156104dd57600080fd5b60006104eb848285016104a1565b91505092915050565b6000806040838503121561050757600080fd5b6000610515858286016104a1565b9250506020610526858286016104b6565b9150509250929050565b600061053d6010836106ec565b9150610548826107f2565b602082019050919050565b60006105606019836106ec565b915061056b8261081b565b602082019050919050565b6000610583600c836106ec565b915061058e82610844565b602082019050919050565b60006105a66019836106ec565b91506105b18261086d565b602082019050919050565b60006105c96011836106ec565b91506105d482610896565b602082019050919050565b60006105ec6000836106e1565b91506105f7826108bf565b600082019050919050565b61060b816107b9565b82525050565b600061061c826105df565b9150819050919050565b6000602082019050818103600083015261063f81610530565b9050919050565b6000602082019050818103600083015261065f81610553565b9050919050565b6000602082019050818103600083015261067f81610576565b9050919050565b6000602082019050818103600083015261069f81610599565b9050919050565b600060208201905081810360008301526106bf816105bc565b9050919050565b60006020820190506106db6000830184610602565b92915050565b600081905092915050565b600082825260208201905092915050565b6000610708826107b9565b9150610713836107b9565b9250827fffffffffffffffffffffffffffffffffffffffffffffffffffffffffffffffff03821115610748576107476107c3565b5b828201905092915050565b600061075e826107b9565b9150610769836107b9565b92508282101561077c5761077b6107c3565b5b828203905092915050565b600061079282610799565b9050919050565b600073ffffffffffffffffffffffffffffffffffffffff82169050919050565b6000819050919050565b7f4e487b7100000000000000000000000000000000000000000000000000000000600052601160045260246000fd5b7f476167616c20746172696b2064616e6100000000000000000000000000000000600082015250565b7f4a756d6c6168206861727573206c656269682064617269203000000000000000600082015250565b7f4d656e676972696d204554480000000000000000000000000000000000000000600082015250565b7f416c616d61742074756a75616e20746964616b2076616c696400000000000000600082015250565b7f53616c646f20746964616b2063756b7570000000000000000000000000000000600082015250565b50565b6108cb81610787565b81146108d657600080fd5b50565b6108e2816107b9565b81146108ed57600080fd5b5056fea2646970667358221220e34f9d59006c458a71535c4ed89428f47b3579530a7844d7ced580f2f9211e5764736f6c63430008040033",
					"opcodes": "PUSH1 0x80 PUSH1 0x40 MSTORE CALLVALUE DUP1 ISZERO PUSH2 0x10 JUMPI PUSH1 0x0 DUP1 REVERT JUMPDEST POP PUSH2 0x926 DUP1 PUSH2 0x20 PUSH1 0x0 CODECOPY PUSH1 0x0 RETURN INVALID PUSH1 0x80 PUSH1 0x40 MSTORE PUSH1 0x4 CALLDATASIZE LT PUSH2 0x4A JUMPI PUSH1 0x0 CALLDATALOAD PUSH1 0xE0 SHR DUP1 PUSH4 0x205C2878 EQ PUSH2 0x4F JUMPI DUP1 PUSH4 0x27E235E3 EQ PUSH2 0x78 JUMPI DUP1 PUSH4 0xC9116B69 EQ PUSH2 0xB5 JUMPI DUP1 PUSH4 0xD0E30DB0 EQ PUSH2 0xE0 JUMPI DUP1 PUSH4 0xF8B2CB4F EQ PUSH2 0xEA JUMPI JUMPDEST PUSH1 0x0 DUP1 REVERT JUMPDEST CALLVALUE DUP1 ISZERO PUSH2 0x5B JUMPI PUSH1 0x0 DUP1 REVERT JUMPDEST POP PUSH2 0x76 PUSH1 0x4 DUP1 CALLDATASIZE SUB DUP2 ADD SWAP1 PUSH2 0x71 SWAP2 SWAP1 PUSH2 0x4F4 JUMP JUMPDEST PUSH2 0x127 JUMP JUMPDEST STOP JUMPDEST CALLVALUE DUP1 ISZERO PUSH2 0x84 JUMPI PUSH1 0x0 DUP1 REVERT JUMPDEST POP PUSH2 0x9F PUSH1 0x4 DUP1 CALLDATASIZE SUB DUP2 ADD SWAP1 PUSH2 0x9A SWAP2 SWAP1 PUSH2 0x4CB JUMP JUMPDEST PUSH2 0x361 JUMP JUMPDEST PUSH1 0x40 MLOAD PUSH2 0xAC SWAP2 SWAP1 PUSH2 0x6C6 JUMP JUMPDEST PUSH1 0x40 MLOAD DUP1 SWAP2 SUB SWAP1 RETURN JUMPDEST CALLVALUE DUP1 ISZERO PUSH2 0xC1 JUMPI PUSH1 0x0 DUP1 REVERT JUMPDEST POP PUSH2 0xCA PUSH2 0x379 JUMP JUMPDEST PUSH1 0x40 MLOAD PUSH2 0xD7 SWAP2 SWAP1 PUSH2 0x6C6 JUMP JUMPDEST PUSH1 0x40 MLOAD DUP1 SWAP2 SUB SWAP1 RETURN JUMPDEST PUSH2 0xE8 PUSH2 0x3BF JUMP JUMPDEST STOP JUMPDEST CALLVALUE DUP1 ISZERO PUSH2 0xF6 JUMPI PUSH1 0x0 DUP1 REVERT JUMPDEST POP PUSH2 0x111 PUSH1 0x4 DUP1 CALLDATASIZE SUB DUP2 ADD SWAP1 PUSH2 0x10C SWAP2 SWAP1 PUSH2 0x4CB JUMP JUMPDEST PUSH2 0x459 JUMP JUMPDEST PUSH1 0x40 MLOAD PUSH2 0x11E SWAP2 SWAP1 PUSH2 0x6C6 JUMP JUMPDEST PUSH1 0x40 MLOAD DUP1 SWAP2 SUB SWAP1 RETURN JUMPDEST PUSH1 0x0 DUP2 GT PUSH2 0x16A JUMPI PUSH1 0x40 MLOAD PUSH32 0x8C379A000000000000000000000000000000000000000000000000000000000 DUP2 MSTORE PUSH1 0x4 ADD PUSH2 0x161 SWAP1 PUSH2 0x646 JUMP JUMPDEST PUSH1 0x40 MLOAD DUP1 SWAP2 SUB SWAP1 REVERT JUMPDEST DUP1 PUSH1 0x0 DUP1 CALLER PUSH20 0xFFFFFFFFFFFFFFFFFFFFFFFFFFFFFFFFFFFFFFFF AND PUSH20 0xFFFFFFFFFFFFFFFFFFFFFFFFFFFFFFFFFFFFFFFF AND DUP2 MSTORE PUSH1 0x20 ADD SWAP1 DUP2 MSTORE PUSH1 0x20 ADD PUSH1 0x0 KECCAK256 SLOAD LT ISZERO PUSH2 0x1EB JUMPI PUSH1 0x40 MLOAD PUSH32 0x8C379A000000000000000000000000000000000000000000000000000000000 DUP2 MSTORE PUSH1 0x4 ADD PUSH2 0x1E2 SWAP1 PUSH2 0x6A6 JUMP JUMPDEST PUSH1 0x40 MLOAD DUP1 SWAP2 SUB SWAP1 REVERT JUMPDEST PUSH1 0x0 PUSH20 0xFFFFFFFFFFFFFFFFFFFFFFFFFFFFFFFFFFFFFFFF AND DUP3 PUSH20 0xFFFFFFFFFFFFFFFFFFFFFFFFFFFFFFFFFFFFFFFF AND EQ ISZERO PUSH2 0x25B JUMPI PUSH1 0x40 MLOAD PUSH32 0x8C379A000000000000000000000000000000000000000000000000000000000 DUP2 MSTORE PUSH1 0x4 ADD PUSH2 0x252 SWAP1 PUSH2 0x686 JUMP JUMPDEST PUSH1 0x40 MLOAD DUP1 SWAP2 SUB SWAP1 REVERT JUMPDEST DUP1 PUSH1 0x0 DUP1 CALLER PUSH20 0xFFFFFFFFFFFFFFFFFFFFFFFFFFFFFFFFFFFFFFFF AND PUSH20 0xFFFFFFFFFFFFFFFFFFFFFFFFFFFFFFFFFFFFFFFF AND DUP2 MSTORE PUSH1 0x20 ADD SWAP1 DUP2 MSTORE PUSH1 0x20 ADD PUSH1 0x0 KECCAK256 PUSH1 0x0 DUP3 DUP3 SLOAD PUSH2 0x2A9 SWAP2 SWAP1 PUSH2 0x753 JUMP JUMPDEST SWAP3 POP POP DUP2 SWAP1 SSTORE POP PUSH1 0x0 DUP3 PUSH20 0xFFFFFFFFFFFFFFFFFFFFFFFFFFFFFFFFFFFFFFFF AND DUP3 PUSH1 0x40 MLOAD PUSH2 0x2D6 SWAP1 PUSH2 0x611 JUMP JUMPDEST PUSH1 0x0 PUSH1 0x40 MLOAD DUP1 DUP4 SUB DUP2 DUP6 DUP8 GAS CALL SWAP3 POP POP POP RETURNDATASIZE DUP1 PUSH1 0x0 DUP2 EQ PUSH2 0x313 JUMPI PUSH1 0x40 MLOAD SWAP2 POP PUSH1 0x1F NOT PUSH1 0x3F RETURNDATASIZE ADD AND DUP3 ADD PUSH1 0x40 MSTORE RETURNDATASIZE DUP3 MSTORE RETURNDATASIZE PUSH1 0x0 PUSH1 0x20 DUP5 ADD RETURNDATACOPY PUSH2 0x318 JUMP JUMPDEST PUSH1 0x60 SWAP2 POP JUMPDEST POP POP SWAP1 POP DUP1 PUSH2 0x35C JUMPI PUSH1 0x40 MLOAD PUSH32 0x8C379A000000000000000000000000000000000000000000000000000000000 DUP2 MSTORE PUSH1 0x4 ADD PUSH2 0x353 SWAP1 PUSH2 0x626 JUMP JUMPDEST PUSH1 0x40 MLOAD DUP1 SWAP2 SUB SWAP1 REVERT JUMPDEST POP POP POP JUMP JUMPDEST PUSH1 0x0 PUSH1 0x20 MSTORE DUP1 PUSH1 0x0 MSTORE PUSH1 0x40 PUSH1 0x0 KECCAK256 PUSH1 0x0 SWAP2 POP SWAP1 POP SLOAD DUP2 JUMP JUMPDEST PUSH1 0x0 DUP1 PUSH1 0x0 CALLER PUSH20 0xFFFFFFFFFFFFFFFFFFFFFFFFFFFFFFFFFFFFFFFF AND PUSH20 0xFFFFFFFFFFFFFFFFFFFFFFFFFFFFFFFFFFFFFFFF AND DUP2 MSTORE PUSH1 0x20 ADD SWAP1 DUP2 MSTORE PUSH1 0x20 ADD PUSH1 0x0 KECCAK256 SLOAD SWAP1 POP SWAP1 JUMP JUMPDEST PUSH1 0x0 CALLVALUE GT PUSH2 0x402 JUMPI PUSH1 0x40 MLOAD PUSH32 0x8C379A000000000000000000000000000000000000000000000000000000000 DUP2 MSTORE PUSH1 0x4 ADD PUSH2 0x3F9 SWAP1 PUSH2 0x666 JUMP JUMPDEST PUSH1 0x40 MLOAD DUP1 SWAP2 SUB SWAP1 REVERT JUMPDEST CALLVALUE PUSH1 0x0 DUP1 CALLER PUSH20 0xFFFFFFFFFFFFFFFFFFFFFFFFFFFFFFFFFFFFFFFF AND PUSH20 0xFFFFFFFFFFFFFFFFFFFFFFFFFFFFFFFFFFFFFFFF AND DUP2 MSTORE PUSH1 0x20 ADD SWAP1 DUP2 MSTORE PUSH1 0x20 ADD PUSH1 0x0 KECCAK256 PUSH1 0x0 DUP3 DUP3 SLOAD PUSH2 0x450 SWAP2 SWAP1 PUSH2 0x6FD JUMP JUMPDEST SWAP3 POP POP DUP2 SWAP1 SSTORE POP JUMP JUMPDEST PUSH1 0x0 DUP1 PUSH1 0x0 DUP4 PUSH20 0xFFFFFFFFFFFFFFFFFFFFFFFFFFFFFFFFFFFFFFFF AND PUSH20 0xFFFFFFFFFFFFFFFFFFFFFFFFFFFFFFFFFFFFFFFF AND DUP2 MSTORE PUSH1 0x20 ADD SWAP1 DUP2 MSTORE PUSH1 0x20 ADD PUSH1 0x0 KECCAK256 SLOAD SWAP1 POP SWAP2 SWAP1 POP JUMP JUMPDEST PUSH1 0x0 DUP2 CALLDATALOAD SWAP1 POP PUSH2 0x4B0 DUP2 PUSH2 0x8C2 JUMP JUMPDEST SWAP3 SWAP2 POP POP JUMP JUMPDEST PUSH1 0x0 DUP2 CALLDATALOAD SWAP1 POP PUSH2 0x4C5 DUP2 PUSH2 0x8D9 JUMP JUMPDEST SWAP3 SWAP2 POP POP JUMP JUMPDEST PUSH1 0x0 PUSH1 0x20 DUP3 DUP5 SUB SLT ISZERO PUSH2 0x4DD JUMPI PUSH1 0x0 DUP1 REVERT JUMPDEST PUSH1 0x0 PUSH2 0x4EB DUP5 DUP3 DUP6 ADD PUSH2 0x4A1 JUMP JUMPDEST SWAP2 POP POP SWAP3 SWAP2 POP POP JUMP JUMPDEST PUSH1 0x0 DUP1 PUSH1 0x40 DUP4 DUP6 SUB SLT ISZERO PUSH2 0x507 JUMPI PUSH1 0x0 DUP1 REVERT JUMPDEST PUSH1 0x0 PUSH2 0x515 DUP6 DUP3 DUP7 ADD PUSH2 0x4A1 JUMP JUMPDEST SWAP3 POP POP PUSH1 0x20 PUSH2 0x526 DUP6 DUP3 DUP7 ADD PUSH2 0x4B6 JUMP JUMPDEST SWAP2 POP POP SWAP3 POP SWAP3 SWAP1 POP JUMP JUMPDEST PUSH1 0x0 PUSH2 0x53D PUSH1 0x10 DUP4 PUSH2 0x6EC JUMP JUMPDEST SWAP2 POP PUSH2 0x548 DUP3 PUSH2 0x7F2 JUMP JUMPDEST PUSH1 0x20 DUP3 ADD SWAP1 POP SWAP2 SWAP1 POP JUMP JUMPDEST PUSH1 0x0 PUSH2 0x560 PUSH1 0x19 DUP4 PUSH2 0x6EC JUMP JUMPDEST SWAP2 POP PUSH2 0x56B DUP3 PUSH2 0x81B JUMP JUMPDEST PUSH1 0x20 DUP3 ADD SWAP1 POP SWAP2 SWAP1 POP JUMP JUMPDEST PUSH1 0x0 PUSH2 0x583 PUSH1 0xC DUP4 PUSH2 0x6EC JUMP JUMPDEST SWAP2 POP PUSH2 0x58E DUP3 PUSH2 0x844 JUMP JUMPDEST PUSH1 0x20 DUP3 ADD SWAP1 POP SWAP2 SWAP1 POP JUMP JUMPDEST PUSH1 0x0 PUSH2 0x5A6 PUSH1 0x19 DUP4 PUSH2 0x6EC JUMP JUMPDEST SWAP2 POP PUSH2 0x5B1 DUP3 PUSH2 0x86D JUMP JUMPDEST PUSH1 0x20 DUP3 ADD SWAP1 POP SWAP2 SWAP1 POP JUMP JUMPDEST PUSH1 0x0 PUSH2 0x5C9 PUSH1 0x11 DUP4 PUSH2 0x6EC JUMP JUMPDEST SWAP2 POP PUSH2 0x5D4 DUP3 PUSH2 0x896 JUMP JUMPDEST PUSH1 0x20 DUP3 ADD SWAP1 POP SWAP2 SWAP1 POP JUMP JUMPDEST PUSH1 0x0 PUSH2 0x5EC PUSH1 0x0 DUP4 PUSH2 0x6E1 JUMP JUMPDEST SWAP2 POP PUSH2 0x5F7 DUP3 PUSH2 0x8BF JUMP JUMPDEST PUSH1 0x0 DUP3 ADD SWAP1 POP SWAP2 SWAP1 POP JUMP JUMPDEST PUSH2 0x60B DUP2 PUSH2 0x7B9 JUMP JUMPDEST DUP3 MSTORE POP POP JUMP JUMPDEST PUSH1 0x0 PUSH2 0x61C DUP3 PUSH2 0x5DF JUMP JUMPDEST SWAP2 POP DUP2 SWAP1 POP SWAP2 SWAP1 POP JUMP JUMPDEST PUSH1 0x0 PUSH1 0x20 DUP3 ADD SWAP1 POP DUP2 DUP2 SUB PUSH1 0x0 DUP4 ADD MSTORE PUSH2 0x63F DUP2 PUSH2 0x530 JUMP JUMPDEST SWAP1 POP SWAP2 SWAP1 POP JUMP JUMPDEST PUSH1 0x0 PUSH1 0x20 DUP3 ADD SWAP1 POP DUP2 DUP2 SUB PUSH1 0x0 DUP4 ADD MSTORE PUSH2 0x65F DUP2 PUSH2 0x553 JUMP JUMPDEST SWAP1 POP SWAP2 SWAP1 POP JUMP JUMPDEST PUSH1 0x0 PUSH1 0x20 DUP3 ADD SWAP1 POP DUP2 DUP2 SUB PUSH1 0x0 DUP4 ADD MSTORE PUSH2 0x67F DUP2 PUSH2 0x576 JUMP JUMPDEST SWAP1 POP SWAP2 SWAP1 POP JUMP JUMPDEST PUSH1 0x0 PUSH1 0x20 DUP3 ADD SWAP1 POP DUP2 DUP2 SUB PUSH1 0x0 DUP4 ADD MSTORE PUSH2 0x69F DUP2 PUSH2 0x599 JUMP JUMPDEST SWAP1 POP SWAP2 SWAP1 POP JUMP JUMPDEST PUSH1 0x0 PUSH1 0x20 DUP3 ADD SWAP1 POP DUP2 DUP2 SUB PUSH1 0x0 DUP4 ADD MSTORE PUSH2 0x6BF DUP2 PUSH2 0x5BC JUMP JUMPDEST SWAP1 POP SWAP2 SWAP1 POP JUMP JUMPDEST PUSH1 0x0 PUSH1 0x20 DUP3 ADD SWAP1 POP PUSH2 0x6DB PUSH1 0x0 DUP4 ADD DUP5 PUSH2 0x602 JUMP JUMPDEST SWAP3 SWAP2 POP POP JUMP JUMPDEST PUSH1 0x0 DUP2 SWAP1 POP SWAP3 SWAP2 POP POP JUMP JUMPDEST PUSH1 0x0 DUP3 DUP3 MSTORE PUSH1 0x20 DUP3 ADD SWAP1 POP SWAP3 SWAP2 POP POP JUMP JUMPDEST PUSH1 0x0 PUSH2 0x708 DUP3 PUSH2 0x7B9 JUMP JUMPDEST SWAP2 POP PUSH2 0x713 DUP4 PUSH2 0x7B9 JUMP JUMPDEST SWAP3 POP DUP3 PUSH32 0xFFFFFFFFFFFFFFFFFFFFFFFFFFFFFFFFFFFFFFFFFFFFFFFFFFFFFFFFFFFFFFFF SUB DUP3 GT ISZERO PUSH2 0x748 JUMPI PUSH2 0x747 PUSH2 0x7C3 JUMP JUMPDEST JUMPDEST DUP3 DUP3 ADD SWAP1 POP SWAP3 SWAP2 POP POP JUMP JUMPDEST PUSH1 0x0 PUSH2 0x75E DUP3 PUSH2 0x7B9 JUMP JUMPDEST SWAP2 POP PUSH2 0x769 DUP4 PUSH2 0x7B9 JUMP JUMPDEST SWAP3 POP DUP3 DUP3 LT ISZERO PUSH2 0x77C JUMPI PUSH2 0x77B PUSH2 0x7C3 JUMP JUMPDEST JUMPDEST DUP3 DUP3 SUB SWAP1 POP SWAP3 SWAP2 POP POP JUMP JUMPDEST PUSH1 0x0 PUSH2 0x792 DUP3 PUSH2 0x799 JUMP JUMPDEST SWAP1 POP SWAP2 SWAP1 POP JUMP JUMPDEST PUSH1 0x0 PUSH20 0xFFFFFFFFFFFFFFFFFFFFFFFFFFFFFFFFFFFFFFFF DUP3 AND SWAP1 POP SWAP2 SWAP1 POP JUMP JUMPDEST PUSH1 0x0 DUP2 SWAP1 POP SWAP2 SWAP1 POP JUMP JUMPDEST PUSH32 0x4E487B7100000000000000000000000000000000000000000000000000000000 PUSH1 0x0 MSTORE PUSH1 0x11 PUSH1 0x4 MSTORE PUSH1 0x24 PUSH1 0x0 REVERT JUMPDEST PUSH32 0x476167616C20746172696B2064616E6100000000000000000000000000000000 PUSH1 0x0 DUP3 ADD MSTORE POP JUMP JUMPDEST PUSH32 0x4A756D6C6168206861727573206C656269682064617269203000000000000000 PUSH1 0x0 DUP3 ADD MSTORE POP JUMP JUMPDEST PUSH32 0x4D656E676972696D204554480000000000000000000000000000000000000000 PUSH1 0x0 DUP3 ADD MSTORE POP JUMP JUMPDEST PUSH32 0x416C616D61742074756A75616E20746964616B2076616C696400000000000000 PUSH1 0x0 DUP3 ADD MSTORE POP JUMP JUMPDEST PUSH32 0x53616C646F20746964616B2063756B7570000000000000000000000000000000 PUSH1 0x0 DUP3 ADD MSTORE POP JUMP JUMPDEST POP JUMP JUMPDEST PUSH2 0x8CB DUP2 PUSH2 0x787 JUMP JUMPDEST DUP2 EQ PUSH2 0x8D6 JUMPI PUSH1 0x0 DUP1 REVERT JUMPDEST POP JUMP JUMPDEST PUSH2 0x8E2 DUP2 PUSH2 0x7B9 JUMP JUMPDEST DUP2 EQ PUSH2 0x8ED JUMPI PUSH1 0x0 DUP1 REVERT JUMPDEST POP JUMP INVALID LOG2 PUSH5 0x6970667358 0x22 SLT KECCAK256 0xE3 0x4F SWAP14 MSIZE STOP PUSH13 0x458A71535C4ED89428F47B3579 MSTORE8 EXP PUSH25 0x44D7CED580F2F9211E5764736F6C6343000804003300000000 "
				},
				"gasEstimates": {
					"creation": {
						"codeDepositCost": "468400",
						"executionCost": "505",
						"totalCost": "468905"
					},
					"external": {
						"balances(address)": "1514",
						"deposit()": "infinite",
						"getBalance(address)": "1607",
						"myBalance()": "1248",
						"withdrawTo(address,uint256)": "infinite"
					}
				},
				"methodIdentifiers": {
					"balances(address)": "27e235e3",
					"deposit()": "d0e30db0",
					"getBalance(address)": "f8b2cb4f",
					"myBalance()": "c9116b69",
					"withdrawTo(address,uint256)": "205c2878"
				}
			},
			"storageLayout": {
				"storage": [
					{
						"astId": 5,
						"contract": "contracts/Address.sol:Address",
						"label": "balances",
						"offset": 0,
						"slot": "0",
						"type": "t_mapping(t_address,t_uint256)"
					}
				],
				"types": {
					"t_address": {
						"encoding": "inplace",
						"label": "address",
						"numberOfBytes": "20"
					},
					"t_mapping(t_address,t_uint256)": {
						"encoding": "mapping",
						"key": "t_address",
						"label": "mapping(address => uint256)",
						"numberOfBytes": "32",
						"value": "t_uint256"
					},
					"t_uint256": {
						"encoding": "inplace",
						"label": "uint256",
						"numberOfBytes": "32"
					}
				}
			},
			"userdoc": {
				"kind": "user",
				"methods": {},
				"version": 1
			}
		}
	}
}