{
	"contracts/VariableTypes.sol": {
		"Variable": {
			"abi": [
				{
					"inputs": [
						{
							"internalType": "uint256",
							"name": "num1",
							"type": "uint256"
						},
						{
							"internalType": "uint256",
							"name": "num2",
							"type": "uint256"
						}
					],
					"name": "sum",
					"outputs": [],
					"stateMutability": "nonpayable",
					"type": "function"
				},
				{
					"inputs": [],
					"name": "sumView",
					"outputs": [
						{
							"internalType": "uint256",
							"name": "",
							"type": "uint256"
						}
					],
					"stateMutability": "view",
					"type": "function"
				}
			],
			"devdoc": {
				"kind": "dev",
				"methods": {},
				"version": 1
			},
			"evm": {
				"assembly": "    /* \"contracts/VariableTypes.sol\":69:332  contract Variable {\r... */\n  mstore(0x40, 0x80)\n  callvalue\n  dup1\n  iszero\n  tag_1\n  jumpi\n  0x00\n  dup1\n  revert\ntag_1:\n  pop\n  dataSize(sub_0)\n  dup1\n  dataOffset(sub_0)\n  0x00\n  codecopy\n  0x00\n  return\nstop\n\nsub_0: assembly {\n        /* \"contracts/VariableTypes.sol\":69:332  contract Variable {\r... */\n      mstore(0x40, 0x80)\n      callvalue\n      dup1\n      iszero\n      tag_1\n      jumpi\n      0x00\n      dup1\n      revert\n    tag_1:\n      pop\n      jumpi(tag_2, lt(calldatasize, 0x04))\n      shr(0xe0, calldataload(0x00))\n      dup1\n      0xb89e77c9\n      eq\n      tag_3\n      jumpi\n      dup1\n      0xcad0899b\n      eq\n      tag_4\n      jumpi\n    tag_2:\n      0x00\n      dup1\n      revert\n        /* \"contracts/VariableTypes.sol\":250:329  function sumView() public view returns (uint)  {\r... */\n    tag_3:\n      tag_5\n      tag_6\n      jump\t// in\n    tag_5:\n      mload(0x40)\n      dup1\n      dup3\n      dup2\n      mstore\n      0x20\n      add\n      swap2\n      pop\n      pop\n      mload(0x40)\n      dup1\n      swap2\n      sub\n      swap1\n      return\n        /* \"contracts/VariableTypes.sol\":136:242  function sum(uint num1,uint num2) public  {\r... */\n    tag_4:\n      tag_7\n      0x04\n      dup1\n      calldatasize\n      sub\n      0x40\n      dup2\n      lt\n      iszero\n      tag_8\n      jumpi\n      0x00\n      dup1\n      revert\n    tag_8:\n      dup2\n      add\n      swap1\n      dup1\n      dup1\n      calldataload\n      swap1\n      0x20\n      add\n      swap1\n      swap3\n      swap2\n      swap1\n      dup1\n      calldataload\n      swap1\n      0x20\n      add\n      swap1\n      swap3\n      swap2\n      swap1\n      pop\n      pop\n      pop\n      tag_9\n      jump\t// in\n    tag_7:\n      stop\n        /* \"contracts/VariableTypes.sol\":250:329  function sumView() public view returns (uint)  {\r... */\n    tag_6:\n        /* \"contracts/VariableTypes.sol\":290:294  uint */\n      0x00\n        /* \"contracts/VariableTypes.sol\":315:321  sumVar */\n      dup1\n      sload\n        /* \"contracts/VariableTypes.sol\":308:321  return sumVar */\n      swap1\n      pop\n        /* \"contracts/VariableTypes.sol\":250:329  function sumView() public view returns (uint)  {\r... */\n      swap1\n      jump\t// out\n        /* \"contracts/VariableTypes.sol\":136:242  function sum(uint num1,uint num2) public  {\r... */\n    tag_9:\n        /* \"contracts/VariableTypes.sol\":189:200  uint sumTot */\n      0x00\n        /* \"contracts/VariableTypes.sol\":206:210  num2 */\n      dup2\n        /* \"contracts/VariableTypes.sol\":201:205  num1 */\n      dup4\n        /* \"contracts/VariableTypes.sol\":201:210  num1+num2 */\n      add\n        /* \"contracts/VariableTypes.sol\":189:210  uint sumTot=num1+num2 */\n      swap1\n      pop\n        /* \"contracts/VariableTypes.sol\":228:234  sumTot */\n      dup1\n        /* \"contracts/VariableTypes.sol\":221:227  sumVar */\n      0x00\n        /* \"contracts/VariableTypes.sol\":221:234  sumVar=sumTot */\n      dup2\n      swap1\n      sstore\n      pop\n        /* \"contracts/VariableTypes.sol\":136:242  function sum(uint num1,uint num2) public  {\r... */\n      pop\n      pop\n      pop\n      jump\t// out\n\n    auxdata: 0xa26469706673582212204d363d6a128b0861bc94b67fefe3171f9b56654681674a8c4354dda0fef30f2c64736f6c63430007060033\n}\n",
				"bytecode": {
					"linkReferences": {},
					"object": "608060405234801561001057600080fd5b5060da8061001f6000396000f3fe6080604052348015600f57600080fd5b506004361060325760003560e01c8063b89e77c9146037578063cad0899b146053575b600080fd5b603d6088565b6040518082815260200191505060405180910390f35b608660048036036040811015606757600080fd5b8101908080359060200190929190803590602001909291905050506091565b005b60008054905090565b600081830190508060008190555050505056fea26469706673582212204d363d6a128b0861bc94b67fefe3171f9b56654681674a8c4354dda0fef30f2c64736f6c63430007060033",
					"opcodes": "PUSH1 0x80 PUSH1 0x40 MSTORE CALLVALUE DUP1 ISZERO PUSH2 0x10 JUMPI PUSH1 0x0 DUP1 REVERT JUMPDEST POP PUSH1 0xDA DUP1 PUSH2 0x1F PUSH1 0x0 CODECOPY PUSH1 0x0 RETURN INVALID PUSH1 0x80 PUSH1 0x40 MSTORE CALLVALUE DUP1 ISZERO PUSH1 0xF JUMPI PUSH1 0x0 DUP1 REVERT JUMPDEST POP PUSH1 0x4 CALLDATASIZE LT PUSH1 0x32 JUMPI PUSH1 0x0 CALLDATALOAD PUSH1 0xE0 SHR DUP1 PUSH4 0xB89E77C9 EQ PUSH1 0x37 JUMPI DUP1 PUSH4 0xCAD0899B EQ PUSH1 0x53 JUMPI JUMPDEST PUSH1 0x0 DUP1 REVERT JUMPDEST PUSH1 0x3D PUSH1 0x88 JUMP JUMPDEST PUSH1 0x40 MLOAD DUP1 DUP3 DUP2 MSTORE PUSH1 0x20 ADD SWAP2 POP POP PUSH1 0x40 MLOAD DUP1 SWAP2 SUB SWAP1 RETURN JUMPDEST PUSH1 0x86 PUSH1 0x4 DUP1 CALLDATASIZE SUB PUSH1 0x40 DUP2 LT ISZERO PUSH1 0x67 JUMPI PUSH1 0x0 DUP1 REVERT JUMPDEST DUP2 ADD SWAP1 DUP1 DUP1 CALLDATALOAD SWAP1 PUSH1 0x20 ADD SWAP1 SWAP3 SWAP2 SWAP1 DUP1 CALLDATALOAD SWAP1 PUSH1 0x20 ADD SWAP1 SWAP3 SWAP2 SWAP1 POP POP POP PUSH1 0x91 JUMP JUMPDEST STOP JUMPDEST PUSH1 0x0 DUP1 SLOAD SWAP1 POP SWAP1 JUMP JUMPDEST PUSH1 0x0 DUP2 DUP4 ADD SWAP1 POP DUP1 PUSH1 0x0 DUP2 SWAP1 SSTORE POP POP POP POP JUMP INVALID LOG2 PUSH5 0x6970667358 0x22 SLT KECCAK256 0x4D CALLDATASIZE RETURNDATASIZE PUSH11 0x128B0861BC94B67FEFE317 0x1F SWAP12 JUMP PUSH6 0x4681674A8C43 SLOAD 0xDD LOG0 INVALID RETURN 0xF 0x2C PUSH5 0x736F6C6343 STOP SMOD MOD STOP CALLER "
				},
				"gasEstimates": {
					"creation": {
						"codeDepositCost": "43600",
						"executionCost": "93",
						"totalCost": "43693"
					},
					"external": {
						"sum(uint256,uint256)": "20290",
						"sumView()": "991"
					}
				},
				"methodIdentifiers": {
					"sum(uint256,uint256)": "cad0899b",
					"sumView()": "b89e77c9"
				}
			},
			"storageLayout": {
				"storage": [
					{
						"astId": 3,
						"contract": "contracts/VariableTypes.sol:Variable",
						"label": "sumVar",
						"offset": 0,
						"slot": "0",
						"type": "t_uint256"
					}
				],
				"types": {
					"t_uint256": {
						"encoding": "inplace",
						"label": "uint256",
						"numberOfBytes": "32"
					}
				}
			},
			"userdoc": {
				"kind": "user",
				"methods": {},
				"version": 1
			}
		}
	}
}